:020000040800F2
:1000000028570120C101000897BB0008D5A90008A6
:1000100093BB0008312000082BF900080000000005
:10002000000000000000000000000000DDC6000825
:100030008F2100080000000081C100080DC80008E1
:10004000DB010008DB010008DB010008DB01000820
:10005000DB010008DB010008DB010008DB01000810
:10006000912100089B210008DB010008DB0100084A
:10007000DB010008FD200008DB0100080D2100085D
:10008000DB010008DB010008DB010008DB010008E0
:10009000DB010008DB010008DB010008DB010008D0
:1000A000DB010008DB010008DB010008DB010008C0
:1000B000DB010008DB0100082DC90008DB01000896
:1000C000DB010008DB010008DB010008DB010008A0
:1000D000DB010008DB010008A5D00008DB010008F7
:1000E000DB010008DB010008DB010008DB01000880
:1000F000DB010008DB010008DB010008DB01000870
:10010000DB010008DB010008DB010008DB0100085F
:10011000DB010008C5C90008DB010008DB0100089D
:10012000DB010008DB010008DB010008DB0100083F
:10013000DB010008DB010008DB010008DB0100082F
:10014000DB010008DB010008DB01000801BF00083B
:10015000DB010008DB010008DB010008DB0100080F
:10016000DB010008DB010008DB010008DB010008FF
:10017000DB01000811BF0008DB01000800000000DF
:10018000DB010008DB010008DB010008DB010008DF
:10019000DB010008DB010008DB010008DB010008CF
:1001A000DB010008DB010008DB010008DFF80CD0F0
:1001B00000F07EFC004800474D55010828570120FB
:1001C0000648804706480047FEE7FEE7FEE7FEE7F1
:1001D000FEE7FEE7FEE7FEE7FEE7FEE7C9C8000828
:1001E000AD0100080649074A0868504343F2390246
:1001F00010440860400870470149086070470000DB
:100200009C0400206D4EC641014610B50B683C228F
:10021000B3FBF2F1B1FBF2F402FB1133194802FB1C
:100220001411C0E900311822B4FBF2F102FB1142B3
:100230000B1D82600722B3FBF2F402FB143289002B
:1002400040F2B55401F66C318261B1FBF4F204FB6B
:10025000121102F1440389084361C1613B2903D3B0
:10026000027D920700D0491C0022074C1346026110
:10027000E25C8A4203D8891A5B1C0361F8E7491CD7
:10028000C16010BDF8460020508201082DE9F04FF2
:1002900086B000248346EC464FF00709A246009240
:1002A0005CF8242012F8015B4CF824203DB1252D88
:1002B0000BD0012905D900F8015B491EA1E0641E9D
:1002C0009FE0002006B0BDE8F08F12F8015B4CF80B
:1002D0002420002DF3D002225A2DEFD018DC4D2D12
:1002E0004DD00CDC422D33D004DC252DE1D0412D46
:1002F000E4D128E0482D32D0492DDFD131E0533D03
:10030000072D7ED2DFE805F0477D497D536264000A
:100310006D2D31D00CDC632D1DD004DC612D10D08F
:10032000622D6ED112E0642D17D06A2D69D120E0C4
:10033000702D26D0772D37D0782D45D0792D60D1EE
:1003400047E038A200E03EA29D6966E04BA200E0D3
:10035000564A1D6961E056A219E0DE683CE09E68DD
:100360003AE09D680C26173595FBF6F706FB175605
:1003700003E00322DE6900E01E69761C2CE05E6863
:100380002AE09A680C2A01DA4BA200E04BA2641C16
:100390004CF8242035E01E681EE0D3E90665AD1B4D
:1003A000ED1D95FBF9F617E001229E6914E09E69A8
:1003B0004D46B61D96FBF5F709FB1766DF69BE1BB8
:1003C000F61D96FBF9F607E03DA2E0E73FA2DEE767
:1003D00004225E6906F26C7605AD8DF814A04FF02C
:1003E0000A0807E096FBF8F708FB1766303605F8B1
:1003F000016D3E46171EA2F10102F3DC641C4CF8AD
:100400002450002CBFF64CAF80F800A0A0EB0B00EE
:1004100058E712F8016B002EFBD12E1EA5F1010545
:10042000F7DCB4E753756E004D6F6E0054756500D0
:100430005765640054687500467269005361740022
:1004400053756E646179004D6F6E64617900547507
:100450006573646179005765646E657364617900E2
:1004600054687572736461790046726964617900D9
:100470005361747572646179000000004A616E0016
:10048000466562004D617200417072004D617900F5
:100490004A756E004A756C004175670053657000BF
:1004A0004F6374004E6F7600446563005C82010800
:1004B0002578202558000000414D0000504D0000D7
:1004C00025642025622025590000000025483A2592
:1004D0004D3A25530000000040EA01039B0703D07A
:1004E00009E008C9121F08C0042AFAD203E011F873
:1004F000013B00F8013B521EF9D27047D2B201E035
:1005000000F8012B491EFBD270470022F6E710B518
:1005100013460A4604461946FFF7F0FF204610BD71
:10052000421E12F8013F002BFBD111F8013B02F8EB
:10053000013B002BF9D1704730B505462A460B46E2
:1005400012F8010B13F8014B08B1A042F8D01CB10E
:10055000002802D06D1CF1E7284630BD421C10F87F
:10056000011B0029FBD1801A704730B504460020DA
:10057000034600E05B1C934203D2E05CCD5C401B71
:10058000F8D030BD034611F8012B00F8012B002AEA
:10059000F9D1184670472DE9FE4F81EA030404F0B3
:1005A000004421F0004100944FF0000B23F0004381
:1005B00050EA01045ED052EA03045BD0C3F30A544C
:1005C000C1F30A552C44A4F2F3340194A0FB025465
:1005D000C1F3130141F48011C3F3130343F48013F7
:1005E00001FB024400FB034E840A970A44EA81544B
:1005F00047EA8357A4FB076802958D0A05FB078528
:100600004FEA932C04FB0C542705029D4FEA065831
:1006100047EA1637B5EB08056EEB070C870E920E0E
:1006200047EA811742EA8312A7FB0201B6EB0B01EE
:1006300064EB00042B0D43EA0C335E1844EB1C50B2
:10064000DA465146E7FB0201C5F313044FEA0B33C8
:1006500043EA14534FEA0432019C43EA0603A4F12F
:100660000C040294009CCDE900B400F0FFF803B044
:10067000BDE8F08F00200146F9E72DE9F04D81EA51
:10068000030404F0004B21F0004514464FF0000A2B
:1006900023F0004150EA050220D054EA01021DD0A7
:1006A000C5F30A570246C5F31303C1F31300C1F3A0
:1006B0000A5640F4801543F48013A7EB0608101B7C
:1006C000D64608F2FD3873EB050002D308F10108A5
:1006D00001E092185B41B8F1000F03DA00200146F7
:1006E000BDE8F08D00204FF48011064684460EE0F0
:1006F000171B73EB050705D3121B63EB05030643BA
:100700004CEA010C49084FEA300092185B4150EA6C
:100710000107EDD152EA030012D082EA040083EA15
:100720000501084305D0101BAB4106D2012200236E
:1007300006E000224FF0004302E06FF00102531088
:100740001AEB06004CEB085110EB0A0041EB0B01D1
:10075000BDE8F04D00F07DB80EB540F23341029196
:100760000021CDE900110A460B4600F07FF803B0E6
:1007700000BDC1F30A5210B5C1F3130140F2FF33BB
:1007800041F480119A4201DA002010BD40F2334357
:100790009A42A2F2334203DC524200F04AF810BD02
:1007A000904010BD30B50B460146002020220124A8
:1007B00009E021FA02F59D4205D303FA02F5491B2F
:1007C00004FA02F52844151EA2F10102F1DC30BD45
:1007D0002DE9F05F0546002092469B468846064676
:1007E000814640241BE0284641464746224600F009
:1007F00020F853465A46C01A914110D31146184664
:10080000224600F067F92D1A67EB01084F46224691
:100810000120002100F05EF917EB00094E41201E77
:10082000A4F10104DFDC484631462A464346BDE8D0
:10083000F09F202A04DB203A21FA02F000217047C1
:1008400021FA02F3D040C2F1200291400843194638
:10085000704710B5002B08DA401C41F100019218D6
:100860005B411A4301D120F0010010BD2DE9F04D8C
:1008700092469B4611B1B1FA81F202E0B0FA80F2E1
:100880002032904600F026F904460F4640EA0A005E
:1008900041EA0B0153465A46084313D0114653EA26
:1008A000010019D0C8F140025046FFF7C2FF0546CB
:1008B0000E4650465946424600F00CF9084305D012
:1008C000012004E020463946BDE8F08D00200543B4
:1008D00046EAE0762C4337430A986305E40AA0EB26
:1008E00008000022FD0A44EA47540A3002D50020DD
:1008F0000146E9E7010510196941DDE908450019DC
:100900006941BDE8F04DA4E72DE9FE4F804681EA3C
:100910000300C00F0C46009021F0004123F0004579
:10092000B8EB0200A94105D24046214690461C463C
:100930000B46024623F00040104347D0270DC7F373
:100940000A00C3F30A510290401A019040286BDA62
:10095000C3F3130040F4801B0098924620B100239B
:10096000D2EB030A63EB0B0B01985946C0F140022E
:10097000504600F0AFF806460D4650465946019ADB
:1009800000F0B7F810EB08006141002487EA11522B
:1009900084EAE7731A4340D0009A62B3019A012AAD
:1009A0004FEA075215DC001B61EB02014FF00042D9
:1009B00002EA0752CDE90042001C41F5801132469F
:1009C0002B46FFF753FF03B0BDE8F08F40462146AA
:1009D000F9E7001B61EB0201001C41F580130018D0
:1009E0005B412018A2F5001747EB030140EAD570E0
:1009F000B6196D4111E06D084FEA360645EAC0753B
:100A00004FEA0752001B61EB0201001C41F5801107
:100A100049084FEA30000019514132462B4603B0D5
:100A2000BDE8F04FFFF715BF0098012240000023FA
:100A3000D0EB020263EBE073009821464FEAE074CA
:100A4000B8EB000061EB0401E9E783F000435BE7EA
:100A500081F0004158E7C1F30A52C1F3130140F29B
:100A6000FF3341F480119A4202DA002001467047B8
:100A700040F233439A42A2F2334202DC5242FFF781
:100A8000D8BE00F027B8000030B5002904DB4FF0D5
:100A90000044404264EB0101002B04DB4FF00044B2
:100AA000524264EB0303994208BF904230BD0000FC
:100AB000064C074D06E0E06840F0010394E80700AB
:100AC00098471034AC42F6D3FFF774FB288A01082C
:100AD000488A0108202A04DB203A00FA02F10020AB
:100AE00070479140C2F1200320FA03F3194390406C
:100AF0007047202A06DBCB17203A41FA02F043EA7E
:100B0000E07306E041FA02F3D040C2F120029140C6
:100B100008431946704770B58C1810F8015B15F042
:100B2000070301D110F8013B2A1106D110F8012B5F
:100B300003E010F8016B01F8016B5B1EF9D12B0784
:100B400005D40023521E0DD401F8013BFAE710F83A
:100B5000013BCB1A921C03E013F8015B01F8015B27
:100B6000521EF9D5A142D8D3002070BD10B51A4845
:100B700000F003F91949096888422CD11848007817
:100B8000012802D0022824D10EE00A221549124879
:100B90000CF037FE38B90BF0C3F902201049087089
:100BA00001201149087015E01048007868B10F481D
:100BB00002780F4908480CF05FFE48B90120084947
:100BC000087000200949087002E0012004490870FB
:100BD00000E000BF00BF10BDB404002024040020CA
:100BE0001D000020C80700201E0000200500002076
:100BF0000808002070B50546D5F8AC02C46994F821
:100C00003F0010282BD1032084F835000021618695
:100C10002186002004F8340F0120207304F80C0C06
:100C20006075343C00200F4908700F48007838B9CF
:100C30004FF45C6014F00EFDE06201200A49087078
:100C40000A48E064E06C0022552103684AF64440FB
:100C5000984708B1022070BD012084F83E000020B2
:100C6000F9E700003B000020290400205C00002080
:100C70000146B1F8280241F6D102904220D1B1F8E4
:100C80002A02B0F5345F19D0B1F82A0242F60152B7
:100C9000904213D0B1F82A02521C90420ED0B1F803
:100CA0002A02521C904209D0B1F82A02521C9042EA
:100CB00004D0B1F82A02521C904201D101207047A1
:100CC0000020FCE72DE9F047074688461546D7F88F
:100CD000AC02C4694FF000090026608E2844B0F5CC
:100CE0005C6F20D9608E2844A0F55C6086B2618E6E
:100CF000E36A5818AA1B4146FFF7EEFB0021618604
:100D0000628EE36A981808EB0502911B3246FFF7E2
:100D1000E3FB608E30446086608EB0F55C6F12D36A
:100D2000002161860FE0618EE26A50182A46414632
:100D3000FFF7D2FB608E28446086608EB0F55C6F52
:100D400001D30021618694F83400A0B9608EB0F51B
:100D5000DC6F10D3012084F8340094F835000328A8
:100D600009D1E16CE06A01228B684FF4DC6198479D
:100D7000002084F83500BDE8F0870146D1F8AC02C8
:100D8000C26992F83F00704770B50546D5F8AC02CD
:100D9000C46900263248007830B10020304908701C
:100DA00005F02EFC2F49086094F84900012852D123
:100DB00094F83E00012802D002284AD10DE03D20DF
:100DC000035D228F284928460DF084FD022084F817
:100DD0003E00D5F8F00260653CE03D20015D28460C
:100DE0000DF00AFE012815D12049087005F008FC15
:100DF0001F4908603D20015D28460DF0DBFD86B2ED
:100E000026B1324618492846FFF75CFF012084F8D6
:100E10003E001DE01548007858B105F0F1FB14497B
:100E20000968401AC82813D90020104908700AF030
:100E3000E3FE05F0E5FB0B490968401A642807D971
:100E400000200A4908700120054908700AF0D4FE04
:100E500000E000BF03E005F0D3FB0549086070BD6A
:100E60005404002050040020A04400202804002046
:100E70004C0400202DE9F0410646D6F8AC02C469C6
:100E8000002794F84200032802D004282DD109E05D
:100E9000237962883046A1680CF026FD042084F88E
:100EA000420023E0217930460DF0A6FD0746012FD0
:100EB0001AD1217930460DF07DFD85B2E068401BE6
:100EC0000CD06088A84209DAE068401BE060A068A6
:100ED0002844A060032084F8420005E0002084F844
:100EE0004200012084F8470000E000BF00BFBDE8D9
:100EF000F081F8B50546D5F8AC02C469002694F82F
:100F00004100012802D0022843D119E0E08A216A79
:100F1000814208D901200090237EE28A2846E169B7
:100F20000CF0F7FC08E001200090237E208C82B2B8
:100F30002846E1690CF0EDFC022084F8410029E02C
:100F4000217E28460DF058FD0646012E1BD1E08A71
:100F5000216A814208D9E08A216A091A2162E08A5D
:100F6000E1690144E16101E000212162206A18B1D8
:100F7000012084F841000BE0002084F841000120AA
:100F800084F8460004E0022E02D1012084F84100DA
:100F900000E000BF00BFF8BDD0F8AC22D16901224B
:100FA00081F849207047D0F8AC22D169002281F83D
:100FB000492070473EB50546D5F8AC02C4692846BD
:100FC0000CF062FAD0B9207C012817D1217928468B
:100FD0000CF077FC20716088022295F81D12CDE993
:100FE0000012029095F81C322278217928460DF0E3
:100FF000A8FD2179002228460DF062FD28460CF05C
:10100000CAFAD8B92420005D012817D1217E2846CC
:101010000CF057FC2076E08A022295F81D12CDE9EB
:101020000012029095F81C32227D217E28460DF098
:1010300088FD217E002228460DF042FD28460CF056
:1010400091F900BB3C20005D01281CD194F83610BA
:1010500028460CF036FC3D210855208F012295F8DA
:101060001D12CDE90012029095F81C3294F836203A
:101070003D20015D28460DF064FD3D20015D00220C
:1010800028460DF01DFD00203EBD70B50446D4F885
:10109000AC02C569C02121743321617400216182D1
:1010A000A1820221E182022205F1500120460CF0CA
:1010B0007CFC70BD2DE9F04104460E4615462846DD
:1010C000FFF74CFA401C87B240212174342161742F
:1010D00000216182A682E7823A46294620460CF02A
:1010E00064FCBDE8F08110B50446402121743A212A
:1010F0006174012161820021A182E18200221146F6
:1011000020460CF052FC10BD10B50446402121745D
:101110003521617400216182A182E18200221146A1
:1011200020460CF042FC10BD10B5012009F00AFF6A
:1011300010BD70B504460D461646F3B2EAB221461C
:1011400001200AF0BDF870BD10B50446022000F081
:10115000F7F8002010BD0020704770B504460D461A
:101160001646E9B22246012000F052F8002070BD78
:1011700010B50446204600F0C3F8002010BD70B53D
:1011800006460C461546012D02D0022D0AD104E078
:101190002146304600F08EF804E0A1B2304600F05F
:1011A0000BF800BF00BF002070BD10B504462046FC
:1011B00000F0B6F8002010BD70B504460D462A4672
:1011C0002146024806F026FD70BD0000900C00206C
:1011D0007047000010B50B48D0F8AC020A498842AD
:1011E00004D1012107480BF065FF09E00548D0F85C
:1011F000AC020649884203D1012102480CF0AEFE40
:1012000010BD0000B40400202C04002004030020C2
:101210002DE9F0478CB00746884614464FF0010987
:101220004FF0000A0025FF2600BF07E01C4850F8D9
:101230002500A04200D12E46681CC5B2082DF5DB62
:10124000684606F05FFEFF2E0DD001200090154885
:1012500050F826000190144850F826100291684674
:1012600006F0D6FE09E0012000904FF48170019055
:1012700003210291684606F0CBFE0C480C49086039
:1012800008460068234642463946D0F800C034205C
:10129000E04720460AF0B0F848460CB0BDE8F087B9
:1012A000847B0108A47B0108C47B01087401002031
:1012B000AC01002070B505460C464FF48030B0EB11
:1012C000540F01D9600801E04FF6FF7082B2294641
:1012D000024806F09FFC002070BD0000900C00202A
:1012E00010B50446054800682146826A34209047BC
:1012F00008B1012010BD0020FCE70000AC01002077
:1013000010B50446054800682146026A342090471B
:1013100008B1012010BD0020FCE70000AC01002056
:1013200010B50446054800682146C269342090473C
:1013300008B1012010BD0020FCE70000AC01002036
:10134000014600207047000010B50B48D0F8AC02F1
:101350000A49884204D1022107480BF0ABFE09E09C
:101360000548D0F8AC020649884203D10221024860
:101370000CF0F4FD10BD0000B40400202C0400208B
:101380000403002010B50446204604F031FE10BDD1
:101390002DE9F041044600252046FFF7DFF8C7B2EB
:1013A0002046FFF7DBF886B232462146054808F0B2
:1013B00093FC18B1022000F0E7FB00E0012528466D
:1013C000BDE8F0812011002010B5314A4FF41651CC
:1013D000012000F05FFA01222E492D4808F044FB5D
:1013E0002DA000F049F9642016F0CEF82FA000F0EF
:1013F00043F9642016F0C8F831A000F03DF96420EC
:1014000016F0C2F834A000F037F9642016F0BCF8EA
:1014100038A000F031F9642016F0B6F83CA000F0D6
:101420002BF9642016F0B0F83FA000F025F96420F5
:1014300016F0AAF841A000F01FF9642016F0A4F8F5
:1014400044A000F019F9642016F09EF84AA000F0BC
:1014500013F9642016F098F84DA000F00DF96420FF
:1014600016F092F850A000F007F9642016F08CF8FE
:101470005BA000F001F9642016F086F85AA000F095
:10148000FBF84FF4FA70FFF77DFF0FF05DFE10BD23
:1014900020110020C402002053455420454E4142F3
:1014A0004C455F5350503D4F4E0000005345542073
:1014B000454E41424C455F4941503D4F4E00000072
:1014C00053455420454E41424C455F4941505F567B
:1014D000323D4F4E000000004941502041434345FA
:1014E00053534F52595F4E414D453D474154455727
:1014F00041590000494150204D414E554641435409
:10150000555245525F4E414D453D41524B410000C1
:10151000494150204D4F44454C5F4E414D453D475C
:101520005456313030000000494150205345524953
:10153000414C5F4E4F3D56312E3100004941502005
:10154000534545445F49443D3132333435363738AD
:10155000393000004941502050524F544F434F4CB6
:101560005F535452494E473D636F6D2E61726B61FC
:101570002D696D732E6274004941502048415244D8
:10158000574152455F5645523D32203020310000D0
:10159000494150204649524D574152455F564552A8
:1015A0003D342030203100005345542044455649F5
:1015B00043455F49443D30313031203032303220B4
:1015C0003033303320303430342030353035203033
:1015D0003630362030373037203038303800000091
:1015E00057524954450000005245534554000000ED
:1015F00010B51248006812490968401A32280ADA00
:10160000104800780D49096808700C480068401CB3
:101610000A49086006E00C48084908600948007853
:101620000968087001220749084808F01DFA0FF000
:10163000FFFD022000F0A8FA10BD0000C00200204B
:10164000BC020020C40200205C11002020110020F8
:1016500010B5032000F098FA10BD000010B5054841
:1016600000680FF08DFD0FF06FFD042000F08CFA84
:1016700010BD0000C802002070B5044600252046B9
:10168000FEF76CFF461C304613F0E4FF0C4908607F
:1016900021460B480068FEF775FF0AA1084800685C
:1016A000FEF73EFF06480068FFF772FE012803D0F0
:1016B000022000F069FA00E00125284670BD000014
:1016C000C80200200D00000070B504460025204629
:1016D000FEF744FF861D304613F0BCFF0E4908603C
:1016E0000EA10D480068FEF74DFF21460A4800682C
:1016F000FEF716FF0BA108480068FEF711FF064829
:101700000068FFF745FE012803D0022000F03CFAF4
:1017100000E00125284670BDC802002053454E4414
:10172000200000000D00000070B50446012534B112
:10173000012C09D0022C0CD0032C14D10EE0002077
:10174000104941F824000FE00F480E4941F82400E9
:101750000AE00E480B4941F8240005E00C4809490D
:1017600041F8240000E000BF00BF064951F82410F2
:1017700048688047034951F82410086880470546A7
:10178000284670BD880F0020CD00002022010020D7
:101790004B01002070B504460D467726064850F8E8
:1017A000240030B1044850F8240041692846884795
:1017B0000646304670BD0000880F00202DE9F84F26
:1017C00004460D4616461F46DDE90A894FF0770AA2
:1017D0000B4850F8240060B10948CDF8009050F84B
:1017E0002400D0F818C043463A4631462846E04720
:1017F0008246554502D00120BDE8F88F0020FBE766
:10180000880F002070B504460D467726074850F82B
:10181000240030B1054850F82400016A2846884762
:1018200006460EB1002070BD0120FCE7880F0020A5
:101830000FB4F8B504460B9D77260A4850F82400EB
:1018400040B10848009550F82400C76907A80FC8A0
:10185000B84706461EB10020F8BC5DF814FB012015
:10186000FAE70000880F002010B51F220449054840
:1018700008F0FAF810B1022000F086F910BD00005F
:10188000EC100020B010002010B50FF0A7FC40B203
:1018900010BD000070B586B004460E46154634B93A
:1018A0006848006840F001006649086024E0012CA7
:1018B00006D16448006840F00400624908601BE0FB
:1018C000022C06D15F48006840F008005D490860BE
:1018D00012E0032C06D15B48006840F00100594932
:1018E000086009E0042C06D15648006840F010005A
:1018F0005449086000E000BF34B95248006840F025
:1019000001005049086024E0012C06D14D480068D0
:1019100040F008004B4908601BE0022C06D1494802
:10192000006840F008004749086012E0032C06D127
:101930004448006840F001004249086009E0042C76
:1019400006D14048006840F010003E49086000E0C1
:1019500000BF44B93B481030006840F400303949BA
:10196000103108602CE0012C08D136481030006896
:1019700040F4801033491031086021E0022C08D176
:1019800030481030006840F400302E4910310860B3
:1019900016E0032C08D12B481030006840F40020DA
:1019A0002849103108600BE0042C08D1254810307C
:1019B000006840F0004023491031086000E000BF9B
:1019C000214830F814000190022002900490012078
:1019D00003901E4830F8140005901D4951F824006A
:1019E00001A904F033FB1B4830F8140001900220D9
:1019F0000290194830F814000590184951F8240055
:101A000001A904F023FB164850F8240028606E60FA
:101A10000021A960E9602961A9610C21696111496E
:101A200011F8141048B20122002106F0F5F90D4911
:101A300011F8141048B206F0E2F9284607F042FF08
:101A400006B070BD30380240FA7B01080E7C0108F8
:101A5000F0010020047C0108187C01080402002029
:101A6000DC010020227C010810B50DF061FF0AF0B6
:101A700089FE10BD10B50021084600F031FA0021A2
:101A8000012000F02DFA0021042000F029FA0021A5
:101A9000022000F025FA0021032000F021FA0021A5
:101AA000042000F01DFA0021052000F019FA10BDF5
:101AB00010B586B0044634B92048006840F04000B4
:101AC0001E49086020E0012C06D11C48006840F047
:101AD00040001A49086017E0022C06D11748006838
:101AE00040F04000154908600EE0032C06D1134871
:101AF000006840F004001149086005E00F480068E4
:101B000040F040000D4908600D4830F81400019085
:101B1000012002900390022004900A4951F8240009
:101B200001A904F093FA064A32F81410054A52F853
:101B30002400012204F022FD06B010BD303802401E
:101B4000E47B0108B001002010B50446044A32F8D5
:101B50001410044A52F82400012204F00FFD10BDB5
:101B6000E47B0108B001002010B50446044A32F8B5
:101B70001410044A52F82400002204F0FFFC10BDA7
:101B8000E47B0108B001002010B50446044A32F895
:101B90001410044A52F8240004F0B8FC10BD0000F0
:101BA000E47B0108B001002010B504462E4800680F
:101BB00040F400102C4908602C482D4908604FF073
:101BC0000060486040212A4881600021C1604FF4D4
:101BD00080610161002141618161C16101624162F5
:101BE000032181624FF40001C1628910016304F096
:101BF0004FF800BF1E482063846300BF1B48303885
:101C00001C4908604005486000211A488160C16095
:101C10004FF480610161002141618161C1614FF434
:101C20000031016200214162032181624FF4000111
:101C3000C1628910016304F02BF800BF0D48606396
:101C4000846300BF012200210F2006F0E5F80F2079
:101C500006F0D5F8002211460D2006F0DDF80D2023
:101C600006F0CDF810BD0000303802407060024030
:101C70001010002060100020F8B504460D461646EE
:101C80000020009014B1012C43D12AE0224A41F6F1
:101C900021310320FFF7FEFD012269461E4807F0AF
:101CA000C9FF00BF1D4800780128FBD100201B4957
:101CB0000870194A42F6B1010320FFF7EBFD3246E6
:101CC0002946154807F0B6FF10B10020FFF75CFF6A
:101CD00000BF124800780128FBD100200F4908708E
:101CE00018E00F4A4FF448610220FFF7D3FD642348
:101CF000012269460A4807F024FF094A4FF4965129
:101D00000220FFF7C7FD32462946054807F0E4FFE9
:101D100000E000BF00BFF8BD980F00208F0000203A
:101D2000D40F002070B504460D46012600F072F86D
:101D300014B1012C1BD10EE00F48FFF735FF0E4AFE
:101D400042F6B1010320FFF7A5FD29460A4806F037
:101D500009F806460CE0094A4FF416510220FFF735
:101D600099FD2946054805F0FDFF064600E000BF45
:101D700000BF304670BD0000980F0020D40F002037
:101D800010B504460120FFF7FFFE0120024908704C
:101D90000249087010BD0000990000208F0000204B
:101DA00010B504460220FFF7EFFE10BD10B5044643
:101DB00014B1012C1BD10EE001201049087010480D
:101DC0000278D21C0F49104807F0FEFD10B1002028
:101DD000FFF7DAFE0CE00A480278D21C0B490C48E7
:101DE00007F0F2FD10B10020FFF7CEFE00E000BFCB
:101DF00000BF0420FFF7C8FE10BD00008F000020C8
:101E0000B9020020680B0020980F0020730B0020FF
:101E1000D40F002000B585B02E48006840F02000A7
:101E20002C490860102000900120019002900220AF
:101E300003906946284804F009F901221021264838
:101E400004F09CFB2348006840F00800214908602A
:101E50004FF4004000900120019002900220039076
:101E600069461E4804F0F2F80122D1031B4804F031
:101E700085FB1848006840F02000164908600820DB
:101E800000900120019002900220039069461248C0
:101E900004F0DCF8002208210F4804F06FFB0D4825
:101EA000006840F008000B4908604FF48040009043
:101EB000012001900290022003906946074804F037
:101EC000C5F800224FF48041044804F057FB05B0E8
:101ED00000BD00003038024000140240000C0240F7
:101EE00030B585B004460D46002534B92548006854
:101EF00040F080002349086029E0012C06D12148E8
:101F0000006840F080001F49086020E0022C06D1E4
:101F10001C48006840F080001A49086017E0032C54
:101F200006D11848006840F08000164908600EE0AD
:101F3000042C06D11348006840F080001149086065
:101F400005E01048006840F010000E4908600D4898
:101F50001430006840F480400A491431086075B9B3
:101F6000094830F8140000900020019002900220EF
:101F70000390064951F82400694604F067F805B05B
:101F800030BD000030380240EE7B0108C401002063
:101F900010B50446034800682146026AC6209047EF
:101FA00010BD0000A402002010B501240548064918
:101FB0000860084600680168C62088470AF0D8FC17
:101FC000204610BDFC000020A402002010B50446ED
:101FD0000348006821464269C620904780B210BD80
:101FE000A402002010B50446054800682146826816
:101FF000C620904708B1012010BD0020FCE700007A
:10200000A402002070B504460D460848006858B187
:10201000064800682A4621460369C620984708B149
:10202000012070BD0020FCE70120FAE7A402002097
:1020300000BFFEE710B50446204603F0D9FF10BDEF
:1020400010B5044AD188044AD068012204F096FAF7
:1020500010BD0000507C01087802002010B504F08B
:10206000CFFA10BD10B503200AF046F910BD0000EC
:1020700008B54FF47A7301226946054806F0AFFFB0
:1020800010B103200AF037F99DF8000008BD0000E8
:102090001C0E002070B504460D464FF47A732A4694
:1020A0002146044807F0BCF810B103200AF023F9D8
:1020B00070BD00001C0E002010B5044AD188044AEF
:1020C000D068002204F05AFA10BD0000507C0108CC
:1020D000780200202DE9F04707460D4614460026F9
:1020E0006806000E40EA242804F0FF094A464146EB
:1020F0003846FFF71EF83046BDE8F08710B50249B4
:10210000486B01F037FA10BD980F002010B5024956
:10211000086B01F02FFA10BD980F002010B504686D
:1021200063608468402C04D10468A2600468E160A4
:1021300003E00468A1600468E26010BD014600226B
:1021400005E0002301F52D7040F82230521C0F2AC3
:10215000F7D3002204E0002301F11C008354521C39
:10216000B2F5007FF7D30020087048700120887016
:102170000020C1F8F00201230B7640238B7100236D
:102180004B7681F81C32012381F81D32704770476D
:1021900010B5042003F04CFF10BD10B5082003F06B
:1021A00047FF10BD002002498872C87270470000C6
:1021B000A804002070B500246B48D0F8AC026B492D
:1021C000884203D16848D0F8AC02C469FFF75CFBD1
:1021D000C5B21A2D79D2DFE805F00D1D1E1F202192
:1021E00022232425354554646566676869797A7BBE
:1021F0008B9BABB705205E49087003204870022016
:102200005C49087014B1052084F820005848FFF795
:102210005BFAA6E0A5E0A4E0A3E0A2E0A1E0A0E0D4
:102220009FE09EE00520524908700120487002207E
:102230005049087014B1052084F820004C48FFF77D
:1022400043FA8EE005204A490870092048700220B0
:102250004849087014B1052084F820004448FFF76D
:1022600033FA7EE005204249087048700220414957
:10227000087014B1052084F820003D48FFF724FAC7
:102280006FE005203A49087004204870022039495F
:10229000087014B1052084F820003548FFF714FABF
:1022A0005FE05EE05DE05CE05BE05AE00520304925
:1022B0000870022048702F49087014B1052084F876
:1022C00020002B48FFF700FA4BE049E049E048E0E6
:1022D0000520274908700820487002202549087009
:1022E00014B1052084F820002148FFF7EDF938E00B
:1022F00005201F4908700620487002201D490870FB
:1023000014B1052084F820001948FFF7DDF928E012
:1023100005201749087007204870022015490870E9
:1023200014B1052084F820001148FFF7CDF918E01A
:1023300011480078622803DA0F480078801C00E01A
:1023400064200D4908700CE00B480078022803DD7A
:1023500009480078801E00E000200749087000E06E
:1023600000BF00BF70BD0000B404002004030020C3
:102370000808002005000020390000202DE9F04762
:10238000074688461546D7F8AC02C4694FF00009E5
:102390000026608A2844B0F55C6F20D9608A284402
:1023A000A0F55C6086B2618AE3685818AA1B4146B2
:1023B000FEF792F800216182628AE368981808EBC0
:1023C0000502911B3246FEF787F8608A304460822E
:1023D000608AB0F55C6F12D3002161820FE0618AE0
:1023E000E26850182A464146FEF776F8608A28448B
:1023F0006082608AB0F55C6F01D300216182207D2C
:1024000088B9608AB0F5DC6F0DD301202075607D3E
:10241000032808D1E16CE06801228B684FF4DC618D
:10242000984700206075BDE8F08710B50446204647
:1024300003F0DEFD10BD000010B5044A5188044AC7
:102440005068012204F09AF810BD0000507C010889
:102450007802002010B504F0D3F810BD10B50320A9
:1024600014F0CEFC012009F047FF10BD08B54FF471
:102470007A7301226946054806F0B1FD10B10120CA
:1024800009F039FF9DF8000008BD0000740D002020
:1024900070B504460D464FF47A732A462146044827
:1024A00006F0BEFE10B1012009F025FF70BD00004E
:1024B000740D002010B5044A5188044A5068002267
:1024C00004F05CF810BD0000507C01087802002088
:1024D0003EB502460023002100BF07E001208840EE
:1024E0001040084101AC6054481CC1B20729F5DB1B
:1024F0009DF804409DF805502C449DF806502C444E
:102500009DF80850601900EBD0746410A0EB4404EF
:10251000E4B28DF800409DF805409DF807502C442A
:102520009DF808502C449DF80950601900EBD074B8
:102530006410A0EB44040CB9012400E000248DF8E1
:1025400001409DF8000002EB80109DF8014000EB77
:10255000C410C3B218463EBD014691F835000228AA
:1025600001D1012070470868006820F001000A6866
:10257000106000200A6810600A6850600A68906065
:102580000A68D0600A68106121200A685061F74A21
:102590000868904260D9F5484C380068F44B0A68E6
:1025A0009A4201D1F34A52E0F04B483B0A689A4202
:1025B00001D1F04A4BE0EE4B60330A689A4201D1F8
:1025C000EC4A44E0E94B18330A689A4201D1E94ADF
:1025D0003DE0E74B18330A689A4201D1921536E084
:1025E000E24B303B0A689A4201D192152FE0E04B52
:1025F00078330A689A4201D1921528E0DB4B3033D8
:102600000A689A4201D1921521E0D94B30330A6809
:102610009A4202D14FF4802219E0D44B183B0A6849
:102620009A4202D14FF4802211E0D14B90330A68D4
:102630009A4202D14FF4802209E0CC4B48330A6819
:102640009A4202D14FF4802201E04FF08072104391
:10265000C64A4C3A10602BE1C54AA832086890423D
:1026600060D9C24850380068C14B0A689A4201D10B
:10267000C04A52E0BD4B483B0A689A4201D1BD4A6C
:102680004BE0BB4B60330A689A4201D1B94A44E03F
:10269000B64B18330A689A4201D1B64A3DE0B44BB2
:1026A00018330A689A4201D1921536E0AF4B303B9D
:1026B0000A689A4201D192152FE0AD4B78330A682F
:1026C0009A4201D1921528E0A84B30330A689A4209
:1026D00001D1921521E0A64B30330A689A4202D10B
:1026E0004FF4802219E0A14B183B0A689A4202D1AC
:1026F0004FF4802211E09E4B90330A689A4202D137
:102700004FF4802209E0994B48330A689A4202D17B
:102710004FF4802201E04FF080721043934A503A08
:102720001060C5E0924A48320868904260D99048EB
:102730001038C0688E4B0A689A4201D18D4A52E027
:102740008A4B483B0A689A4201D18A4A4BE0884B3F
:1027500060330A689A4201D1864A44E0834B1833B9
:102760000A689A4201D1834A3DE0814B18330A68D6
:102770009A4201D1921536E07C4B303B0A689A426E
:1027800001D192152FE07A4B78330A689A4201D131
:10279000921528E0754B30330A689A4201D19215A0
:1027A00021E0734B30330A689A4202D14FF4802201
:1027B00019E06E4B183B0A689A4202D14FF480220E
:1027C00011E06B4B90330A689A4202D14FF4802299
:1027D00009E0664B48330A689A4202D14FF48022DE
:1027E00001E04FF080721043614A103AD0605FE020
:1027F0005F48103880685E4B0A689A4201D15D4A92
:1028000052E05A4B483B0A689A4201D1594A4BE080
:10281000574B60330A689A4201D1564A44E0534B01
:1028200018330A689A4201D1524A3DE0504B18339E
:102830000A689A4201D1921536E04C4B303B0A6847
:102840009A4201D192152FE0494B78330A689A4297
:1028500001D1921528E0454B30330A689A4201D1E4
:10286000921521E0424B30330A689A4202D14FF46C
:10287000802219E03D4B183B0A689A4202D14FF47E
:10288000802211E03A4B90330A689A4202D14FF409
:10289000802209E0354B48330A689A4202D14FF44E
:1028A000802201E04FF080721043314A103A90606C
:1028B0002E4A0868904265D92C484C3800682C4B49
:1028C0000A689A4201D1202258E0284B483B0A6806
:1028D0009A4201D1202251E0254B60330A689A4286
:1028E00001D120224AE0214B18330A689A4201D1D3
:1028F000202243E01E4B18330A689A4201D1D214B9
:102900003CE01A4B303B0A689A4201D1D21435E0C0
:10291000174B78330A689A4201D1D2142EE0134B38
:1029200030330A689A4201D1D21427E0104B303379
:102930000A689A4202D14FF400121FE00B4B183B79
:102940000A689A4202D14FF4001217E0084B903304
:102950000A689A4202D14FF400120FE0034B483349
:102960000A689A4208D14FF4001207E05864024006
:1029700010600240040080004FF000621043FA4AE9
:1029800010602DE1F94A0868904261D9F648001FAD
:102990000068F64BA83B0A689A4201D1202252E017
:1029A000F14B1B1D0A689A4201D120224BE0EF4BEC
:1029B000483B0A689A4201D1202244E0EA4B643342
:1029C0000A689A4201D120223DE0E84B903B0A6818
:1029D0009A4201D1D21436E0E34B1C330A689A4282
:1029E00001D1D2142FE0E14B303B0A689A4201D169
:1029F000D21428E0DC4B7C330A689A4201D1D2140D
:102A000021E0DA4B783B0A689A4202D14FF4001277
:102A100019E0D54B34330A689A4202D14FF40012C0
:102A200011E0D24B183B0A689A4202D14FF40012CF
:102A300009E0CD4B94330A689A4202D14FF4001258
:102A400001E04FF000621043C74A121F1060C7E058
:102A5000C64A603A0868904261D9C448B838C0682C
:102A6000C24BA83B0A689A4201D1202252E0BE4BD9
:102A70001B1D0A689A4201D120224BE0BB4B483B08
:102A80000A689A4201D1202244E0B74B64330A68B5
:102A90009A4201D120223DE0B44B903B0A689A4211
:102AA00001D1D21436E0B04B1C330A689A4201D1EE
:102AB000D2142FE0AD4B303B0A689A4201D1D214B8
:102AC00028E0A94B7C330A689A4201D1D21421E054
:102AD000A64B783B0A689A4202D14FF4001219E0E3
:102AE000A14B34330A689A4202D14FF4001211E02C
:102AF0009E4B183B0A689A4202D14FF4001209E03B
:102B0000994B94330A689A4202D14FF4001201E0C3
:102B10004FF000621043954AB83AD06060E09348A5
:102B2000B8388068914BA83B0A689A4201D12022AC
:102B300052E08D4B1B1D0A689A4201D120224BE0C6
:102B40008A4B483B0A689A4201D1202244E0864BD6
:102B500064330A689A4201D120223DE0834B903BC6
:102B60000A689A4201D1D21436E07F4B1C330A68BE
:102B70009A4201D1D2142FE07C4B303B0A689A4232
:102B800001D1D21428E0784B7C330A689A4201D1F3
:102B9000D21421E0754B783B0A689A4202D14FF477
:102BA000001219E0704B34330A689A4202D14FF494
:102BB000001211E06D4B183B0A689A4202D14FF4A3
:102BC000001209E0684B94330A689A4202D14FF42C
:102BD000001201E04FF000621043644AB83A90607E
:102BE000614A4C32086890425FD95F4800685F4B89
:102BF000A83B0A689A4201D1082252E05A4B1B1D99
:102C00000A689A4201D108224BE0584B483B0A68B7
:102C10009A4201D1082244E0534B64330A689A4235
:102C200001D108223DE0514B903B0A689A4201D104
:102C3000521536E04C4B1C330A689A4201D15215AA
:102C40002FE04A4B303B0A689A4201D1521528E0E6
:102C5000454B7C330A689A4201D1521521E0434B1F
:102C6000783B0A689A4202D14FF4002219E03E4BA9
:102C700034330A689A4202D14FF4002211E03B4BF0
:102C8000183B0A689A4202D14FF4002209E0364B01
:102C900094330A689A4202D14FF4002201E04FF0C7
:102CA00000721043304A10602FE1304A08689042A9
:102CB00064D92D48001F00682C4BA83B0A689A4233
:102CC00001D1082256E0284B1B1D0A689A4201D107
:102CD00008224FE0254B483B0A689A4201D108225E
:102CE00048E0214B64330A689A4201D1082241E04E
:102CF0001E4B903B0A689A4201D152153AE01A4B9A
:102D00001C330A689A4201D1521533E0174B303B0D
:102D10000A689A4201D152152CE0134B7C330A68A1
:102D20009A4201D1521525E0104B783B0A689A422D
:102D300002D14FF400221DE00B4B34330A689A4253
:102D400002D14FF4002215E0084B183B0A689A4262
:102D500002D14FF400220DE0034B94330A689A42EB
:102D600006D14FF4002205E00C640240B860024036
:102D70004FF000721043FA4A1060C6E0F94A086842
:102D8000904261D9F7485838C068F64B483B0A680A
:102D90009A4201D1082252E0F14B08330A689A4264
:102DA00001D108224BE0EF4B18330A689A4201D157
:102DB000082244E0EA4B68330A689A4201D10822AB
:102DC0003DE0E84B303B0A689A4201D1521536E0AB
:102DD000E34B20330A689A4201D152152FE0E14BB0
:102DE00030330A689A4201D1521528E0DC4B803317
:102DF0000A689A4201D1521521E0DA4B183B0A6861
:102E00009A4202D14FF4002219E0D54B38330A68B8
:102E10009A4202D14FF4002211E0D24B48330A68A3
:102E20009A4202D14FF4002209E0CD4B98330A6850
:102E30009A4202D14FF4002201E04FF00072104399
:102E4000C84A583AD06060E0C64858388068C54BD8
:102E5000483B0A689A4201D1082252E0C04B08332D
:102E60000A689A4201D108224BE0BE4B18330A6827
:102E70009A4201D1082244E0B94B68330A689A4269
:102E800001D108223DE0B74B303B0A689A4201D19C
:102E9000521536E0B24B20330A689A4201D15215DE
:102EA0002FE0B04B30330A689A4201D1521528E026
:102EB000AB4B80330A689A4201D1521521E0A94BED
:102EC000183B0A689A4202D14FF4002219E0A44B41
:102ED00038330A689A4202D14FF4002211E0A14B24
:102EE00048330A689A4202D14FF4002209E09C4B11
:102EF00098330A689A4202D14FF4002201E04FF061
:102F000000721043974A583A9060954A50320868C8
:102F1000904261D99248001D0068924B483B0A6874
:102F20009A4201D1904A52E08D4B08330A689A4286
:102F300001D18D4A4BE08B4B18330A689A4201D17C
:102F4000894A44E0864B68330A689A4201D1864A2E
:102F50003DE0844B303B0A689A4201D1402236E082
:102F60007F4B20330A689A4201D140222FE07D4BEB
:102F700030330A689A4201D1402228E0784B8033EE
:102F80000A689A4201D1402221E0764B183B0A6838
:102F90009A4202D14FF4803219E0714B38330A68FB
:102FA0009A4202D14FF4803211E06E4B48330A68E6
:102FB0009A4202D14FF4803209E0694B98330A6893
:102FC0009A4202D14FF4803201E04FF48002104364
:102FD000634A121D10602DE1624A60320868904217
:102FE0005FD95F4800685F4B483B0A689A4201D14D
:102FF0005D4A52E05A4B08330A689A4201D15A4A54
:103000004BE0584B18330A689A4201D1564A44E0C3
:10301000534B68330A689A4201D1534A3DE0514B01
:10302000303B0A689A4201D1402236E04C4B2033B3
:103030000A689A4201D140222FE04A4B30330A6895
:103040009A4201D1402228E0454B80330A689A42D7
:1030500001D1402221E0434B183B0A689A4202D139
:103060004FF4803219E03E4B38330A689A4202D15D
:103070004FF4803211E03B4B48330A689A4202D148
:103080004FF4803209E0364B98330A689A4202D1F5
:103090004FF4803201E04FF480021043304A106058
:1030A000C8E0304A0868904266D92E485838C0684F
:1030B0002C4B483B0A689A4201D12B4A58E0284BD6
:1030C00008330A689A4201D1274A51E0254B183348
:1030D0000A689A4201D1244A4AE0214B68330A68BF
:1030E0009A4201D1204A43E01E4B303B0A689A4283
:1030F00001D140223CE01A4B20330A689A4201D1A8
:10310000402235E0174B30330A689A4201D1402201
:103110002EE0134B80330A689A4201D1402227E007
:10312000104B183B0A689A4202D14FF480321FE0DC
:103130000B4B38330A689A4202D14FF4803217E0C1
:10314000084B48330A689A4202D14FF480320FE0AC
:10315000034B98330A689A4208D14FF4803207E053
:103160000864024058600240010080004FF4800271
:103170001043FD4AD0605DE0FB488068FA4B103395
:103180000A689A4201D1F94A51E0F94B0A689A4219
:1031900001D1F64A4BE0F44B70330A689A4201D1F0
:1031A000F24A44E0F24B60330A689A4201D1EF4A96
:1031B0003DE0ED4B28330A689A4201D1402236E0C7
:1031C000EB4B18330A689A4201D140222FE0E64BBC
:1031D00088330A689A4201D1402228E0E44B7833D0
:1031E0000A689A4201D1402221E0DF4B40330A684D
:1031F0009A4202D14FF4803219E0DD4B30330A6835
:103200009A4202D14FF4803211E0D74BA0330A68C2
:103210009A4202D14FF4803209E0D54B90330A68CC
:103220009A4202D14FF4803201E04FF48002104301
:10323000CD4A9060CE4A48320868904260D9CC4866
:10324000001F0068C84B10330A689A4201D110224F
:1032500051E0C74B0A689A4201D110224BE0C24BA1
:1032600070330A689A4201D1102244E0C04B6033A7
:103270000A689A4201D110223DE0BB4B28330A680C
:103280009A4201D1121536E0B94B18330A689A42B6
:1032900001D112152FE0B44B88330A689A4201D14C
:1032A000121528E0B24B78330A689A4201D1121500
:1032B00021E0AD4B40330A689A4202D14FF48012AC
:1032C00019E0AB4B30330A689A4202D14FF48012B6
:1032D00011E0A54BA0330A689A4202D14FF4801244
:1032E00009E0A34B90330A689A4202D14FF480124E
:1032F00001E04FF0806210439D4A121F106027E1E9
:10330000994AB8320868904260D9994808380068EC
:10331000954B10330A689A4201D1102251E0944B28
:103320000A689A4201D110224BE08F4B70330A6831
:103330009A4201D1102244E08D4B60330A689A42D0
:1033400001D110223DE0884B28330A689A4201D10E
:10335000121536E0864B18330A689A4201D11215CD
:103360002FE0814B88330A689A4201D1121528E078
:103370007F4B78330A689A4201D1121521E07A4BCB
:1033800040330A689A4202D14FF4801219E0784B18
:1033900030330A689A4202D14FF4801211E0724B26
:1033A000A0330A689A4202D14FF4801209E0704BB0
:1033B00090330A689A4202D14FF4801201E04FF034
:1033C000806210436A4A083A1060C1E0664A583287
:1033D000086890425ED96448C068634B10330A683D
:1033E0009A4201D1102251E0614B0A689A4201D100
:1033F00010224BE05C4B70330A689A4201D11022D4
:1034000044E05B4B60330A689A4201D110223DE0F0
:10341000554B28330A689A4201D1121536E0544BB5
:1034200018330A689A4201D112152FE04E4B8833A7
:103430000A689A4201D1121528E04D4B78330A6888
:103440009A4201D1121521E0474B40330A689A4253
:1034500002D14FF4801219E0454B30330A689A428A
:1034600002D14FF4801211E03F4BA0330A689A4218
:1034700002D14FF4801209E03D4B90330A689A4222
:1034800002D14FF4801201E04FF080621043364ABF
:10349000D0605DE034488068334B10330A689A424C
:1034A00001D1102251E0324B0A689A4201D1102218
:1034B0004BE02D4B70330A689A4201D1102244E050
:1034C0002B4B60330A689A4201D110223DE0264B13
:1034D00028330A689A4201D1121536E0244B18337A
:1034E0000A689A4201D112152FE01F4B88330A68EF
:1034F0009A4201D1121528E01D4B78330A689A428E
:1035000001D1121521E0184B40330A689A4202D1CA
:103510004FF4801219E0164B30330A689A4202D1F8
:103520004FF4801211E0104BA0330A689A4202D186
:103530004FF4801209E00E4B90330A689A4202D190
:103540004FF4801201E04FF080621043064A906011
:103550000020C86481F8350000BF81F8340000BF46
:1035600000BFFEF7FFBF00000060024001008000C6
:103570001064024010B50446F849206888425DD9BD
:10358000F64854380068F64A2168914201D1082172
:1035900052E0F24A483A2168914201D108214BE0B9
:1035A000EF4A60322168914201D1082144E0EB4AA0
:1035B00018322168914201D108213DE0E84A1832D1
:1035C0002168914201D1491536E0E44A303A216838
:1035D000914201D149152FE0E14A783221689142A8
:1035E00001D1491528E0DD4A30322168914201D1EC
:1035F000491521E0DA4A30322168914202D14FF474
:10360000002119E0D54A183A2168914202D14FF4BD
:10361000002111E0D24A90322168914202D14FF448
:10362000002109E0CD4A48322168914202D14FF48D
:10363000002101E04FF00071084022E1C849A831A3
:10364000206888425DD9C54858380068C44A216856
:10365000914201D1082152E0C04A483A2168914282
:1036600001D108214BE0BE4A60322168914201D16C
:10367000082144E0B94A18322168914201D1082159
:103680003DE0B74A18322168914201D1491536E030
:10369000B24A303A2168914201D149152FE0B04A2F
:1036A00078322168914201D1491528E0AB4A303285
:1036B0002168914201D1491521E0A94A303221689F
:1036C000914202D14FF4002119E0A44A183A21682E
:1036D000914202D14FF4002111E0A14A90322168B9
:1036E000914202D14FF4002109E09C4A48322168FE
:1036F000914202D14FF4002101E04FF000710840E7
:10370000BFE097494831206888425DD99448103815
:103710004068934A2168914201D1082152E08F4AC2
:10372000483A2168914201D108214BE08C4A60322D
:103730002168914201D1082144E0884A1832216869
:10374000914201D108213DE0854A18322168914219
:1037500001D1491536E0814A303A2168914201D1C0
:1037600049152FE07E4A78322168914201D14915EE
:1037700028E07A4A30322168914201D1491521E08E
:10378000774A30322168914202D14FF4002119E08A
:10379000724A183A2168914202D14FF4002111E097
:1037A0006F4A90322168914202D14FF4002109E022
:1037B0006A4A48322168914202D14FF4002101E067
:1037C0004FF0007108405CE0654810380068644ABA
:1037D0002168914201D1082152E0604A483A2168AB
:1037E000914201D108214BE05D4A6032216891424B
:1037F00001D1082144E0594A18322168914201D18F
:1038000008213DE0564A18322168914201D14915FC
:1038100036E0524A303A2168914201D149152FE0F1
:103820004F4A78322168914201D1491528E04B4A2C
:1038300030322168914201D1491521E0484A3032A5
:103840002168914202D14FF4002119E0434A183A0D
:103850002168914202D14FF4002111E0404A903298
:103860002168914202D14FF4002109E03B4A4832DD
:103870002168914202D14FF4002101E04FF0007124
:103880000840002869D02068006800F00400002883
:10389000F8D02068006820F00400216808602F49F3
:1038A0002068884264D92D484C3800682C4A216829
:1038B000914201D1082157E0284A483A21689142B3
:1038C00001D1082150E0264A60322168914201D19D
:1038D000082149E0214A18322168914201D108218A
:1038E00042E01F4A18322168914201D149153BE05C
:1038F0001A4A303A2168914201D1491534E0184AF8
:1039000078322168914201D149152DE0134A3032B5
:103910002168914201D1491526E0114A30322168CF
:10392000914202D14FF400211EE00C4A183A21685E
:10393000914202D14FF4002116E0094A90322168E9
:10394000914202D14FF400210EE0044A483221682E
:10395000914207D14FF4002106E048E1586402404B
:10396000106002404FF000710843FA4908602DE1F1
:10397000F9492068884261D9F648001F0068F64A74
:10398000A83A2168914201D1082152E0F14A121D62
:103990002168914201D108214BE0EF4A483A216861
:1039A000914201D1082144E0EA4A643221689142FF
:1039B00001D108213DE0E84A903A2168914201D1C5
:1039C000491536E0E34A1C322168914201D149157C
:1039D0002FE0E14A303A2168914201D1491528E0AF
:1039E000DC4A7C322168914201D1491521E0DA4A52
:1039F000783A2168914202D14FF4002119E0D54A6A
:103A000034322168914202D14FF4002111E0D24AB0
:103A1000183A2168914202D14FF4002109E0CD4AC1
:103A200094322168914202D14FF4002101E04FF01D
:103A300000710843C749091F0860C7E0C6496039DB
:103A40002068884261D9C448B838C068C24AA83AD8
:103A50002168914201D1082152E0BE4A121D21681D
:103A6000914201D108214BE0BB4A483A216891427A
:103A700001D1082144E0B74A64322168914201D162
:103A800008213DE0B44A903A2168914201D149159C
:103A900036E0B04A1C322168914201D149152FE02D
:103AA000AD4A303A2168914201D1491528E0A94A2E
:103AB0007C322168914201D1491521E0A64A783A29
:103AC0002168914202D14FF4002119E0A14A343219
:103AD0002168914202D14FF4002111E09E4A183A28
:103AE0002168914202D14FF4002109E0994A9432B1
:103AF0002168914202D14FF4002101E04FF00071A2
:103B000008439549B839C86060E09348B838806880
:103B1000914AA83A2168914201D1082152E08D4A88
:103B2000121D2168914201D108214BE08A4A483A8E
:103B30002168914201D1082144E0864A643221681B
:103B4000914201D108213DE0834A903A2168914297
:103B500001D1491536E07F4A1C322168914201D1DA
:103B600049152FE07C4A303A2168914201D149152C
:103B700028E0784A7C322168914201D1491521E040
:103B8000754A783A2168914202D14FF4002119E038
:103B9000704A34322168914202D14FF4002111E081
:103BA0006D4A183A2168914202D14FF4002109E090
:103BB000684A94322168914202D14FF4002101E019
:103BC0004FF0007108436449B8398860E06C40F0F8
:103BD0000100E064042084F8350000BF002084F870
:103BE000340000BFA06C10B12046A16C8847594931
:103BF0004C31206888425ED9564808380068564AD9
:103C0000A83A2168914201D1544952E0514A121D0B
:103C10002168914201D151494BE04F4A483A21680D
:103C2000914201D14D4944E04A4A643221689142AF
:103C300001D14A493DE0484A903A2168914201D178
:103C4000402136E0434A1C322168914201D1402193
:103C50002FE0414A303A2168914201D1402128E0C9
:103C60003C4A7C322168914201D1402121E03A4A0C
:103C7000783A2168914202D14FF4803119E0354AF7
:103C800034322168914202D14FF4803111E0324A3E
:103C9000183A2168914202D14FF4803109E02D4A4F
:103CA00094322168914202D14FF4803101E04FF407
:103CB0008001084024E128492068884262D92548CB
:103CC0000C380068244AA83A2168914201D123495E
:103CD00056E0204A121D2168914201D11F494FE050
:103CE0001D4A483A2168914201D11C4948E0194ACD
:103CF00064322168914201D1184941E0164A903A54
:103D00002168914201D140213AE0124A1C322168D7
:103D1000914201D1402133E00F4A303A216891426B
:103D200001D140212CE00B4A7C322168914201D123
:103D3000402125E0084A783A2168914202D14FF4A7
:103D400080311DE0034A34322168914208D14FF49A
:103D5000803115E00C640240B86002400100800030
:103D6000F84A2168914202D14FF4803108E0F64AC6
:103D70002168914202D14FF4803101E04FF480017B
:103D80000840BDE0EF494839206888425CD9ED48D9
:103D9000A0384068EB4A903A2168914201D1EB4942
:103DA00050E0E94A903A2168914201D1E74949E05F
:103DB000E44A303A2168914201D1E44942E0E24AC2
:103DC000303A2168914201D1E0493BE0DD4A783A3E
:103DD0002168914201D1402134E0DB4A783A2168E0
:103DE000914201D140212DE0D64A183A21689142F2
:103DF00001D1402126E0D44A183A2168914201D1EC
:103E000040211FE0CF4A603A2168914202D14FF42D
:103E1000803117E0CC4A603A2168914202D14FF4D8
:103E200080310FE0C74A2168914202D14FF48031BE
:103E300008E0C54A2168914202D14FF4803101E087
:103E40004FF4800108405BE0BE48A0380068BD4ADE
:103E5000903A2168914201D1BC4950E0BA4A903A67
:103E60002168914201D1B94949E0B64A303A216806
:103E7000914201D1B54942E0B34A303A21689142BA
:103E800001D1B2493BE0AF4A783A2168914201D171
:103E9000402134E0AC4A783A2168914201D1402176
:103EA0002DE0A84A183A2168914201D1402126E02C
:103EB000A54A183A2168914201D140211FE0A14A48
:103EC000603A2168914202D14FF4803117E09E4A56
:103ED000603A2168914202D14FF480310FE0994A53
:103EE0002168914202D14FF4803108E0964A21685E
:103EF000914202D14FF4803101E04FF4800108403B
:103F0000002870D02068406900F0800000286AD046
:103F10002068406920F08000216848618A4948395A
:103F20002068884260D9884894380068854A903A69
:103F30002168914201D1854950E0834A903A216835
:103F4000914201D1814949E07E4A303A216891424B
:103F500001D17E4942E07C4A303A2168914201D148
:103F60007A493BE0774A783A2168914201D1402171
:103F700034E0754A783A2168914201D140212DE020
:103F8000704A183A2168914201D1402126E06E4AD8
:103F9000183A2168914201D140211FE0694A603AF4
:103FA0002168914202D14FF4803117E0664A603AAD
:103FB0002168914202D14FF480310FE0614A2168BB
:103FC000914202D14FF4803108E05F4A216891426A
:103FD00002D14FF4803101E04FF4800108435A4987
:103FE0009439086030E140E1564918312068884230
:103FF0005FD9554898380068524A903A21689142F2
:1040000001D1524950E0504A903A2168914201D181
:104010004E4949E04B4A303A2168914201D14B491F
:1040200042E0494A303A2168914201D147493BE098
:10403000444A783A2168914201D1402134E0424A11
:10404000783A2168914201D140212DE03D4A183A49
:104050002168914201D1402126E03B4A183A21686B
:10406000914201D140211FE0364A603A21689142D5
:1040700002D14FF4803117E0334A603A216891420F
:1040800002D14FF480310FE02E4A2168914202D1D3
:104090004FF4803108E02C4A2168914202D14FF45C
:1040A000803101E04FF480010843274998390860C6
:1040B000CAE0244948392068884266D92148A03896
:1040C000C068204A903A2168914201D11F4957E0C7
:1040D0001D4A903A2168914201D11C4950E0194A89
:1040E000303A2168914201D1184949E0164A303AE4
:1040F0002168914201D1154942E0124A783A21687B
:10410000914201D140213BE00F4A783A2168914227
:1041100001D1402134E00B4A183A2168914201D183
:1041200040212DE0084A183A2168914201D14021EE
:1041300026E0044A603A2168914209D14FF4803167
:104140001EE00000A0600240A06402400100800068
:10415000F74A2168914202D14FF4803110E0F54ACC
:104160002168914202D14FF4803109E0F04A603277
:104170002168914202D14FF4803101E04FF4800177
:104180000843EC49A039C8605EE0EA48A03880687E
:10419000E84A903A2168914201D1E74950E0E44A67
:1041A000303A2168914201D1E34949E0E14A303A8D
:1041B0002168914201D1E04942E0DD4A3032216874
:1041C000914201D1DC493BE0DA4A783A21689142D8
:1041D00001D1402134E0D64A183A2168914201D1F8
:1041E00040212DE0D34A183A2168914201D1402163
:1041F00026E0CF4A48322168914201D140211FE098
:10420000CC4A603A2168914202D14FF4803117E0E4
:10421000C74A2168914202D14FF4803110E0C54A6B
:104220002168914202D14FF4803109E0C04A6032E6
:104230002168914202D14FF4803101E04FF48001B6
:104240000843BC49A0398860E06C40F00200E0649B
:10425000042084F8350000BF002084F8340000BF3B
:10426000A06C10B12046A16C8847B1491831206874
:10427000884260D9AE483C380068AE4A903A21681E
:10428000914202D1AC49C91C53E0A94A303A216895
:10429000914202D1A849C91C4BE0A64A303A216894
:1042A000914202D1A449C91C43E0A14A303221689D
:1042B000914202D1A049C91C3BE09E4A783A21684C
:1042C000914201D1891534E0994A183A2168914206
:1042D00001D189152DE0974A183A2168914201D100
:1042E000891526E0924A48322168914201D1891508
:1042F0001FE0904A603A2168914202D14FF4802138
:1043000017E08B4A2168914202D14FF4802110E0DE
:10431000884A2168914202D14FF4802109E0844A01
:1043200060322168914202D14FF4802101E04FF0C8
:104330008071084031E17F4918312068884260D996
:104340007B48403800687B4A903A2168914202D10C
:104350007949C91C53E0764A303A2168914202D12A
:104360007549C91C4BE0734A303A2168914202D129
:104370007149C91C43E06E4A30322168914202D132
:104380006D49C91C3BE06B4A783A2168914201D1E2
:10439000891534E0664A183A2168914201D189159D
:1043A0002DE0644A183A2168914201D1891526E02E
:1043B0005F4A48322168914201D189151FE05D4A68
:1043C000603A2168914202D14FF4802117E0584AA7
:1043D0002168914202D14FF4802110E0554A2168B2
:1043E000914202D14FF4802109E0514A60322168A4
:1043F000914202D14FF4802101E04FF080710840DA
:10440000CBE04C4948392068884260D94948A038F7
:104410004068484A903A2168914202D14649C91CF5
:1044200053E0434A303A2168914202D14249C91CC3
:104430004BE0404A303A2168914202D13E49C91CC2
:1044400043E03B4A30322168914202D13A49C91CCB
:104450003BE0384A783A2168914201D1891534E02D
:10446000334A183A2168914201D189152DE0314A29
:10447000183A2168914201D1891526E02C4A483228
:104480002168914201D189151FE02A4A603A2168CA
:10449000914202D14FF4802117E0254A21689142D0
:1044A00002D14FF4802110E0224A2168914202D1CA
:1044B0004FF4802109E01E4A60322168914202D106
:1044C0004FF4802101E04FF08071084065E0194809
:1044D000A0380068174A903A2168914202D11649E3
:1044E000C91C59E0124A303A2168914202D112495E
:1044F000C91C51E00F4A303A2168914202D10E495D
:10450000C91C49E00A4A30322168914202D10A4965
:10451000C91C41E0074A783A2168914201D18915C6
:104520003AE0034A183A2168914207D1891533E0ED
:1045300040640240A060024001008000F84A216807
:10454000914201D1891527E0F64A2168914201D1B3
:10455000891521E0F24A483A2168914202D14FF48C
:10456000802119E0EF4A483A2168914202D14FF484
:10457000802111E0EA4A18322168914202D14FF4B9
:10458000802109E0E74A18322168914202D14FF4B4
:10459000802101E04FF08071084070B3206800680E
:1045A00000F0020048B32068006820F00200216893
:1045B0000860DC4930392068884260D9D9487C38A5
:1045C0000068D74A783A2168914201D1D64951E032
:1045D000D44A783A2168914201D1D3494AE0D04A7D
:1045E000183A2168914201D1CF4943E0CD4A183AA7
:1045F0002168914202D1CC493CE07AE1C84A603A54
:104600002168914201D1891534E0C64A603A216897
:10461000914201D189152DE0C14A2168914201D111
:10462000891527E0BF4A2168914201D1891521E00F
:10463000BB4A483A2168914202D14FF4802119E0E7
:10464000B84A483A2168914202D14FF4802111E0E2
:10465000B34A18322168914202D14FF4802109E017
:10466000B04A18322168914202D14FF4802101E012
:104670004FF080710843AB497C39086028E1A849B4
:104680003031206888425FD9A64880380068A44A43
:10469000783A2168914201D1A34950E0A14A783A81
:1046A0002168914201D1A04949E09D4A183A216808
:1046B000914201D19C4942E09A4A183A21689142BC
:1046C00001D199493BE0964A603A2168914201D173
:1046D000891534E0934A603A2168914201D18915E5
:1046E0002DE08F4A2168914201D1891527E08D4A3A
:1046F0002168914201D1891521E0894A483A21680F
:10470000914202D14FF4802119E0864A483A21684B
:10471000914202D14FF4802111E0814A1832216880
:10472000914202D14FF4802109E07E4A183221687B
:10473000914202D14FF4802101E04FF08071084393
:10474000784980390860C3E075493039206888426B
:104750005FD973488838C068714A783A21689142B5
:1047600001D1714950E06F4A783A2168914201D1F4
:104770006D4949E06A4A183A2168914201D16A4973
:1047800042E0684A183A2168914201D166493BE00B
:10479000634A603A2168914201D1891534E0614A47
:1047A000603A2168914201D189152DE05C4A216867
:1047B000914201D1891527E05A4A2168914201D1DD
:1047C000891521E0564A483A2168914202D14FF4B6
:1047D000802119E0534A483A2168914202D14FF4AE
:1047E000802111E04E4A18322168914202D14FF4E3
:1047F000802109E04B4A18322168914202D14FF4DE
:10480000802101E04FF08071084345498839C86034
:104810005EE0434888388068414A783A216891428E
:1048200001D1414950E03F4A783A2168914201D193
:104830003D4949E03A4A183A2168914201D13A4942
:1048400042E0384A183A2168914201D136493BE0AA
:10485000334A603A2168914201D1891534E0314AE6
:10486000603A2168914201D189152DE02C4A2168D6
:10487000914201D1891527E02A4A2168914201D14C
:10488000891521E0264A483A2168914202D14FF425
:10489000802119E0234A483A2168914202D14FF41D
:1048A000802111E01E4A18322168914202D14FF452
:1048B000802109E01B4A18322168914202D14FF44D
:1048C000802101E04FF080710843154988398860E4
:1048D000E06C40F00400E064042084F8350000BF80
:1048E000002084F8340000BFA06C10B12046A16CF9
:1048F00088470C4930392068884263D90948843890
:104900000068074A783A2168914201D1102157E0A6
:10491000044A783A2168914208D1102150E0000001
:10492000886002408864024004008000F74A2168E1
:10493000914201D1102143E0F54A2168914201D111
:1049400010213DE0F14A483A2168914201D1091510
:1049500036E0EF4A483A2168914201D109152FE02B
:10496000EA4A18322168914201D1091528E0E84A43
:1049700018322168914201D1091521E0E34A303A09
:104980002168914202D14FF4801119E0E04A303A97
:104990002168914202D14FF4801111E0DB4A30329C
:1049A0002168914202D14FF4801109E0D84A303297
:1049B0002168914202D14FF4801101E04FF08061F3
:1049C00008401FE1D1494831206888425CD9D0486D
:1049D00070380068CD4A603A2168914201D11021B7
:1049E00050E0CB4A603A2168914201D1102149E060
:1049F000C64A2168914201D1102143E0C44A21688E
:104A0000914201D110213DE0C04A483A21689142CB
:104A100001D1091536E0BE4A483A2168914201D1D8
:104A200009152FE0B94A18322168914201D10915C0
:104A300028E0B74A18322168914201D1091521E0D6
:104A4000B24A303A2168914202D14FF4801119E004
:104A5000AF4A303A2168914202D14FF4801111E0FF
:104A6000AA4A30322168914202D14FF4801109E004
:104A7000A74A30322168914202D14FF4801101E0FF
:104A80004FF080610840BDE0A04918392068884295
:104A90005CD99E48703840689C4A603A21689142CF
:104AA00001D1102150E09A4A603A2168914201D127
:104AB000102149E0954A2168914201D1102143E03B
:104AC000934A2168914201D110213DE08F4A483A32
:104AD0002168914201D1091536E08D4A483A216892
:104AE000914201D109152FE0884A1832216891427C
:104AF00001D1091528E0864A18322168914201D176
:104B0000091521E0814A303A2168914202D14FF4DF
:104B1000801119E07E4A303A2168914202D14FF467
:104B2000801111E0794A30322168914202D14FF46C
:104B3000801109E0764A30322168914202D14FF467
:104B4000801101E04FF0806108405BE06F487038F1
:104B500000686E4A603A2168914201D1102150E00C
:104B60006B4A603A2168914201D1102149E0674ABD
:104B70002168914201D1102143E0654A21689142A8
:104B800001D110213DE0614A483A2168914201D1AA
:104B9000091536E05E4A483A2168914201D109156B
:104BA0002FE05A4A18322168914201D1091528E0B4
:104BB000574A18322168914201D1091521E0534A20
:104BC000303A2168914202D14FF4801119E0504AE5
:104BD000303A2168914202D14FF4801111E04B4AE2
:104BE00030322168914202D14FF4801109E0484AE5
:104BF00030322168914202D14FF4801101E04FF030
:104C000080610840002870D02068006800F008002B
:104C100000286AD02068006800F4802078B33C49FE
:104C200018392068884261D9394864380068374AA1
:104C3000603A2168914201D1102151E0344A603A32
:104C40002168914201D110214AE0304A2168914205
:104C500001D1102144E02E4A2168914201D1102156
:104C60003EE02A4A483A2168914201D1091537E0CD
:104C7000274A483A2168914202D1091530E075E18E
:104C8000224A18322168914201D1091528E0204AB0
:104C900018322168914201D1091521E01B4A303AAE
:104CA0002168914202D14FF4801119E0184A303A3C
:104CB0002168914202D14FF4801111E0134A303241
:104CC0002168914202D14FF4801109E0104A30323C
:104CD0002168914202D14FF4801101E04FF08061D0
:104CE00008430B49643908602EE1E6E20749483180
:104CF0002068884264D9064868380068034A603AE8
:104D00002168914206D1102155E0000070600240F8
:104D100070640240F94A2168914201D110214AE0B1
:104D2000F74A2168914201D1102144E0F34A6032F0
:104D30002168914201D110213DE0F14A483A2168B1
:104D4000914201D1091536E0EC4A183221689142AE
:104D500001D109152FE0EA4A18322168914201D1A8
:104D6000091528E0E54A78322168914201D10915F8
:104D700021E0E34A303A2168914202D14FF4801198
:104D800019E0DE4A30322168914202D14FF480119D
:104D900011E0DB4A30322168914202D14FF4801198
:104DA00009E0D64A90322168914202D14FF4801135
:104DB00001E04FF080610843D04908390860C3E042
:104DC000CF491839206888425FD9CD487038C0680B
:104DD000CB4A603A2168914201D1102150E0C74A84
:104DE0002168914201D110214AE0C54A21689142CF
:104DF00001D1102144E0C14A60322168914201D1C1
:104E000010213DE0BE4A483A2168914201D109157E
:104E100036E0BA4A18322168914201D109152FE0D3
:104E2000B74A18322168914201D1091528E0B34AE6
:104E300078322168914201D1091521E0B04A303A17
:104E40002168914202D14FF4801119E0AB4A30320F
:104E50002168914202D14FF4801111E0A84A30320A
:104E60002168914202D14FF4801109E0A34A9032A7
:104E70002168914202D14FF4801101E04FF080612E
:104E800008439F497039C8605EE09D48703880686B
:104E90009B4A603A2168914201D1102150E0974A23
:104EA0002168914201D110214AE0954A216891423E
:104EB00001D1102144E0914A60322168914201D130
:104EC00010213DE08E4A483A2168914201D10915EE
:104ED00036E08A4A18322168914201D109152FE043
:104EE000874A18322168914201D1091528E0834A86
:104EF00078322168914201D1091521E0804A303A87
:104F00002168914202D14FF4801119E07B4A30327E
:104F10002168914202D14FF4801111E0784A303279
:104F20002168914202D14FF4801109E0734A903216
:104F30002168914202D14FF4801101E04FF080616D
:104F400008436F49703988602068006800F40020C9
:104F500018B9312084F83500AAE12068006800F40F
:104F6000002080B3412084F83500A1E1206800686A
:104F700000F4807028B92068006820F008002168DB
:104F800008605E4948312068884260D95B48001F4C
:104F900000685B4A603A2168914201D1102151E0DA
:104FA000564A2168914201D110214BE0544A2168B0
:104FB000914201D1102145E0504A6032216891426E
:104FC00002D110213EE073E14D4A483A21689142F6
:104FD00001D1091536E0494A18322168914201D1C0
:104FE00009152FE0464A18322168914201D109156E
:104FF00028E0424A78322168914201D1091521E026
:105000003F4A303A2168914202D14FF4801119E0B1
:105010003A4A30322168914202D14FF4801111E0B6
:10502000374A30322168914202D14FF4801109E0B1
:10503000324A90322168914202D14FF4801101E04E
:105040004FF0806108432D49091F08602DE12C496C
:1050500048312068884263D9284808380068284ABF
:10506000603A2168914201D1102154E0234A21681D
:10507000914201D110214EE0214A2168914201D193
:10508000102148E01D4A60322168914201D110216F
:1050900041E01B4A483A2168914201D109153AE0A2
:1050A000164A18322168914201D1091533E0144A99
:1050B00018322168914201D109152CE00F4A78324B
:1050C0002168914201D1091525E00D4A303A216845
:1050D000914202D14FF480111DE0084A303221681C
:1050E000914202D14FF4801115E0054A3032216817
:1050F000914207D14FF480110DE00000106402408E
:1051000070600240F74A2168914202D14FF4801149
:1051100001E04FF080610843F24998390860C4E02B
:10512000F1492068884260D9EF485838C068EE4A93
:10513000483A2168914201D1102151E0E94A903A60
:105140002168914201D110214AE0E74A18322168D2
:10515000914201D1102143E0E24A303A2168914264
:1051600001D110213CE0E04A303A2168914201D15E
:10517000091535E0DB4A783A2168914201D10915D9
:105180002EE0D94A30322168914201D1091527E039
:10519000D44A183A2168914201D1091520E0D24A37
:1051A000183A2168914202D14FF4801118E0CD4A9B
:1051B000603A2168914202D14FF4801110E0CA4A4E
:1051C00048322168914202D14FF4801108E0C54A6B
:1051D0002168914202D14FF4801101E04FF08061CB
:1051E0000843C1495839C8605FE0BF4858388068F3
:1051F000BD4A483A2168914201D1102151E0B94A93
:10520000903A2168914201D110214AE0B64A183201
:105210002168914201D1102143E0B24A303A21681D
:10522000914201D110213CE0AF4A303A21689142CD
:1052300001D1091535E0AB4A783A2168914201D194
:1052400009152EE0A84A30322168914201D1091592
:1052500027E0A44A183A2168914201D1091520E0BB
:10526000A14A183A2168914202D14FF4801118E006
:105270009C4A603A2168914202D14FF4801110E0BB
:10528000994A48322168914202D14FF4801108E0D6
:10529000944A2168914202D14FF4801101E04FF00D
:1052A00080610843904958398860312084F835007E
:1052B000206C10B12046216C88478A494839206803
:1052C00088425DD987489C380068874A483A2168F7
:1052D000914201D1202151E0824A903A21689142C5
:1052E00001D120214AE0804A18322168914201D13F
:1052F000202143E07B4A303A2168914201D12021AC
:105300003CE0794A303A2168914201D1C91435E034
:10531000744A783A2168914201D1C9142EE0724A48
:1053200030322168914201D1C91427E06D4A183A00
:105330002168914201D1C91420E06B4A183A2168D2
:10534000914202D14FF4001118E0664A603A216898
:10535000914202D14FF4001110E0634A48322168B3
:10536000914202D14FF4001108E05E4A2168914257
:1053700002D14FF4001101E04FF00061084023E139
:1053800059496031206888425DD95648A038006884
:10539000554A483A2168914201D1202151E0514AB1
:1053A000903A2168914201D120214AE04E4A1832B8
:1053B0002168914201D1202143E04A4A303A2168D4
:1053C000914201D120213CE0474A303A2168914284
:1053D00001D1C91435E0434A783A2168914201D19C
:1053E000C9142EE0404A30322168914201D1C914DB
:1053F00027E03C4A183A2168914201D1C91420E0C3
:10540000394A183A2168914202D14FF4001118E04C
:10541000344A603A2168914202D14FF4001110E001
:10542000314A48322168914202D14FF4001108E01C
:105430002C4A2168914202D14FF4001101E04FF053
:1054400000610840C0E028492068884260D92648A9
:1054500058384068244A483A2168914201D12021B5
:1054600054E0204A903A2168914201D120214DE038
:105470001D4A18322168914201D1202146E0194A83
:10548000303A2168914201D120213FE0164A303A5A
:105490002168914201D1C91438E0124A783A216852
:1054A000914201D1C91431E00F4A30322168914252
:1054B00001D1C9142AE00B4A183A2168914201D15E
:1054C000C91423E0084A183A2168914202D14FF4E6
:1054D00000111BE0034A603A2168914206D14FF463
:1054E000001113E0A064024058600240FA4A2168AB
:1054F000914202D14FF4001108E0F84A216891422C
:1055000002D14FF4001101E04FF0006108405BE070
:10551000F148A0380068F04A903A2168914201D1E0
:10552000202150E0ED4A903A2168914201D120219A
:1055300049E0E94A303A2168914201D1202142E014
:10554000E64A303A2168914201D120213BE0E24A0B
:10555000783A2168914201D1C91434E0DF4A783A9F
:105560002168914201D1C9142DE0DB4A183A216823
:10557000914201D1C91426E0D84A183A21689142D3
:1055800001D1C9141FE0D44A603A2168914202D186
:105590004FF4001117E0D14A603A2168914202D1DC
:1055A0004FF400110FE0CC4A2168914202D14FF430
:1055B000001108E0C94A2168914202D14FF400115C
:1055C00001E04FF000610840A0B32068006800F0DF
:1055D000100078B32068006800F4802058B3BF49F9
:1055E00048392068884261D9BC4894380068BA4A72
:1055F000903A2168914201D1202152E0B74A903A75
:105600002168914201D120214BE0B34A303A216810
:10561000914201D1202144E0B04A303A21689142C0
:1056200001D120213DE0AC4A783A2168914203D172
:10563000C91436E09FE17DE1A84A783A2168914299
:1056400001D1C9142DE0A44A183A2168914201D130
:10565000C91426E0A14A183A2168914201D1C9141F
:105660001FE09D4A603A2168914202D14FF4001137
:1056700017E09A4A603A2168914202D14FF4001132
:105680000FE0954A2168914202D14FF4001108E0E1
:10569000924A2168914202D14FF4001101E04FF08B
:1056A000006108438D49943908602DE18A49183119
:1056B000206888425FD9894898380068864A903ABD
:1056C0002168914201D1202150E0844A903A21681A
:1056D000914201D1202149E07F4A303A216891422C
:1056E00001D1202142E07D4A303A2168914201D126
:1056F00020213BE0784A783A2168914201D1C914CF
:1057000034E0764A783A2168914201D1C9142DE0FB
:10571000714A183A2168914201D1C91426E06F4AB2
:10572000183A2168914201D1C9141FE06A4A603ACF
:105730002168914202D14FF4001117E0674A603AA4
:105740002168914202D14FF400110FE0624A2168B2
:10575000914202D14FF4001108E0604A2168914261
:1057600002D14FF4001101E04FF0006108435B49A2
:1057700098390860C8E058494839206888425FD99C
:105780005548A038C068544A903A2168914201D1E6
:10579000202150E0514A903A2168914201D12021C4
:1057A00049E04D4A303A2168914201D1202142E03E
:1057B0004A4A303A2168914201D120213BE0464AD1
:1057C000783A2168914201D1C91434E0434A783AC9
:1057D0002168914201D1C9142DE03F4A183A21684D
:1057E000914201D1C91426E03C4A183A21689142FD
:1057F00001D1C9141FE0384A603A2168914202D1B0
:105800004FF4001117E0354A603A2168914202D105
:105810004FF400110FE0304A2168914202D14FF459
:10582000001108E02D4A2168914202D14FF4001185
:1058300001E04FF0006108432749A039C86063E0E8
:105840002548A0388068244A903A2168914201D1C5
:10585000202155E0214A903A2168914201D120212E
:105860004EE01D4A303A2168914201D1202147E0A3
:105870001A4A303A2168914201D1202140E0164A6B
:10588000783A2168914201D1C91439E0134A783A33
:105890002168914201D1C91432E00F4A183A2168B7
:1058A000914201D1C9142BE00C4A183A2168914267
:1058B00001D1C91424E0084A603A2168914202D11A
:1058C0004FF400111CE0054A603A2168914207D16B
:1058D0004FF4001114E00000A0600240A0640240F8
:1058E000E94A2168914202D14FF4001108E0E74AE9
:1058F0002168914202D14FF4001101E04FF00061A4
:105900000843E149A03988602068006800F400205D
:1059100028B9606C78B32046616C8847B3E1206891
:10592000006800F4002030B3E06B20B32046E16B48
:105930008847A8E12068006800F4807028B92068D2
:10594000006820F0100021680860D04948392068BC
:10595000884260D9CD4894380068CB4A903A216893
:10596000914201D1202151E0C84A903A21689142E8
:1059700002D120214AE086E1C34A303A21689142AF
:1059800001D1202142E0C14A303A2168914201D13F
:1059900020213BE0BC4A783A2168914201D1C914E8
:1059A00034E0BA4A783A2168914201D1C9142DE015
:1059B000B54A183A2168914201D1C91426E0B34A88
:1059C000183A2168914201D1C9141FE0AE4A603AE9
:1059D0002168914202D14FF4001117E0AB4A603ABE
:1059E0002168914202D14FF400110FE0A64A2168CC
:1059F000914202D14FF4001108E0A44A216891427B
:105A000002D14FF4001101E04FF0006108439F49BB
:105A10009439086028E19C491831206888425FD990
:105A20009A4898380068984A903A2168914201D182
:105A3000202150E0954A903A2168914201D12021DD
:105A400049E0914A303A2168914201D1202142E057
:105A50008E4A303A2168914201D120213BE08A4AA6
:105A6000783A2168914201D1C91434E0874A783AE2
:105A70002168914201D1C9142DE0834A183A216866
:105A8000914201D1C91426E0804A183A2168914216
:105A900001D1C9141FE07C4A603A2168914202D1C9
:105AA0004FF4001117E0794A603A2168914202D11F
:105AB0004FF400110FE0744A2168914202D14FF473
:105AC000001108E0714A2168914202D14FF400119F
:105AD00001E04FF0006108436C4998390860C3E069
:105AE00069494839206888425FD96748A038C0684A
:105AF000654A903A2168914201D1202150E0634AE1
:105B0000903A2168914201D1202149E05E4A303A21
:105B10002168914201D1202142E05C4A303A21685B
:105B2000914201D120213BE0574A783A21689142C5
:105B300001D1C91434E0554A783A2168914201D123
:105B4000C9142DE0504A183A2168914201D1C91474
:105B500026E04E4A183A2168914201D1C9141FE04B
:105B6000494A603A2168914202D14FF4001117E08E
:105B7000464A603A2168914202D14FF400110FE089
:105B8000414A2168914202D14FF4001108E03F4A96
:105B90002168914202D14FF4001101E04FF0006101
:105BA00008433949A039C8605EE03748A0388068AA
:105BB000354A903A2168914201D1202150E0334A80
:105BC000903A2168914201D1202149E02E4A303A91
:105BD0002168914201D1202142E02C4A303A2168CB
:105BE000914201D120213BE0274A783A2168914235
:105BF00001D1C91434E0254A783A2168914201D193
:105C0000C9142DE0204A183A2168914201D1C914E3
:105C100026E01E4A183A2168914201D1C9141FE0BA
:105C2000194A603A2168914202D14FF4001117E0FD
:105C3000164A603A2168914202D14FF400110FE0F8
:105C4000114A2168914202D14FF4001108E00F4A35
:105C50002168914202D14FF4001101E04FF0006140
:105C600008430949A0398860E06CE064112084F899
:105C7000350000BF002084F8340000BFE06B10B195
:105C80002046E16B884710BDA0600240A06402403E
:105C900070B5044600250CB9012070BDA6492068E6
:105CA000884249D0A44918312068884244D0A2498A
:105CB0003031206888423FD09F494831206888426F
:105CC0003AD09D4960312068884235D09A49783170
:105CD0002068884230D098499031206888422BD083
:105CE0009549A8312068884226D094492068884286
:105CF00022D092491831206888421DD08F49303116
:105D00002068884218D08D4948312068884213D0D5
:105D10008A496031206888420ED0884978312068ED
:105D2000884209D0854990312068884204D083494F
:105D3000A8312068884200D103E0B52180480BF0EB
:105D4000E8F96068D8B16068B0F1007F17D060688A
:105D5000B0F1806F13D06068B0F1C06F0FD0606891
:105D6000B0F1006F0BD06068B0F1206F07D06068B1
:105D7000B0F1406F03D06068B0F1606F00D103E014
:105D8000B6216F480BF0C5F9A06828B1A06840287B
:105D900002D0A068802800D103E0B72168480BF04A
:105DA000B8F9E068B0F5007F01D0E06800B903E021
:105DB000B82163480BF0ADF92069B0F5806F01D0D0
:105DC000206900B903E0B9215D480BF0A2F96069D0
:105DD00038B16069B0F5006F03D06069B0F5805FDD
:105DE00000D103E0BA2156480BF093F9A06938B10D
:105DF000A069B0F5005F03D0A069B0F5804F00D175
:105E000003E0BB214E480BF084F9E06930B1E06952
:105E1000B0F5807F02D0E069202800D103E0BC21EA
:105E200047480BF076F9206A58B1206AB0F5803FF8
:105E300007D0206AB0F5003F03D0206AB0F5403F9C
:105E400000D103E0BD213E480BF063F9606A10B158
:105E5000606A042800D103E0BE2139480BF059F9EB
:105E6000606A80B3A06A40B1A06A012805D0A06A28
:105E7000022802D0A06A032800D103E0C3213048E1
:105E80000BF047F9E06A58B1E06AB0F5000F07D0AF
:105E9000E06AB0F1807F03D0E06AB0F1C07F00D14A
:105EA00003E0C42126480BF034F9206B58B1206B75
:105EB000B0F5001F07D0206BB0F5800F03D0206B2A
:105EC000B0F5C00F00D103E0C5211D480BF021F94A
:105ED000022084F83500206805681A480540D4E996
:105EE00001010843E16808432169084361690843E7
:105EF000A1690843E1690843216A08430543606AD0
:105F0000042803D1D4E90B01084305432068056048
:105F10002068456925F00705606A0543606A042822
:105F200001D1A06A0543206845610020E06401209A
:105F300084F835000020B0E6106002401064024092
:105F4000008301083F8014F02DE9F04104460E461D
:105F500017461D4600BF94F83400012802D10220E4
:105F6000BDE8F081012084F8340000BF022084F8ED
:105F700035001DB1B5F5803F00D204E040F27F113D
:105F80001A480BF0C6F82068006820F0010021686C
:105F900008602B463A4631462046FCF7BFF8206899
:105FA000006840F01000216808602068006840F038
:105FB0000800216808602068006840F0040021683B
:105FC00008602068406940F08000216848612068CE
:105FD000006840F00200216808602068006840F016
:105FE0000100216808600020BAE700000083010872
:105FF00001B500F005FB009A811800BF00F000FB1E
:106000008842FBD308BD000010B50446042C03D120
:106010000121054806F0B6F8082C03D100210348F9
:1060200006F0B0F810BD0000B0020020B40200205D
:1060300010B5044604480068204020B102480460BE
:106040002046FFF7E1FF10BD143C01402DE9F04769
:1060500005460C464FF000080027B946002010B94D
:10606000206800B103E0C321F6480BF052F86068E5
:1060700030B36068012823D06068112820D06068A0
:1060800002281DD0606812281AD0EF496068884243
:1060900016D0EE496068884212D0ED4960688842A7
:1060A0000ED0EC49606888420AD0EB4960688842AB
:1060B00006D0EA496068884202D06068032800D1AF
:1060C00003E0C421DF480BF024F8A06828B1A068E1
:1060D000012802D0A068022800D103E0C521D948D8
:1060E0000BF017F80026A8E1012000FA06F8206856
:1060F00000EA080747457DD16068022802D0606841
:10610000122878D12069002876D0206909287ED00D
:10611000206900287BD02069002878D020690028D9
:1061200075D02069002872D0206901286FD02069BD
:1061300001286CD02069022869D02069022866D025
:106140002069022863D02069032860D020690428D0
:106150005DD0206904285AD02069042857D02069CE
:10616000052854D02069052851D0206909284ED02F
:10617000206906284BD02069092848D020690728C3
:1061800045D02069072842D0206907283FD02069E0
:1061900008283CD02069082839D02069082836D042
:1061A0002069092833D02069092830D020690A28BD
:1061B0002DD020690A282AD020690B2827D02069F1
:1061C0000C2824D020690C2821D020690D281ED04D
:1061D00020690F281BD02069052818D020690528C0
:1061E00015D02069052812D0206908280FD0206911
:1061F000082802E002E12FE009E008D020690C281D
:1062000005D02069062802D020690E2800D103E0BD
:10621000D6218C480AF07DFF7107C90E206900FA6B
:1062200001F9F10805F1200050F821007107CA0EAC
:106230000F2191408843F20805F1200141F8220026
:10624000F10805F1200050F8210040EA0900F208A9
:1062500005F1200141F822002868720003219140D5
:1062600088432860207900F0030071008840296885
:10627000084328606068012808D06068022805D0BB
:106280006068112802D06068122827D1E06840B108
:10629000E068012805D0E068022802D0E068032801
:1062A00000D103E0E62167480AF033FFA8687200D6
:1062B000032191408843A8607100E0688840A96884
:1062C0000843A86069680120B0408143696069683B
:1062D0002079C0F30010B04001436960E8687200A3
:1062E000032191408843E8607100A0688840E96814
:1062F0000843E860606800F08050B0F1805F7DD1B5
:106300005748006840F4804055490860B007010FC5
:106310000F2000FA01F95348B10850F8210020EA93
:1063200009005049B20841F822000846B10850F867
:1063300021104D48854201D100202DE04B48854277
:1063400001D1012028E04A48854201D1022023E002
:106350004848854201D103201EE04748854201D1CB
:10636000042019E04548854201D1052014E0444845
:10637000854201D106200FE04248854201D1072025
:106380000AE04148854201D1082005E03F488542A6
:1063900001D1092000E00A20B207120F904001430A
:1063A0003048B20840F8221039480068B8433849EC
:1063B0000860081D0068B843091D0860606800F4A3
:1063C0008030B0F5803F04D1081F00683843091FB2
:1063D0000860606800F40030B0F5003F06D12C483A
:1063E000001D006838432A49091D08602848083004
:1063F0000068B84326490831086000E01CE0081D29
:106400000068B843091D0860606800F48010B0F5AA
:10641000801F04D1081F00683843091F08606068A6
:1064200000F40010B0F5001F06D119480C300068C8
:10643000384317490C310860761C102EFFF454AE17
:10644000BDE8F0874883010800001110000021100A
:106450000000311000001210000022100000321065
:106460004438024008380140000002400004024065
:1064700000080240000C02400010024000140240DC
:1064800000180240001C024000200240002402408C
:10649000003C014070B506460C46012C25D0022C6C
:1064A00023D0042C21D0082C1FD0102C1DD0202C40
:1064B0001BD0402C19D0802C17D0B4F5807F14D07D
:1064C000B4F5007F11D0B4F5806F0ED0B4F5006F35
:1064D0000BD0B4F5805F08D0B4F5005F05D0B4F5FB
:1064E000804F02D0B4F5004F00D104E040F27511A6
:1064F00005480AF00EFE3069204008B1012500E091
:106500000025284670BD00004883010870B5054687
:106510000C46012C25D0022C23D0042C21D0082C91
:106520001FD0102C1DD0202C1BD0402C19D0802C1B
:1065300017D0B4F5807F14D0B4F5007F11D0B4F536
:10654000806F0ED0B4F5006F0BD0B4F5805F08D02B
:10655000B4F5005F05D0B4F5804F02D0B4F5004F1C
:1065600000D104E040F2AD1103480AF0D2FD6869A1
:106570006040686170BD00004883010870B5064640
:106580000C461546012C25D0022C23D0042C21D0FA
:10659000082C1FD0102C1DD0202C1BD0402C19D023
:1065A000802C17D0B4F5807F14D0B4F5007F11D0C3
:1065B000B4F5806F0ED0B4F5006F0BD0B4F5805FEA
:1065C00008D0B4F5005F05D0B4F5804F02D0B4F523
:1065D000004F00D104E04FF4CB7108480AF099FD58
:1065E0000DB1012D00D104E040F2971103480AF0EB
:1065F00090FD0DB1348300E0748370BD48830108C1
:106600000148006870470000E002002070B50446B1
:106610000025D4F88C0208F07DF900BF01E000BF2E
:106620006D1C02488542FAD370BD0000400D030086
:1066300010B50446D4F88C0208F085F910BD10B5E9
:106640000446206808F0CCFD10BD10B50446206853
:1066500008F0CCFD10BD024601EB810302F13000D1
:1066600000EBC30090F824007047024601EB810361
:1066700002F1300000EBC3004069704770B504467A
:106680000D46002600BF94F88802012801D102209F
:1066900070BD012084F8880200BF2946206808F0F8
:1066A000B3FD00BF002084F8880200BF3046EFE74A
:1066B0002DE9FE4F04460D4616461F46DDE90D9AAC
:1066C000DDF830804FF0000B00BF94F888020128FD
:1066D00002D10220BDE8FE8F012084F8880200BFAD
:1066E00005EB850104F1300000F8317005EB850100
:1066F00000EBC100A0F808A005EB850104F1300013
:1067000000EBC100457005EB850104F1300000EBA2
:10671000C10080F8079006F07F0105EB850204F1C7
:10672000300000EBC2008170C6F3C01105EB85029A
:1067300004F1300000EBC200C17005EB850104F1EB
:10674000300000EBC10080F804808DE800073B4674
:1067500032462946206808F013FE834600BF002019
:1067600084F8880200BF5846B4E770472DE9F05F0F
:1067700004460D4616461F46DDE90BB9DDF834A088
:10678000DDF8288005EB850104F1300000EBC10045
:10679000C67005EB850104F1300000EBC100C77144
:1067A000B8F1000F08D1032105EB850204F1300098
:1067B00000EBC200817207E0022105EB850204F1C3
:1067C000300000EBC200817237B1012F7DD0022F63
:1067D0003DD0032F3AD182E0B8F1010F36D1AEBBE4
:1067E000B9F1000F07D1012105EB850204F130005A
:1067F00000EBC200417605EB850104F1300000EBAF
:10680000C100407E40B9002105EB850204F1300053
:1068100000EBC200817207E0022105EB850204F162
:10682000300000EBC200817205EB850104F13000FD
:1068300000EBC10090F82400022807D005EB850189
:1068400004F1300000EBC10080F805A085E05EBBDC
:1068500005EB850104F1300000EBC100407E40B93A
:10686000002105EB850204F1300000EBC2008172CB
:1068700007E0022105EB850204F1300000EBC200C5
:10688000817205EB850104F1300000EBC10090F846
:106890002400022822D005EB850104F1300000EB32
:1068A000C10080F805A019E005EB850104F1300076
:1068B00000EBC100007E48B9002105EB850204F120
:1068C000300000EBC200817208E03DE0022105EBE0
:1068D000850204F1300000EBC20081723DE0CEB9C8
:1068E00005EB850104F1300000EBC100407E40B9AA
:1068F000002105EB850204F1300000EBC20081723B
:1069000021E0022105EB850204F1300000EBC2001A
:10691000817218E005EB850104F1300000EBC10045
:10692000007E40B9002105EB850204F1300000EB48
:10693000C200817207E0022105EB850204F13000FC
:1069400000EBC200817208E0002105EB850204F132
:10695000300000EBC200817200BF00BF05EB850173
:1069600004F1300000EBC100C0F80CB005EB85016C
:1069700004F1300000EBC100C0F81090002105EBDD
:10698000850204F1300000EBC20080F8241005EB12
:10699000850204F1300000EBC200416105EB850186
:1069A00004F1300000EBC1004570002105EB8502C9
:1069B00004F1300000EBC20080F82510227C05EBCA
:1069C000850C04F1300303EBCC01206808F0A2FD34
:1069D000BDE8F09F2DE9F041044626680025002718
:1069E000206808F00CFC01287ED1206808F0DFFE4A
:1069F00008B9BDE8F081206808F0D9FE00F4001065
:106A0000B0F5001F05D12068406940F400102168EE
:106A10004861206808F0CBFE00F48010B0F5801FBC
:106A200005D12068406940F48010216848612068E1
:106A300008F0BDFE00F08060B0F1806F05D12068E5
:106A4000406940F0806021684861206808F0AFFE2E
:106A500000F00200022805D12068406940F00200E1
:106A600021684861206808F0A2FE00F00050B0F1F3
:106A7000005F12D1D6F8400420F02E00C6F8400482
:106A80002046FFF7D5FD0121206808F071FE20683F
:106A9000406940F0005021684861206808F087FE96
:106AA00000F08070B0F1807F02D1204603F094FEA8
:106AB000206808F07CFE00F00800082808D1204675
:106AC00000F07CF92068406940F0080021684861C6
:106AD000206808F06CFE00F00070B0F1007F26D155
:106AE000206808F011FD00E037E00746002515E0BA
:106AF0000120A840384080B106F5A06000EB4510A9
:106B0000006800F4004020B1E9B2204603F049F9E2
:106B100003E0E9B2204603F0E0FB6D1CA068A84248
:106B2000E6D82068406940F000702168486120681C
:106B300008F03DFE00F0100010280ED1206880699A
:106B400020F0100021688861204603F0B7FE20681D
:106B5000806940F010002168886100BF49E70000AB
:106B600010B588B0044614B9012008B010BD2068E3
:106B7000B0F1A04F03D017492068884200D103E04C
:106B8000802115480AF0C5FA022084F889022046BF
:106B900000F024F8206808F099FA202204F110018E
:106BA0006846F9F799FC94E80F0008F031FA0121E2
:106BB000206808F02EFE202204F110016846F9F743
:106BC0008BFC94E80F0008F05DFD002084F889023A
:106BD00000BFCAE7000004409083010810B586B0EA
:106BE00004462068B0F1A04F51D16948006840F0D8
:106BF0000100674908600846006840F080000860AE
:106C00000846006840F0080008604FF4C05001904A
:106C10000220029000200390032004900A20059097
:106C200001A95C48FFF712FA4FF48060019012202E
:106C30000290012003900A20059001A95548FFF712
:106C400005FA4FF40070019001200290002003909B
:106C500001A95148FFF7FAF900BF4D48001D00682F
:106C600040F080004A49091D086049481430006816
:106C700040F4804046491431086000BF00220521DD
:106C8000432001F0C9F8432001F0B9F87EE0434900
:106C9000206888427AD13E48006840F001003C49B3
:106CA00008600846006840F0020008600846006876
:106CB00040F0040008600846006840F0800008606A
:106CC0000846006840F4807008602020019002208F
:106CD000029000200390032004900A20059001A94F
:106CE0002C48FFF7B3F90820019002200290002001
:106CF0000390032004900A20059001A92548FFF77E
:106D0000A5F943F623400190022002900020039051
:106D10000A20059001A92248FFF798F90120019067
:106D200002200290002003900A20059001A91D482E
:106D3000FFF78CF9102001900220029000200390B0
:106D40000A20059001A91848FFF780F94FF4006068
:106D5000019002200290002003900A20059001A9D2
:106D60001248FFF773F90A48006840F0804008496C
:106D700008600846006840F00050086000220521C5
:106D80004D2001F049F84D2001F039F806B010BD52
:106D90003038024000000240000C02400000044075
:106DA0000004024000080240001C02400020024093
:106DB00010B50446206808F014FD10BD10B5044657
:106DC000D4F88C0207F028FE10BD10B5044600BFB1
:106DD00094F88802012801D1022010BD012084F816
:106DE000880200BF206808F0C5F90121206808F07A
:106DF0009FF900BF002084F8880200BF00BFECE7C5
:106E000010B5044600BF94F88802012801D1022081
:106E100010BD012084F8880200BF206808F011FD31
:106E200000BF002084F8880200BF00BFF0E7000028
:106E300010B504460CB9012010BD144920688842E1
:106E400007D013492068884203D01249206888423D
:106E500000D104E040F26D110F480AF05AF9022007
:106E600084F835002068006820F00100216808607F
:106E7000204600F033FD002084F8360084F8350009
:106E800000BF84F8340000BF00BFD5E700540040C5
:106E900000580040005C0040D8830108014691F88A
:106EA0003500704770B50446002600250CB9012056
:106EB00070BD77492068884207D0764920688842AB
:106EC00003D075492068884200D104E04FF49171E5
:106ED00072480AF01EF9606820B171496068884202
:106EE00000D804E040F223116C480AF012F9A068BF
:106EF00018B1A068B0F5804F00D104E04FF4927152
:106F000066480AF006F9E0686FF3090000B904E08A
:106F100040F2251161480AF0FCF82069B0F5804F75
:106F200003D02069B0F5404F00D104E04FF49371D5
:106F30005A480AF0EEF8606910B16069012800D182
:106F400004E040F2271155480AF0E3F8A06920F068
:106F5000FE0000B904E04FF4947150480AF0D9F8EB
:106F6000E06910B1E069402800D104E040F2291145
:106F70004A480AF0CEF8206A10B1206A802800D171
:106F800004E04FF4957145480AF0C3F894F83500D1
:106F900010B9204600F0A3FC022084F835002068D8
:106FA000006820F001002168086001F031FC05460E
:106FB0003C48B5FBF0F6206846603B496068884273
:106FC00001D8701C07E04FF4967070434FF47A714B
:106FD000B0FBF1F0401C21680862334960688842C8
:106FE0000ED860684000B5FBF0F0C0F30B00042839
:106FF00001D204202DE060684000B5FBF0F028E0ED
:10700000A06828B9606800EB4000B5FBF0F008E02C
:10701000606800EBC00101EB0010B5FBF0F040F43C
:107020008040C0F30B0008B9012012E0A06828B925
:10703000606800EB4000B5FBF0F008E0606800EB32
:10704000C00101EB0010B5FBF0F040F4804040F4CB
:1070500000402168C861D4E907010843216808603D
:10706000D4E90310084321688860D4E90501084386
:107070002168C8602068006840F00100216808604D
:10708000002084F83600012084F8350000200FE746
:107090000054004000580040005C0040D8830108C4
:1070A000801A060040420F00A08601002DE9F84F2B
:1070B00004460D4616461F464FF00008C146C2461C
:1070C000C3460120009094F83500012873D1206850
:1070D0008069C0F3400010B10220BDE8F88F00BF06
:1070E00094F83400012801D10220F6E7012084F849
:1070F000340000BF022084F83500002084F83600F8
:1071000000BF2068006840F48070216808603B463A
:1071100000224FF00111204603F044FE08B1032085
:10712000DBE705F0FE0021680861FFF769FA00EB74
:10713000070820684069C0F3400920684069C0F32F
:10714000802A94F835B010E0FFF75AFA404502D390
:10715000032084F8350020684069C0F340092068A6
:107160004069C0F3802A94F835B0B9F1000F05D119
:10717000BAF1000F02D1BBF1030FE5D1012084F871
:10718000350020684069C0F34000F0B12068006815
:1071900040F400702168086000BF206840692068E2
:1071A000806900BF3B4601221B49204603F0FAFDDF
:1071B00010B1032091E72CE0012084F8350000BFD6
:1071C000002084F8340000BF87E72068006840F49E
:1071D0000070216808602068406920F480602168A0
:1071E00048613B4601220C49204603F0DBFD08B113
:1071F000032072E70098411C0091B04281D3012026
:1072000084F8350000BF002084F8340000BF01205E
:1072100063E7022061E70000020010002DE9F04161
:107220000446884615461E46069F94F835000128F8
:1072300077D105B116B90120BDE8F08120688069D9
:10724000C0F3400008B10220F6E700BF94F8340014
:10725000012801D10220EFE7012084F8340000BFAB
:10726000222084F83500002084F836003A46414652
:10727000204603F0B1FB88B194F83600042806D10B
:1072800000BF002084F8340000BF0120D4E700BF15
:10729000002084F8340000BF0320CDE7012E12D176
:1072A0002068006820F480602168086000BF2068C2
:1072B00040692068806900BF2068006840F4007061
:1072C000216808601FE0022E11D12068006820F4B8
:1072D0008060216808602068006840F400602168D0
:1072E000086000BF20684069206880690BE0206862
:1072F000006840F480602168086000BF2068406931
:107300002068806900BF80E0032E64DC012E10D16C
:107310003B4600224B49204603F044FD10B10320B8
:107320008AE78DE02068006905F8010B701E86B2BF
:107330006BE0022E1CD13B46002242493C392046DC
:1073400003F030FD08B1032076E72068006840F4C0
:107350000070216808602068006905F8010B701E44
:1073600086B22068006905F8010B701E86B24CE0F9
:107370003B46002233493C39204603F013FD08B157
:10738000032059E72068006820F4806021680860C5
:107390002068006905F8010B701E86B23B4600228A
:1073A00028493C39204603F0FDFC08B1032043E79F
:1073B0002068006840F40070216808602068006957
:1073C00005F8010B701E86B22068006905F8010BF4
:1073D000701E86B219E03B4600221A49204603F08F
:1073E000E1FC08B1032027E72068006905F8010BDC
:1073F000701E86B220684069C0F3800028B1206802
:10740000006905F8010B701E86B2002E3FF77CAFB5
:107410002068006820F40060216808603B46012273
:107420000949204603F0BEFC08B1032004E701200F
:1074300084F8350000BF002084F8340000BFFBE66C
:107440000220F9E640000100020010002DE9F041A1
:107450000446884615461E46069F94F835000128C6
:107460007AD105B116B90120BDE8F08120688069A4
:10747000C0F3400008B10220F6E700BF94F83400E2
:10748000012801D10220EFE7012084F8340000BF79
:10749000122084F83500002084F836003A46414630
:1074A000204603F015FB88B194F83600042806D175
:1074B00000BF002084F8340000BF0120D4E700BFE3
:1074C000002084F8340000BF0320CDE700BF20680F
:1074D00040692068806900BF1AE03B4600221F49CE
:1074E000204603F05FFC08B10320BDE715F8010B4F
:1074F00021680861701E86B220684069C0F3800070
:1075000030B12EB115F8010B21680861701E86B2EA
:10751000002EE2DC3B4600221049204603F042FCEC
:1075200008B10320A0E72068006840F400702168DB
:1075300008603B4601220A49204603F033FC10B1A3
:10754000032091E708E0012084F8350000BF002007
:1075500084F8340000BF87E7022085E7800001003F
:10756000020010002DE9F84F0446894692461F4656
:10757000DDE90B680A9D012F01D0102F00D104E036
:1075800040F28261864809F0C4FD94F83500012874
:1075900074D105B116B90120BDE8F88F2068806963
:1075A000C0F3400008B10220F6E700BF94F83400B1
:1075B000012801D10220EFE7012084F8340000BF48
:1075C000422084F83500002084F836003B465246BD
:1075D00049462046CDF8008003F0C2FA88B194F8FD
:1075E0003600042806D100BF002084F8340000BF14
:1075F0000120D1E700BF002084F8340000BF032041
:10760000CAE7012E12D12068006820F4806021684A
:10761000086000BF206840692068806900BF20685A
:10762000006840F400702168086019E0022E11D152
:107630002068006820F48060216808602068006885
:1076400040F400602168086000BF2068406920683D
:10765000806905E000BF206840692068806900BF3C
:1076600080E0032E64DC012E10D1434600224D49F8
:10767000204603F097FB10B103208DE78DE02068D2
:10768000006905F8010B701E86B26BE0022E1CD15A
:107690004346002243493C39204603F083FB08B1AE
:1076A000032079E72068006840F4007021680860D2
:1076B0002068006905F8010B701E86B22068006919
:1076C00005F8010B701E86B24CE043460022354996
:1076D0003C39204603F066FB08B103205CE72068D4
:1076E000006820F48060216808602068006905F85F
:1076F000010B701E86B2434600222A493C392046BF
:1077000003F050FB08B1032046E72068006840F40E
:107710000070216808602068006905F8010B701E80
:1077200086B22068006905F8010B701E86B219E068
:10773000434600221B49204603F034FB08B10320D6
:107740002AE72068006905F8010B701E86B22068E0
:107750004069C0F3800028B12068006905F8010B7A
:10776000701E86B2002E3FF77CAF2068006820F4C0
:10777000006021680860434601220B49204603F05F
:1077800011FB08B1032007E7012084F8350000BF92
:10779000002084F8340000BFFEE60220FCE6000072
:1077A000D883010840000100020010002DE9F84FC5
:1077B0000446894692461F46DDE90B680A9D012F63
:1077C00001D0102F00D104E040F21E61404809F0C2
:1077D000A0FC94F83500012877D105B116B9012035
:1077E000BDE8F88F20688069C0F3400008B102202E
:1077F000F6E700BF94F83400012801D10220EFE73A
:10780000012084F8340000BF322084F835000020C5
:1078100084F836003B46524649462046CDF8008063
:1078200003F050FA88B194F83600042806D100BF5E
:10783000002084F8340000BF0120D1E700BF002001
:1078400084F8340000BF0320CAE71AE04346002250
:107850002049204603F0A6FA08B10320C0E715F836
:10786000010B21680861701E86B220684069C0F370
:10787000800030B12EB115F8010B21680861701E2F
:1078800086B2002EE2DC434600221249204603F075
:1078900089FA08B10320A3E72068006840F400706B
:1078A00021680860434601220B49204603F07AFA1A
:1078B00008B1032094E7012084F8350000BF0020C0
:1078C00084F8340000BF8BE7FFE7022088E7000060
:1078D000D883010880000100020010007047704743
:1078E00010B50446F9F774FC10BD014691F83D004F
:1078F000704700002DE9F047044600264FF00208CB
:10790000B1464FF0010A0025002714B90120BDE857
:10791000F087606858B16068B0F5807F07D0606814
:10792000B0F5007F03D06068B0F5407F00D103E080
:10793000D521AF4809F0EDFBA06858B1A068102828
:1079400008D0A068202805D0A068302802D0A06800
:10795000B02800D103E0D621A54809F0DAFBE068A1
:1079600040B1E068012805D0E068032802D0E06853
:10797000052800D103E0D7219D4809F0CAFB206902
:10798000B0F5007F01D0206900B903E0D821984804
:1079900009F0BFFB6069B0F5FA5F03D395496069F0
:1079A000884202D96069022800D103E0D9219048B9
:1079B00009F0AFFBA06910B1A069082800D103E06D
:1079C000DA218B4809F0A5FBE069012801D0E069C4
:1079D00000B903E0DB21864809F09BFB206A10B167
:1079E000206A012800D103E0DC21814809F091FBE5
:1079F00094F83D0010B9204600F00AF9022084F8FE
:107A00003D002068C06940F6BF7188432168C861A5
:107A10000220216808622068C6696069022873D064
:107A2000E06808B14FF0020AE06901280CD1724801
:107A3000006800F4000028B96F48006840F40000B6
:107A40006D4908606D4F3CE06B480838006800F0F5
:107A50008060B0F1806F03D0012084F83D0056E7CC
:107A60006548006800F4000028B16348006820F40D
:107A70000000614908606048001F006800F4800051
:107A8000B0F5800F08D15C48001F006800F03F008F
:107A90005B49B1FBF0F707E05748001F006800F0B2
:107AA0003F005849B1FBF0F753487C300068C0F301
:107AB0008810474350487C300068C0F30270B7FB21
:107AC000F0F72069B0F5007F08D1380A00EB80009C
:107AD00041006069B1FBF0F0451D0AE04FEA4A1031
:107AE000B7FBF0F000EB800041006069B1FBF0F003
:107AF000451D0A20B5FBF0F505F00109A5EB0900CD
:107B00004FEA50084FEA0929B8F1020F02D3B8F141
:107B1000FF0F03D94FF002084FF00009206940EA37
:107B2000090040EA080021680862606840F40060CB
:107B3000A1680843E1680843A16908430643206837
:107B4000C661206A01284BD12F492068884201D1A3
:107B50002E4801E04FF04020C06940F6BF718843D5
:107B6000294A2168914201D1284901E04FF0402182
:107B7000C8610220244A2168914201D1234901E0D1
:107B80004FF04021086220492068884201D11F48F7
:107B900001E04FF04020C6696068B0F5007F01D079
:107BA000606810B94FF4807508E06068B0F5407FF8
:107BB00003D06068B0F5807F00D1002545F40060F7
:107BC000A1680843E1680843A169084306430E49D8
:107BD0002068884201D10D4801E04FF04020C66185
:107BE000002084F83E00012084F83D0000208EE64D
:107BF0002084010800EE0200083802400080BB002B
:107C000040787D010024F40000380040003400403A
:107C1000704700002DE9F743044615460027B84693
:107C2000019800B115B90120BDE8FE8394F83D002C
:107C300001285ED1019860622068C06900F00707E2
:107C40002068C06900F00708032F02D0B8F1050FC3
:107C50000AD14FF6FF7000EA450020854FF6FF700D
:107C600000EA4500608501E02585658500BF94F840
:107C70003C00012801D10220D6E7012084F83C0015
:107C800000BF122084F83D00002084F83E001A480E
:107C9000616B08641948616BC8631948616B88643B
:107CA00001AE238DD4F800C00CF10C023168606B7A
:107CB000FEF74AF92068C06900F48060B0F5806F73
:107CC00005D02068C06940F480602168C8612068E0
:107CD000406800F00200022805D02068406840F0AB
:107CE00002002168486000BF002084F83C0000BF0B
:107CF0009AE7022098E70000E9B3000871B3000892
:107D00004DB3000810B50446F9F71EFB10BD10B5C1
:107D10000446F9F75FFA10BD02480068401C0149AB
:107D200008607047E002002010B50D48006840F47C
:107D300000700B4908600846006840F480600860E5
:107D40000846006840F4807008604FF47A5001F0F3
:107D5000EFFC032000F0AEF800F050F8002010BD5A
:107D6000003C024070B504460D460CB9012070BDC0
:107D70000DB1202D00D104E04FF4AF711E4809F081
:107D8000C8F994F8390010B9204601F01BFE2068AC
:107D9000C06820F400502168C860204604F0F6FE58
:107DA0002068006920F4006021680861206840694B
:107DB00020F02A00216848612068006940F4804072
:107DC000216808612068006920F0200021680861AE
:107DD000206800692843216808612068C06840F471
:107DE00000502168C860002084F83A00012084F81F
:107DF00039000020BBE70000FC840108704700BF89
:107E000000F01F02012191404209920002F1E0229C
:107E1000C2F8001100BF70472DE9F05F80460C46A4
:107E200015460027102D00D203E0D221204809F08A
:107E300070F9102C00D203E0D3211D4809F069F934
:107E400003F0AAFE0746394622462B4601F00700FA
:107E5000C0F1070ABAF1040F02D94FF0040A01E099
:107E6000C0F1070AD14600F1040ABAF1070F02D2A5
:107E70004FF0000A01E0A0F1030AD4464FF0010AD6
:107E80000AFA09FAAAF1010A0AEA020A0AFA0CFA3B
:107E90004FF0010B0BFA0CFBABF1010B0BEA030BE0
:107EA0004AEA0B063146404603F07EFEBDE8F09FED
:107EB000B482010810B50446072C07D0062C05D063
:107EC000052C03D0042C01D0032C00D103E0BA21EF
:107ED000094809F01EF900BF04F00701074A1068BD
:107EE0004FF6FF021040064A024342EA0120034ACD
:107EF000106000BF10BD0000B48201080CED00E06E
:107F00000000FA053F220260404A126847F6C0733B
:107F10001A4093FAA3F3B3FA83F3DA4042603B4A80
:107F2000126802F0E0424FF0E04393FAA3F3B3FA91
:107F300083F3DA408260354A126802F070624FF0D3
:107F4000706393FAA3F3B3FA83F3DA40C2602F4A63
:107F5000121D126847F6C0731A4093FAA3F3B3FADE
:107F600083F3DA400261294A121D126802F0E042EE
:107F70004FF0E04393FAA3F3B3FA83F3DA4082615C
:107F8000224A121D126802F070624FF0706393FA79
:107F9000A3F3B3FA83F3DA4042611C4A0832126851
:107FA00002F01F021F2393FAA3F3B3FA83F3DA401C
:107FB000C261164A0832126802F4F8524FF4F853BC
:107FC00093FAA3F3B3FA83F3DA4002620F4A08325A
:107FD000126802F4403242620C4A7C3A126802F49F
:107FE000F8110A4A143A126802F440720A43826293
:107FF000064A0832126802F080721AB9002280F82C
:108000002C2002E0012280F82C20704784380240A6
:1080100070B50446002500262068012803D3206897
:108020002F2800D803E06D21F24809F072F820787B
:1080300000F0010020B9207800F0020002287DD174
:108040006068C02804D36068B0F5D87F00D803E02A
:108050007821E84809F05DF80020E7498866FEF7D6
:10806000CFFA00F1640505E0FEF7CAFAA84201D391
:10807000032070BDE1480068C0F3C0600028F3D160
:10808000207800F00100F0B1A068022803D3A068B6
:10809000072800D803E08E21D64809F03AF847F6C1
:1080A000C07191FAA1F1B1FA81F1606888404FF096
:1080B000E04292FAA2F2B2FA82F2A1689140084339
:1080C000CE4984310860207800F00200022839D1BE
:1080D000E068022803D3E0680F2800D803E09B2162
:1080E000C44809F016F8E069012803D3E0692028A4
:1080F00000D803E09C21BF4809F00BF8BF4884304A
:10810000006800F0E0404FF0E04191FAA1F1B1FACF
:1081100081F120FA01F660688101207B41EA00606C
:1081200040EA0670B54984310860B4488C30006874
:1081300020F01F00E169491E084300E016E0AF4946
:108140008C3108600120AC498866FEF759FA00F1CD
:10815000640505E0FEF754FAA84201D3032088E73E
:10816000A6480068C0F3C0600028F3D0207800F073
:108170000400042804D0207800F0080008287BD1EF
:108180002069C02804D32069B0F5D87F00D803E067
:10819000C121984808F0BDFF002097490867FEF705
:1081A0002FFA00F1640505E0FEF72AFAA84201D390
:1081B00003205EE791480068C0F340700028F3D1C7
:1081C000207800F00400042837D16069022803D326
:1081D00060690F2800D803E0D621864808F099FF8F
:1081E000206A012803D3206A202800D803E0D72181
:1081F000804808F08EFF81488830006800F0E04039
:108200004FF0E04191FAA1F1B1FA81F120FA01F6C3
:1082100020698101207D41EA006040EA06707749CB
:1082200088310860081D006820F4F851206A401E5B
:1082300041EA002071498C310860207800F0080084
:1082400008283ED1A069022803D3A069072800D8D6
:1082500003E0E621674808F05CFF606A58B1606A95
:10826000B0F5803F07D0606AB0F5003F03D0606A88
:10827000B0F5403F01D104E037E0E7215D4808F068
:1082800048FF5E488830006800F070604FF0706111
:1082900091FAA1F1B1FA81F120FA01F62069800189
:1082A00040EA0661207E41EA007054498831086046
:1082B000081D006820F44030616A08434F498C3142
:1082C000086001204C490867FEF79AF900F164053F
:1082D00005E0FEF795F9A84201D30320C9E6474817
:1082E0000068C0F340700028F3D0207800F0200030
:1082F000202873D141484030006840F080503F4909
:10830000403108603E48006840F480703C49086095
:10831000FEF776F900F1640505E0FEF771F9A84271
:1083200001D30320A5E63648006800F480700028D9
:10833000F3D032487030006800F44070218D01F4B1
:10834000407188420CD02D487030006820F440768F
:1083500001202C4908600020086028487030066021
:10836000A06AB0F5807F12D1FEF74AF941F2883158
:10837000451805E0FEF744F9A84201D3032078E64A
:108380001E4870300068C0F340000028F2D000BFE3
:10839000208D00F44070B0F5407F0CD117480830B4
:1083A000006820F4F810184AA16A114008431349E4
:1083B0000831086007E011480830006820F4F81020
:1083C0000E49083108600D4870300068218DC1F3F6
:1083D0000B01084309497031086000BF207800F0A4
:1083E0001000102803D194F82C00084908600020E0
:1083F0003FE60000B0840108000047420038024018
:1084000000700040400E4742FFFCFF0FE011474262
:108410002DE9F04104460D4600262068012803D3CB
:1084200020680F2800D804E040F28B21E54808F0CE
:1084300070FEEDB1012D1BD0022D19D0032D17D0E8
:10844000042D15D0052D13D0062D11D0072D0FD0DA
:10845000082D0DD0092D0BD00A2D09D00B2D07D0DA
:108460000C2D05D00D2D03D00E2D01D00F2D00D1D8
:1084700004E04FF42371D34808F04BFED248006863
:1084800000F00F00A8427BD2CF490D70084600686B
:1084900000F00F00A84202D00120BDE8F081207852
:1084A00000F00100002848D0606828B16068012809
:1084B00002D06068022800D104E040F2A221C14845
:1084C00008F027FE6068012806D1C0480068C0F3A4
:1084D000404090B90120E0E76068022806D1BB481F
:1084E0000068C0F3406040B90120D6E7B748006893
:1084F000C0F3400008B90120CFE7B4480830006855
:1085000020F0030061680843B04908310860FEF7B5
:1085100077F841F288314618606801280ED105E0ED
:10852000FEF76EF8B04201D30320B6E7A748083043
:10853000006800F00C000428F2D19AE0606802287C
:108540000ED105E0FEF75CF8B04201D30320A4E7AA
:108550009E480830006800F00C000828F2D188E03E
:1085600006E0FEF74DF8B04202D3032095E707E09E
:1085700096480830006800F00C000028F1D178E03F
:10858000207800F00100D8B3606828B16068012845
:1085900002D06068022800D104E040F2EA21894854
:1085A00008F0B7FD6068012806D188480068C0F36C
:1085B000404090B9012070E76068022806D18348E6
:1085C0000068C0F3406040B9012066E77F4800685A
:1085D000C0F3400008B901205FE77C48083000681C
:1085E00020F0030061680843784908310860FEF70D
:1085F00007F841F288314618606801280FD106E07B
:108600002DE0FDF7FDFFB04201D3032045E76F48A1
:108610000830006800F00C000428F2D11FE0606808
:1086200002280ED105E0FDF7EBFFB04201D3032095
:1086300033E766480830006800F00C000828F2D1E3
:108640000DE005E0FDF7DCFFB04201D3032024E795
:108650005E480830006800F00C000028F2D15A494A
:108660000D700846006800F00F00A84201D00120FC
:1086700013E7207800F00200022829D1A068B8B1E1
:10868000A068802814D0A068902811D0A068A028E5
:108690000ED0A068B0280BD0A068C02808D0A06871
:1086A000D02805D0A068E02802D0A068F02800D12A
:1086B00004E040F23A31434808F02BFD43480830CB
:1086C000006820F0F000A1680843404908310860C4
:1086D000207800F00400042821D1E06878B1E06837
:1086E000B0F5805F0BD0E068B0F5A05F07D0E06820
:1086F000B0F5C05F03D0E068B0F5E05F00D104E002
:1087000040F241312F4808F004FD3048083000683D
:1087100020F4E050E16808432C49083108602078D3
:1087200000F00800082822D1206978B12069B0F54E
:10873000805F0BD02069B0F5A05F07D02069B0F54D
:10874000C05F03D02069B0F5E05F00D104E04FF4D2
:1087500052711C4808F0DDFC1C480830006820F409
:108760006040216940EAC10018490831086000F002
:1087700033F84FF47A71B0FBF1F7781EB0F1807FD7
:1087800000D31DE0781E4FF0E021486148170F210B
:10879000002809DA0A074FEA126C0D4A00F00F03AD
:1087A0001B1F02F803C003E00A07130E094A135403
:1087B00000BF00204FF0E02188610720086100BF62
:1087C00000206AE668840108003C0240003802404C
:1087D00018ED00E000E400E000B500F045F80949BC
:1087E000096801F0F001F02292FAA2F2B2FA82F2E4
:1087F000D140054A515CC8400449086008460068F9
:1088000000BD0000083802407C7C0108CC0200203A
:1088100000B5FFF7E1FF0749096801F4E0514FF4A3
:10882000E05292FAA2F2B2FA82F2D140024A515CCC
:10883000C84000BD083802407C7C010800B5FFF745
:10884000CBFF0749096801F460414FF4604292FA96
:10885000A2F2B2FA82F2D140024A515CC84000BD95
:10886000083802407C7C010870B5002100220023FA
:1088700000202B4C246804F00C0424B1042C04D0F8
:10888000082C48D103E0274847E0274845E0244C1E
:10889000241F246804F03F01214C241F246804F4A1
:1088A00080044FF4800595FAA5F5B5FA85F5EC40FE
:1088B00084B11D4CB4FBF1F5194C241F246847F614
:1088C000C076344096FAA6F6B6FA86F6F44005FB72
:1088D00004F20FE0134CB4FBF1F5114C241F246893
:1088E00047F6C076344096FAA6F6B6FA86F6F44015
:1088F00005FB04F20A4C241F246804F440344FF4AE
:10890000403595FAA5F5B5FA85F5EC40641C630091
:10891000B2FBF3F001E0034800BF00BF70BD0000F0
:10892000083802400024F40040787D0170B5044608
:10893000002520680F2800D804E04FF49A71FB4806
:1089400008F0E7FB207800F00100002872D0606892
:1089500028B16068012802D06068052800D104E0D1
:1089600040F23911F14808F0D4FBF148006800F0FA
:108970000C0004280DD0EE48006800F00C00082818
:1089800013D1EB48001F006800F48000B0F5800FA1
:108990000BD1E74808380068C0F34040002849D0B0
:1089A0006068012846D0012070BD0020E049891F81
:1089B0000870FDF725FE41F28831451805E0FDF706
:1089C0001FFEA84201D30320EEE7D948083800680B
:1089D000C0F340400028F2D12079D549891F0870A2
:1089E0006068012813D1FDF70BFE41F2883145186C
:1089F00005E0FDF705FEA84201D30320D4E7CC48EB
:108A000008380068C0F340400028F2D012E0FDF7BB
:108A1000F7FD41F28831451805E0FDF7F1FDA84268
:108A200001D30320C0E7C24808380068C0F34040C3
:108A30000028F2D1207800F0020002286CD1E06812
:108A400010B1E068012800D104E040F27911B74884
:108A500008F05FFB20691F2800D804E04FF4BD71C7
:108A6000B24808F056FBB248006800F00C0058B15C
:108A7000AF48006800F00C00082810D1AC48001F77
:108A8000006800F4800050B9A94808380068C0F3B5
:108A9000400058B3E06801283ED0012084E7E06838
:108AA00028B30120A3490860FDF7AAFD00F1640581
:108AB00005E0FDF7A5FDA84201D3032074E79C481B
:108AC00008380068C0F340000028F2D09848083801
:108AD000006820F0F800F82292FAA2F2B2FA82F2CC
:108AE00021699140084392490839086014E0002048
:108AF00090490860FDF784FD00F1640505E0FDF78D
:108B00007FFDA84201D303204EE78948083800685A
:108B1000C0F340000028F2D1207800F008000828B7
:108B200037D1606910B16069012800D104E04FF4C9
:108B3000D9717E4808F0EDFA6069A8B101207E493C
:108B40000860FDF75DFD00F1640505E0FDF758FDE7
:108B5000A84201D3032027E775486C300068C0F3B2
:108B600040000028F2D014E0002073490860FDF7AF
:108B700047FD00F1640505E0FDF742FDA84201D381
:108B8000032011E76A486C300068C0F340000028F9
:108B9000F2D1207800F00400042871D1A06828B137
:108BA000A068012802D0A068052800D104E04FF495
:108BB000EE715E4808F0ADFA5D483830006840F06C
:108BC00080505B49383108605C48006840F4807030
:108BD0005A490860FDF714FD00F1640505E0FDF752
:108BE0000FFDA84201D30320DEE65448006800F4DC
:108BF00080700028F3D000204D4968310870FDF7DF
:108C0000FFFC41F28831451805E0FDF7F9FCA84268
:108C100001D30320C8E6464868300068C0F340002E
:108C20000028F2D1207A424968310870A0680128F2
:108C300013D1FDF7E5FC41F28831451805E0FDF759
:108C4000DFFCA84201D30320AEE639486830006853
:108C5000C0F340000028F2D012E0FDF7D1FC41F251
:108C60008831451805E0FDF7CBFCA84201D303206D
:108C70009AE62F4868300068C0F340000028F2D11F
:108C8000A06928B1A069012802D0A069022800D1FA
:108C900004E04FF40871254808F03BFAA069002869
:108CA0007ED02348006800F00C00082879D0A06925
:108CB000022877D1E06918B1E069B0F5800F00D1E2
:108CC00004E040F22921194808F023FA206A3F28DD
:108CD00000D804E040F22A21144808F01AFA606A29
:108CE000C02804D3606AB0F5D87F00D804E040F211
:108CF0002B210E4808F00DFAA06A022808D0A06ABD
:108D0000042805D0A06A062802D0A06A082800D14D
:108D100004E04FF40B71054808F0FBF9E06A042801
:108D20000ED3E06A0F280BD80FE00000688401081A
:108D30000838024000004742800E47420070004061
:108D400040F22D21374808F0E4F900203649086642
:108D5000FDF756FC00F1640505E0FDF751FCA84263
:108D600001D3032020E631480068C0F340600028AA
:108D7000F3D1206A40F0005047F6C07292FAA2F296
:108D8000B2FA82F2616A914008430122A16AC2EB01
:108D900051014FF4403292FAA2F2B2FA82F202E0AA
:108DA0003DE03AE024E091400843E16908434FF098
:108DB000706292FAA2F2B2FA82F2E16A914008433A
:108DC0001A49091D0860012017490866FDF718FCBB
:108DD00000F1640505E0FDF713FCA84201D3032070
:108DE000E2E512480068C0F340600028F3D016E0C6
:108DF00000200D490866FDF703FC00F1640505E05D
:108E0000FDF7FEFBA84201D30320CDE5074800682B
:108E1000C0F340600028F3D101E00120C4E5002048
:108E2000C2E50000688401080000474200380240A3
:108E3000014691F85100704710B504460CB9012065
:108E400010BD606818B16068B0F5827F00D103E0A2
:108E5000A421614808F05DF9A06838B1A068B0F5B8
:108E6000806F03D0A068B0F5004F00D103E0A521CA
:108E7000594808F04EF9E068B0F5006F01D0E0689D
:108E800000B903E0A621544808F043F9206910B165
:108E90002069022800D103E0A7214F4808F039F9E2
:108EA000606910B16069012800D103E0A8214A4837
:108EB00008F02FF9A069B0F5007F05D0A06918B1BE
:108EC000A069B0F5802F00D103E0A921424808F045
:108ED00020F9E069A0B1E069082811D0E069102804
:108EE0000ED0E06918280BD0E069202808D0E0698E
:108EF000282805D0E069302802D0E069382800D160
:108F000003E0AA21344808F004F9206A10B1206A6D
:108F1000802800D103E0AB212F4808F0FAF8606AFE
:108F200010B1606A102800D103E0AC212A4808F093
:108F3000F0F8A06A18B1A06AB0F5005F00D103E0B4
:108F4000AD21254808F0E5F8E06A20B1E06AB0F507
:108F5000803F00D203E0AE211F4808F0DAF894F811
:108F6000510010B9204600F039F8022084F8510071
:108F70002068006820F0400021680860D4E9010101
:108F80000843E16808432169084361690843218B6C
:108F900001F400710843E1690843216A0843A16AAA
:108FA0000843216808600421A06901EA1040616A51
:108FB0000843216848602168E06A08612068C06948
:108FC00020F400602168C861002084F8520001206C
:108FD00084F85100002033E74485010870472DE9EB
:108FE000FC4104460E4615461F464FF0000894F813
:108FF000510001287BD106B115B90120BDE8FC81E3
:1090000000BF94F85000012801D10220F6E70120AA
:1090100084F8500000BF222084F85100002084F81A
:109020005200A663A587E587A064E064A086E08679
:10903000A068B0F5004F05D12068006820F480409A
:1090400021680860A06AB0F5005F0DD100BF2068FC
:10905000006820F40050216808602068006840F42F
:1090600000502168086000BF6068B0F5827F0ED1B3
:10907000A06860B900BF002084F8500000BF2B46F4
:10908000324631462046009700F0B2F9B6E7206834
:10909000006800F04000402805D02068006840F0DB
:1090A000400021680860E06810BB12E03B460022E7
:1090B0000121204603F09AF808B103209EE72068BA
:1090C000C068C1B2A26B501CA0631170E08F401E3B
:1090D000E087E08F0128E9DCA06AB0F5005F28D1C5
:1090E0002068006840F480502168086021E095E025
:1090F00012E03B4600220121204603F077F808B138
:1091000003207BE72068C068A16B0880A06B801CEF
:10911000A063E08F401EE087E08F0128E9DCA06AB1
:10912000B0F5005F05D12068006840F480502168E8
:1091300008603B4600220121204603F057F808B1A1
:1091400003205BE7E06838B92068C068C1B2A26B51
:10915000501CA063117006E02068C068A16B0880F5
:10916000A06B801CA063E08F401EE087A06AB0F572
:10917000005F12D13B4600220121204603F036F861
:1091800038B194F8520040F0020084F852000320F5
:1091900034E72068C06880B201906068B0F5827FD3
:1091A0000DD1A068B0F5004F03D0A068B0F5806F76
:1091B00005D12068006820F0400021680860012087
:1091C00084F8510020688068C0F30018A06AB0F5E8
:1091D000005F1DD1B8F1000F1AD094F8520040F092
:1091E000020084F8520000BF2068006820F400509C
:1091F000216808602068006840F400502168086019
:1092000000BF00BF002084F8500000BF0120F5E639
:1092100000BF002084F8500000BFEFE60220EDE61A
:109220002DE9F04104460E4615461F4694F85100BC
:1092300001287CD106B115B90120BDE8F081A068F4
:1092400018B1A068B0F5004F00D104E04FF4A87148
:10925000664807F05EFF00BF94F85000012801D176
:109260000220EAE7012084F8500000BF122084F8B1
:109270005100002084F852002663A586E586E0644C
:10928000A064A087E087A06AB0F5005F0DD100BFA1
:109290002068006820F40050216808602068006899
:1092A00040F400502168086000BFA068B0F5004F8E
:1092B00005D12068006840F480402168086020687B
:1092C000006800F04000402805D02068006840F0A9
:1092D000400021680860E06850BB216B481C206397
:1092E00008782168C860E08E401EE08611E03B46A9
:1092F00000220221204602F079FF08B103209CE7FA
:10930000216B481C206308782168C860E08E401EED
:10931000E086E08E0028EADCA06AB0F5005F33D179
:109320002068006840F48050216808602CE05AE012
:10933000FFE7206B00882168C860206B801C2063D9
:10934000E08E401EE08612E03B46002202212046CD
:1093500002F04CFF08B103206FE7206B0088216802
:10936000C860206B801C2063E08E401EE086E08E8B
:109370000028E9DCA06AB0F5005F05D1206800682C
:1093800040F48050216808603B46002202212046BC
:1093900002F02CFF38B194F8520040F0200084F81D
:1093A0005200032049E73B4601228021204602F07B
:1093B0001DFF38B194F8520040F0200084F85200AC
:1093C00003203AE7A06828B900BF2068C068206879
:1093D000806800BF012084F8510000BF002084F89D
:1093E000500000BF29E7022027E70000448501085C
:1093F0002DE9F84304460E4617461D46DDF8209039
:109400004FF0000894F85180B8F1010F02D0B8F184
:10941000220F76D10EB107B115B90120BDE8F8834E
:10942000A06800B904E040F28B21C04807F071FE4B
:1094300000BF94F85000012801D10220EEE701207E
:1094400084F8500000BF94F85100012802D1322066
:1094500084F85100002084F85200A763A587E587AF
:109460002663A586E586A064E064A06AB0F5005F87
:109470000DD100BF2068006820F40050216808600A
:109480002068006840F400502168086000BF206830
:10949000006800F04000402805D02068006840F0D7
:1094A000400021680860E068B0F5006F75D1206B5E
:1094B00000882168C860206B801C2063E08E401EFD
:1094C000E086E08EF0B9A06AB0F5005F05D12068B3
:1094D000006840F48050216808604B46002201215A
:1094E000204602F083FE08B1032097E72068C06899
:1094F000A16B0880A06B801CA063E08F401EE087FA
:10950000B9E011E131E04B4600220221204602F091
:109510006DFE08B1032081E7206B00882168C860D8
:10952000206B801C2063E08E401EE086E08E48B9F0
:10953000A06AB0F5005F05D12068006840F4805053
:10954000216808604B4600220121204602F04EFEB1
:1095500008B1032062E72068C068A16B0880A06B97
:10956000801CA063E08F401EE087E08E0028CADCEC
:109570004B4600220121204602F038FE08B10320AC
:109580004CE72068C068A16B0880A06B801CA063BA
:10959000E08F401EE0876EE0FFE7216B481C2063F0
:1095A00008782168C860E08E401EE086E08ED0B961
:1095B000A06AB0F5005F05D12068006840F48050D3
:1095C000216808604B4600220121204602F00EFE71
:1095D00008B1032022E72068C068A16B0870E08F03
:1095E000401EE08747E030E04B4600220221204643
:1095F00002F0FCFD08B1032010E7216B481C20633A
:1096000008782168C860E08E401EE086E08E48B988
:10961000A06AB0F5005F05D12068006840F4805072
:10962000216808604B4600220121204602F0DEFD41
:1096300008B10320F2E62068C068C1B2A26B501CDA
:10964000A0631170E08F401EE087E08E0028CBDC25
:109650004B4600220121204602F0C8FD08B103203C
:10966000DCE62068C068C1B2A26B501CA063117018
:10967000E08F401EE087A06AB0F5005F12D14B4634
:1096800000220121204602F0B1FD38B194F85200C9
:1096900040F0020084F852000320BFE62068C06852
:1096A00080B200904B4601228021204602F09EFDB0
:1096B00038B194F8520040F0200084F852000320A2
:1096C000ACE6012084F8510020688068C0F30018DF
:1096D000A06AB0F5005F21D1B8F1000F1ED094F858
:1096E000520040F0020084F85200A06AB0F5005F1A
:1096F0000DD100BF2068006820F400502168086088
:109700002068006840F400502168086000BF00BF76
:10971000002084F8500000BF01207FE600BF002039
:1097200084F8500000BF79E6022077E644850108FE
:1097300070B504462546681EB0F1807F01D3012034
:109740000FE0681E4FF0E02148610F214FF0FF301D
:1097500002F02AFA00204FF0E0218861072008611A
:10976000002070BD10B504460B492068884203D123
:109770000020F8F715FB0DE008492068884203D166
:109780000120F8F70DFB05E005492068884201D16A
:10979000F7F75EFF10BD0000004C004000440040A1
:1097A00000500040014691F83900704770B50446FA
:1097B000002500262068006800F001052068C068C8
:1097C00000F4807665B15EB12068006820F0010089
:1097D0002168086094F83A0040F0010084F83A00EB
:1097E00020680068C0F340052068406900F0010669
:1097F00065B15EB12068006820F002002168086051
:1098000094F83A0040F0040084F83A0020680068B8
:10981000C0F380052068406900F0010665B15EB1C3
:109820002068006820F004002168086094F83A007D
:1098300040F0020084F83A0020680068C0F3C005D8
:109840002068406900F0010665B15EB120680068DB
:1098500020F008002168086094F83A0040F0080001
:1098600084F83A0020680068C0F340152068C0689A
:1098700000F020064DB146B1204603F00EF92068F5
:10988000006820F020002168086020680068C0F3AC
:1098900080152068C06800F040064DB146B12046F2
:1098A00003F026FB2068006820F040002168086073
:1098B00094F83A0028B1012084F839002046FFF7D7
:1098C00051FF70BD10B504460CB9012010BDA06950
:1098D000A8B13349206888420BD0324920688842B9
:1098E00007D031492068884203D030492068884237
:1098F00000D129E0F9212E4807F00BFC24E028498B
:10990000206888421BD027492068884217D0264902
:109910002068884213D02749206888420FD0264902
:10992000206888420BD021492068884207D023490B
:109930002068884203D022492068884200D103E091
:10994000FE211B4807F0E5FB94F8390010B92046CA
:1099500000F038F8022084F839002068C06820F44C
:1099600000502168C860204603F010F920680069A3
:1099700020F49040216808612068406920F02A00A6
:10998000216848612068C06840F400502168C860C0
:10999000002084F83A00012084F83900002095E77F
:1099A0000010014000440040004800400014014005
:1099B000FC840108004C004000500040007800404A
:1099C000007C004070470000F7B5044615460027AC
:1099D00094F83970012F01D0122F3DD1019800B1B8
:1099E0000DB90120FEBD00BF94F83800012801D157
:1099F0000220F7E7012084F8380000BF0198A06238
:109A0000A585002084F83A0094F83900122803D183
:109A1000322084F8390002E0222084F839000F480F
:109A2000616BC8630E48616B08640E48616B8864A3
:109A300001AE32682368191D2B46606BFCF784FA6F
:109A40002068406940F040002168486100BF002064
:109A500084F8380000BFC5E70220C3E7F9C9000851
:109A60002DCA0008D5C9000830B50346002493F874
:109A70003940012C01D0122C38D101B10AB9012092
:109A800030BD00BF93F83800012801D10220F7E76C
:109A9000012083F8380000BF99629A85DA8500209A
:109AA00083F83A0093F83900122803D1322083F862
:109AB000390002E0222083F839001868C06840F4B9
:109AC00080701D68E8601868406940F001001D68FA
:109AD000686100BF002083F8380000BF1868C068C4
:109AE00040F020001D68E8600020C9E70220C7E7B9
:109AF00010B504460E492068884203D10020F8F7CB
:109B00003FF914E00B492068884203D10120F8F79F
:109B100037F90CE008492068884202D1F7F7A4FE23
:109B200005E006492068884201D1F7F761FD10BDC4
:109B3000004C004000440040007C004000500040C9
:109B400070472DE9F04704460D46164699464FF0FA
:109B5000000894F83980B8F1010F02D0B8F1220F53
:109B600066D105B116B90120BDE8F08700BF94F8B1
:109B70003800012801D10220F6E7012084F83800DE
:109B800000BF002084F83A0094F83900222803D15D
:109B9000322084F8390002E0122084F83900A684CB
:109BA000E68428E0E08C401EE084A068B0F5805F89
:109BB00014D14B4600228021204603F0FBF908B166
:109BC0000320D1E72F463888C0F308002168486099
:109BD000206908B9AD1C0EE06D1C0CE04B4600225C
:109BE0008021204603F0E6F908B10320BCE715F810
:109BF000010B21684860E08C0028D3DC4B46002232
:109C00004021204603F0D6F908B10320ACE794F8D0
:109C10003900322803D1222084F8390002E00120E3
:109C200084F8390000BF002084F8380000BF9BE7AB
:109C3000022099E7F7B504461546002794F83970D5
:109C4000012F01D0222F3ED1019800B10DB9012082
:109C5000FEBD00BF94F83800012801D10220F7E7CB
:109C6000012084F8380000BF01982062A584E584B3
:109C7000002084F83A0094F83900222803D13220D9
:109C800084F8390002E0122084F839000F48216B73
:109C9000C8630F48216B08640E48216B886401AECD
:109CA00023681A1D31682B46206BFCF74DF920689C
:109CB000406940F080002168486100BF002084F8BE
:109CC000380000BFC4E70220C2E700003BCA00081A
:109CD0008DCA0008D5C9000830B50346002493F8A2
:109CE0003940012C01D0222C38D101B10AB9012010
:109CF00030BD00BF93F83800012801D10220F7E7FA
:109D0000012083F8380000BF19629A84DA840020A9
:109D100083F83A0093F83900222803D1322083F8DF
:109D2000390002E0122083F839001868C06840F456
:109D300080701D68E8601868406940F001001D6887
:109D4000686100BF002083F8380000BF1868C06851
:109D500040F040001D68E8600020C9E70220C7E726
:109D600010B504460B492068884203D10020F8F75B
:109D70001DF80DE008492068884203D10120F8F75A
:109D800015F805E005492068884201D1F7F766FC1F
:109D900010BD0000004C0040004400400050004056
:109DA000704770B506460C46356805F5A06000EBB7
:109DB0004410806800F0040090B1042105F5A06013
:109DC00000EB4410816005F5A06000EB4410C06812
:109DD00040F0020105F5A06000EB4410C16069E0AD
:109DE00005F5A06000EB4410806800F0200030B161
:109DF000202105F5A06000EB441081605AE005F5D4
:109E0000A06000EB4410806800F0080028B305F55E
:109E1000A06000EB4410C06840F0020105F5A060AE
:109E200000EB4410C160052104EB840206F1300010
:109E300000EBC20080F82510102105F5A06000EBB2
:109E400044108160082105F5A06000EB441081609A
:109E50002146306805F0D8F92CE005F5A06000EB4C
:109E60004410806800F4806020B305F5A06000EB2A
:109E70004410C06840F0020105F5A06000EB4410FA
:109E8000C1602146306805F0BFF9102105F5A060DA
:109E900000EB44108160082104EB840206F13000DD
:109EA00000EBC20080F82510C90105F5A06000EBA9
:109EB0004410816005F5A06000EB4410806800F458
:109EC0000070B8B105F5A06000EB4410C06840F028
:109ED000020105F5A06000EB4410C1602146306826
:109EE00005F092F94FF4007105F5A06000EB441005
:109EF0008160F1E105F5A06000EB4410806800F09E
:109F0000010000287CD03069A8B104EB840106F17F
:109F1000300000EBC100016905F5A06000EB4410C2
:109F20000069C0F31200091A04EB840206F1300044
:109F300000EBC2004161012104EB840206F1300014
:109F400000EBC20080F82510002104EB840206F12A
:109F5000300000EBC2000162012105F5A06000EBBA
:109F60004410816004EB840106F1300000EBC10075
:109F7000C079B0B905F5A06000EB4410C06840F0AE
:109F8000020105F5A06000EB4410C1602146306875
:109F900005F03AF9102105F5A06000EB441081604E
:109FA0003DE004EB840106F1300000EBC100C07914
:109FB000032811D004EB840106F1300000EBC1004E
:109FC000C079012808D004EB840106F1300000EBD1
:109FD000C100C079022822D105F5A06000EB441031
:109FE000006840F0005105F5A06000EB44100160EE
:109FF000012104EB840206F1300000EBC20000E016
:10A000001EE080F8241004EB840106F1300000EB20
:10A01000C10090F8242021463046FCF7A6FB04EB53
:10A02000840106F1300000EBC100007E80F00101E8
:10A0300004EB840206F1300000EBC20001764BE134
:10A0400005F5A06000EB4410806800F002000028D5
:10A0500071D005F5A06000EB4410C06820F002014B
:10A0600005F5A06000EB4410C16004EB840106F12B
:10A07000300000EBC10090F82500012809D1012132
:10A0800004EB840206F1300000EBC20080F82410DB
:10A0900073E004EB840106F1300000EBC10090F89E
:10A0A0002500052809D1052104EB840206F13000C2
:10A0B00000EBC20080F824105FE004EB840106F19D
:10A0C000300000EBC10090F82500062809D004EB11
:10A0D000840106F1300000EBC10090F8250008284B
:10A0E0004BD104EB840106F1300000EBC10004EB1E
:10A0F0008401026A06F1300000EBC100006A401CD6
:10A1000004EB840306F1300101EBC3010862032A6A
:10A1100012D9002104EB840206F1300000EBC200EA
:10A120000162042104EB840206F1300000EBC2005E
:10A1300080F8241009E033E0022104EB840206F1E8
:10A14000300000EBC20080F8241005F5A06000EBA1
:10A150004410006820F0804105F5A06000EB441039
:10A16000016005F5A06000EB4410006840F000417C
:10A1700005F5A06000EB44100160022105F5A06028
:10A1800000EB4410816004EB840106F1300000EB29
:10A19000C10090F8242021463046FCF7E6FA9BE007
:10A1A00005F5A06000EB4410806800F0800070B3FB
:10A1B00005F5A06000EB4410C06840F0020105F511
:10A1C000A06000EB4410C16004EB840106F1300094
:10A1D00000EBC100006A401C04EB840206F1300170
:10A1E00001EBC2010862062104EB840206F1300093
:10A1F00000EBC20080F825102146306805F004F815
:10A20000802105F5A06000EB4410816064E005F555
:10A21000A06000EB4410806800F01000E8B304EB8D
:10A22000840106F1300000EBC100C079032808D09A
:10A2300004EB840106F1300000EBC100C079012875
:10A2400010D105F5A06000EB4410C06840F0020199
:10A2500005F5A06000EB4410C1602146306804F0B1
:10A26000D3FF2AE004EB840106F1300000EBC100CB
:10A27000C07940B104EB840106F1300000EBC1006D
:10A28000C079022819D105F5A06000EB44100068E0
:10A2900020F0804105F5A06000E01DE000EB4410D7
:10A2A000016005F5A06000EB4410006840F000413B
:10A2B00005F5A06000EB44100160032104EB84026B
:10A2C00006F1300000EBC20080F82510102105F5E2
:10A2D000A06000EB4410816070BD70B506460C466E
:10A2E000356805F5A06000EB4410806800F00400BC
:10A2F00090B1042105F5A06000EB4410816005F5E4
:10A30000A06000EB4410C06840F0020105F5A060B9
:10A3100000EB4410C1605EE205F5A06000EB441064
:10A32000806800F0200088B3202105F5A06000EBD4
:10A330004410816004EB840106F1300000EBC100A1
:10A3400040790128E7D1042104EB840206F13000B2
:10A3500000EBC20080F8251005F5A06000EB44106A
:10A36000C06840F0020105F5A06000EB4410C16038
:10A370002146306804F048FF022104EB840206F114
:10A38000300000EBC20080F8241024E2FFE705F55E
:10A39000A06000EB4410806800F0400038B3042156
:10A3A00004EB840206F1300000EBC20080F82510B7
:10A3B000002104EB840206F1300000EBC2000162D0
:10A3C00005F5A06000EB4410C06840F0020105F5FF
:10A3D000A06000EB4410C1602146306804F014FF17
:10A3E000402105F5A06000EB44108160F3E105F524
:10A3F000A06000EB4410806800F40070B8B105F56F
:10A40000A06000EB4410C06840F0020105F5A060B8
:10A4100000EB4410C1602146306804F0F5FE4FF4B3
:10A42000007105F5A06000EB44108160D3E105F5F3
:10A43000A06000EB4410806800F0010030B3002100
:10A4400004EB840206F1300000EBC200016205F566
:10A45000A06000EB4410C06840F0020105F5A06068
:10A4600000EB4410C1602146306804F0CDFE0121AC
:10A4700005F5A06000EB4410816004EB840206F156
:10A48000300000EBC20080F82510A4E105F5A060C3
:10A4900000EB4410806800F00800F8B1082105F5D1
:10A4A000A06000EB4410816005F5A06000EB441053
:10A4B000C06840F0020105F5A06000EB4410C160E7
:10A4C0002146306804F0A0FE052104EB840206F169
:10A4D000300000EBC20080F825107CE105F5A0609B
:10A4E00000EB4410806800F0100038B3002104EB4A
:10A4F000840206F1300000EBC200016205F5A060A5
:10A5000000EB4410C06840F0020105F5A06000EBCC
:10A510004410C1602146306804F076FE032104EB4C
:10A52000840206F1300000EBC20080F825101021F3
:10A5300005F5A06000EB441081604CE105F5A060DA
:10A5400000EB4410806800F08000F8B105F5A060D1
:10A5500000EB4410C06840F0020105F5A06000EB7C
:10A560004410C1602146306804F04EFE062104EB21
:10A57000840206F1300000EBC20080F82510802133
:10A5800005F5A06000EB4410816024E105F5A060B2
:10A5900000EB4410806800F4806028B305F5A060EB
:10A5A00000EB4410C06840F0020105F5A06000EB2C
:10A5B0004410C1602146306804F026FE102105F5E4
:10A5C000A06000EB44108160890105F5A06000EBFC
:10A5D00044108160082104EB840206F1300000EB96
:10A5E000C20080F82510F6E005F5A06000EB4410ED
:10A5F000806800F0020000289FD005F5A06000EB05
:10A600004410C06820F0020105F5A06000EB441082
:10A61000C16004EB840106F1300000EBC10090F84A
:10A620002500012822D1012104EB840206F130002B
:10A6300000EBC20080F8241004EB840106F1300026
:10A6400000EBC100C07902280FD104EB840106F1B0
:10A65000300000EBC100407E80F0010104EB840279
:10A6600006F1300000EBC2004176A2E004EB840169
:10A6700006F1300000EBC10090F82500032809D155
:10A68000022104EB840206F1300000EBC20080F8E6
:10A6900024108EE004EB840106F1300000EBC100D1
:10A6A00090F82500042811D1022104EB840206F160
:10A6B000300000EBC20080F82410002104EB84027B
:10A6C00006F1300000EBC200417172E004EB84013E
:10A6D00006F1300000EBC10090F82500052809D1F3
:10A6E000052104EB840206F1300000EBC20080F883
:10A6F00024105EE004EB840106F1300000EBC100A1
:10A7000090F82500062809D004EB840106F13000FA
:10A7100000EBC10090F8250008284AD104EB840121
:10A7200006F1300000EBC10004EB8401026A06F17F
:10A73000300000EBC100006A401C04EB840306F10A
:10A74000300101EBC3010862032A11D9002104EB97
:10A75000840206F1300000EBC2000162042104EB28
:10A76000840206F1300000EBC20080F8241008E0FB
:10A77000022104EB840206F1300000EBC20080F8F5
:10A78000241005F5A06000EB4410006820F0804123
:10A7900005F5A06000EB4410016005F5A06000EB3A
:10A7A0004410006840F0004105F5A06000EB441043
:10A7B0000160022105F5A06000EB4410816004EB0C
:10A7C000840106F1300000EBC10090F824202146FE
:10A7D0003046FBF7CAFF70BD7CB504462568D5F846
:10A7E00040040190D5F840040090009820F02E001D
:10A7F0000090019800F00200022810D1019800F0AA
:10A80000010040B12068806920F000502168886113
:10A810002046FBF7FBFE009840F0020000900198F4
:10A8200000F0080008283BD1009840F00800009094
:10A83000019800F00400042826D1A06902280FD155
:10A84000019800F4C020B0F5802F04D102212068C7
:10A8500004F08EFF0CE00121206804F089FF07E07E
:10A86000E068032804D14EF6602140F204404151D3
:10A870002046FBF7CBFEE06890B92068806940F085
:10A880000050216888610BE0D5F8400420F02E00CC
:10A89000C5F840042068806940F000502168886154
:10A8A000019800F02000202803D1009840F02000FB
:10A8B00000900098C5F840047CBD00002DE9F047E9
:10A8C00005462E680024A0462868D0F8208008F0AD
:10A8D0000F04C8F34349C8F30A17B9F1020F09D0AE
:10A8E000B9F1030F6ED0B9F1050F69D0B9F1070FB7
:10A8F00067D168E0002F62D004EB840105F13000DD
:10A9000000EBC100C068E8B3BAB204EB840C05F1F7
:10A91000300303EBCC03D968286804F04EFF04EB46
:10A92000840105F1300000EBC100C068C11904EBDF
:10A93000840205F1300000EBC200C16004EB840129
:10A9400005F1300000EBC1004069C11904EB84023D
:10A9500005F1300000EBC200416106F5A06000EB9C
:10A96000441000691A49084060B106F5A06000EB88
:10A970004410006820F0804106F5A06000EB441010
:10A98000016000E01BE006F5A06000EB44100068E9
:10A9900040F0004106F5A06000EB4410016004EBBC
:10A9A000840105F1300000EBC100007E80F0010160
:10A9B00004EB840205F1300000EBC200017603E0F5
:10A9C00002E000BF00BF00BF00BFBDE8F08700008D
:10A9D0000000F81F01F0FCF870B504460D4616465D
:10A9E0002068006840F48060216808602068006882
:10A9F00040F4807021680860334600224FF0011156
:10AA0000204600F0CFF908B1032070BD2069B0F5F1
:10AA1000804F05D1E8B240F001002168086143E0B1
:10AA200005F44070F02141EAE010216808613246E7
:10AA30002649204600F01FFA38B194F83600042861
:10AA400001D10120E1E70320DFE7E8B221680861D6
:10AA500032461E49891F204600F00DFA38B194F89D
:10AA60003600042801D10120CFE70320CDE700BF45
:10AA7000206840692068806900BF2068006840F451
:10AA8000807021680860334600224FF00111204693
:10AA900000F088F908B10320B7E705F44070F12110
:10AAA00041EAE0102168086132460849891F2046C2
:10AAB00000F0E1F938B194F83600042801D1012002
:10AAC000A3E70320A1E700209FE7000008000100A2
:10AAD00070B504460D4616462068006840F4807044
:10AAE00021680860334600224FF00111204600F033
:10AAF00059F908B1032070BD2069B0F5804F04D129
:10AB000005F0FE002168086117E005F44070F021AF
:10AB100041EAE0102168086132461049204600F001
:10AB2000AAF938B194F83600042801D10120E2E7EF
:10AB30000320E0E7E8B22168086132460749891F2F
:10AB4000204600F098F938B194F83600042801D175
:10AB50000120D0E70320CEE70020CCE70800010069
:10AB60002DE9F04704460F4615469846DDF820903B
:10AB70004FF00A0A00262068006840F480602168CF
:10AB8000086000BF2068006840F480702168086099
:10AB90004B4600224FF00111204600F003F910B19E
:10ABA0000320BDE8F08707F0FE00216808614A46EF
:10ABB0004349204600F05FF9064686B900BF206889
:10ABC00040692068806900BF4B4600223C497E31C5
:10ABD000204600F0E7F808B10320E2E70BE000F0C0
:10ABE000C7FFAAF10100C0B25FEA000A03D094F8DF
:10ABF00036000428C6D000BF3EB194F836000428C1
:10AC000001D10120CDE70320CBE7B8F1010F03D13B
:10AC1000E8B22168086110E0C5F3072021680861E7
:10AC20004B46002226497E31204600F0BBF808B191
:10AC30000320B6E7E8B2216808614B4600222049AC
:10AC40007E31204600F0AEF808B10320A9E74FF0AE
:10AC50000A0A00BF2068006840F48070216808601C
:10AC60004B4600224FF00111204600F09BF808B13E
:10AC7000032096E7F8B240F00100216808614A46D7
:10AC80000F49204600F0F7F8064606B90BE000F041
:10AC90006FFFAAF10100C0B25FEA000A03D094F886
:10ACA00036000428D6D000BF3EB194F83600042800
:10ACB00001D1012075E7032073E7002071E7000050
:10ACC000020001002DE9F04704460E4615461F46D6
:10ACD000DDF820804FF000094FF00A0A00BF20681D
:10ACE000006840F4807021680860434600224FF0FD
:10ACF0000111204600F056F810B10320BDE8F0879E
:10AD000006F0FE002168086142462549204600F011
:10AD1000B2F88146B9F1000F10D100BF2068406938
:10AD20002068806900BF434600221D497E312046CD
:10AD300000F038F808B10320E0E70BE000F018FF5E
:10AD4000AAF10100C0B25FEA000A03D094F836000D
:10AD50000428C4D000BFB9F1000F07D094F8360022
:10AD6000042801D10120C9E70320C7E7012F03D13F
:10AD7000E8B22168086110E0C5F307202168086186
:10AD80004346002206497E31204600F00BF808B108
:10AD90000320B3E7E8B2216808610020AEE70000B5
:10ADA000020001002DE9F04105460C4617461E46FB
:10ADB0004FF00008FBF724FC00EB06086FBB10E027
:10ADC000701C70B1FBF71CFC40450AD3012085F8CC
:10ADD000350000BF002085F8340000BF0320BDE827
:10ADE000F081C4F3074001280AD128684069A1B264
:10ADF0000840A1B2884201D101200BE0002009E007
:10AE000028688069A1B20840A1B2884201D101201E
:10AE100000E000200028D3D02BE00FE0701C68B1C8
:10AE2000FBF7EEFB404509D3012085F8350000BF54
:10AE3000002085F8340000BF0320D0E7C4F30740AA
:10AE400001280AD128684069A1B20840A1B288420D
:10AE500001D101200BE0002009E028688069A1B23F
:10AE60000840A1B2884201D1012000E00020002862
:10AE7000D4D10020B3E72DE9F04104460D46164633
:10AE80000027FBF7BDFB87192EE020684069C0F35F
:10AE90008020C8B12068006840F400702168086014
:10AEA0002068406920F4806021684861042084F8AB
:10AEB0003600012084F8350000BF002084F83400FB
:10AEC00000BF0120BDE8F081701C68B1FBF798FB62
:10AED000B84209D3012084F8350000BF002084F86F
:10AEE000340000BF0320EDE7C5F3074001280AD175
:10AEF00020684069A9B20840A9B2884201D1012066
:10AF00000BE0002009E020688069A9B20840A9B2DE
:10AF1000884201D1012000E000200028B5D00020A7
:10AF2000D0E7000070B504460D46C4EBC401044AE6
:10AF300002EBC100FBF77CFF204600F003F870BD78
:10AF4000180F002010B50446C4EBC401234A02EBDD
:10AF5000C100FBF7A3FF00283FD1214850F824008F
:10AF6000C4EBC4011D4A42F831001E480068C4EB1E
:10AF7000C40102EBC10148600021C4EBC40002EB34
:10AF8000C0008160C4EBC40002EBC000C1604FF49C
:10AF90008041C4EBC40002EBC00001610021C4EB9E
:10AFA000C40002EBC0004161C4EBC40002EBC0006E
:10AFB0008161C4EBC40002EBC000C161C4EBC400FA
:10AFC00002EBC0000162204600F060F8C4EBC4014F
:10AFD000024A02EBC100FBF765FF10BD180F00200D
:10AFE00090020020A002002070B504460D461646CF
:10AFF000C4EBC401044A02EBC1004FF47A73324639
:10B000002946FCF753F870BD180F00202DE9F843CE
:10B0100004460E461746984600254FF47A70C4EB56
:10B02000C401094A009002EBC10043463A4631464A
:10B03000FCF7F4F805461DB131462046FFF772FFD4
:10B040002846BDE8F8830000180F00202DE9F843DA
:10B0500004460E461746984600254FF47A70C4EB16
:10B06000C401094A009002EBC10043463A4631460A
:10B07000FCF7ECF905461DB131462046FFF752FFBB
:10B080002846BDE8F8830000180F002010B586B0F0
:10B09000044634B94E48006840F002004C4908604C
:10B0A00009E0012C06D14A48006840F020004849D8
:10B0B000086000E000BF474830F8140001901220FB
:10B0C00002900020039002200490434830F81400BE
:10B0D0000590424951F8240001A9FAF7B7FF40480A
:10B0E00030F8140001903D4951F8240001A9FAF705
:10B0F000ADFF44B936481030006840F400103449C0
:10B10000103108600BE0012C08D131481030006884
:10B1100040F480002E491031086000E000BF44B9BF
:10B120002B481038006840F4001029491039086095
:10B130000BE0012C08D126481038006840F480004C
:10B1400023491039086000E000BF44B92048103896
:10B15000006820F400101E49103908600BE0012C33
:10B1600008D11B481038006820F4800018491039B5
:10B17000086000E000BF1B4911F8141048B200221B
:10B180000521FCF749FE174911F8141048B2FCF7E5
:10B1900036FE154911F8141048B200220521FCF7BB
:10B1A0003BFE114911F8141048B2FCF728FEC4EB1D
:10B1B000C4010E4A02EBC100FBF774FE28B140F255
:10B1C0000D220BA118A004F036FE06B010BD000041
:10B1D000303802406C7C0108687C0108980200202D
:10B1E000707C0108747C0108787C0108180F00202D
:10B1F0002E2E5C2E2E5C2E2E5C2E2E5C2E2E5C2E89
:10B200002E5C447269766572735C4253505C476190
:10B2100074657761795C676174657761795F626F86
:10B220006172642E63000000300000002DE9FF41D0
:10B2300004460D4616460027002003904FF47A700E
:10B24000012103AACDE900210290C4EBC401094AFF
:10B2500002EBC100012332462946FCF783F9074679
:10B260001FB129462046FFF75DFE9DF80C0004B093
:10B27000BDE8F081180F00202DE9FE4F04460E4670
:10B2800017469846DDE90C9A00254FF47A70C4EB16
:10B29000C4010A4ACDE9009A029002EBC10043467C
:10B2A0003A463146FCF75EF905461DB13146204667
:10B2B000FFF738FE2846BDE8FE8F0000180F00207B
:10B2C000FFB583B004460D46164600274FF47A704A
:10B2D000012106AACDE900210290C4EBC401084A6D
:10B2E00002EBC100012332462946FCF75FFA07460C
:10B2F0001FB129462046FFF715FE07B0F0BD00003C
:10B30000180F00202DE9FE4F04460E4617469846BA
:10B31000DDE90C9A00254FF47A70C4EBC4010A4AA7
:10B32000CDE9009A029002EBC10043463A4631460D
:10B33000FCF73CFA05461DB131462046FFF7F2FD09
:10B340002846BDE8FE8F0000180F002070B50546A6
:10B35000AC6B002024F82A0F20810120E074207DAE
:10B3600040F0200020752A3C2046FCF7B9FA70BD59
:10B3700070B50546AC6B2868006800F4807038BB77
:10B38000002060852068406820F002002168486045
:10B39000206A012813D112492068884201D111483E
:10B3A00001E04FF04020406820F001000C4A216885
:10B3B000914201D10B4901E04FF04021486094F8DF
:10B3C0003D00322805D1608E10B9012084F83D007F
:10B3D00002E0012084F83D002046FCF793FC70BD9C
:10B3E000003800400034004070B50446A56B284684
:10B3F000FCF78DFC70BD000010B504460F481049E5
:10B40000086008460068C06920F480600968C86167
:10B410004FF400700A4948601021094881600021FA
:10B42000C160446181610161FCF75FFA08B900F015
:10B4300009F80348FCF75EFA10BD00000038004030
:10B44000900C002010B586B0394C3A48006840F4A2
:10B4500080403849086037481038006840F00200E2
:10B460003449103908600846006840F0040008605C
:10B470000815019002200290002003900220049001
:10B480000520059001A92C48FAF7E0FD082001905D
:10B4900001A92A48FAF7DAFD4FF48050019001A97A
:10B4A0002548FAF7D3FD4020019001A92348FAF777
:10B4B000CDFD20481038006840F400101D491039B7
:10B4C00008601F492068884227D100201D49486034
:10B4D00040211C4881600021C1604FF480610161FE
:10B4E00049004161890081610021C1614FF400314F
:10B4F000016204214162032181620021C162016372
:10B5000011481049086000BF08466063846300BFAB
:10B51000F7F722F80B48FAF7BBFB002205210F20B2
:10B52000FCF77AFC0F20FCF76AFC06B010BD0000A7
:10B53000900C002040380240000402400008024005
:10B5400000380040D00C00207060024010B5002090
:10B55000F6F7AEFA0120F6F7ABFA0220F6F7A8FAF2
:10B560000320F6F7A5FA0420F6F7A2FAF6F782FA16
:10B57000F6F77AFA00F0C6FB0D480E4908604AF665
:10B5800044423C210120F5F743FEF6F70DFD3F2034
:10B59000F6F728FD012142F26660F6F733FDF5F774
:10B5A00013FF012004490870F6F7FCFD10BD0000F0
:10B5B000801A0600A00200201D00002070B505467C
:10B5C0000E46D5F8AC02C46994F84B0020B30320B2
:10B5D0006075002161822182002020750F4908706A
:10B5E0000F48007838B94FF45C600AF033F8E06037
:10B5F00001200B4908700120A07284F84A00094814
:10B60000E064E06C0022552103683046984708B199
:10B61000022070BD0120A0770020FAE73B00002047
:10B62000FE0200205C00002000B591B001208DF8E2
:10B63000180005208DF819004FF40070ADF81C00BB
:10B640004FF4FA60ADF81E000A20ADF82000032088
:10B650008DF81B0014208DF81A0002208DF82200AE
:10B6600001208DF82600002106A8C1730121017474
:10B670000221417481740121C17409480221002210
:10B68000084BCDE90132CDE903100748074B084AC2
:10B690000021009006A807F029FF11B000BD0000AE
:10B6A0002E140020F536010835240108352701083D
:10B6B0009D3701082DE9F04107460D46D7F8AC0249
:10B6C000C4694FF00008A8884AF60422811A904203
:10B6D0004CD016DC41F60352A0EB0201904251D04F
:10B6E00008DCB0F5E85F47D0A0F5E8500238002844
:10B6F0007DD14DE0A1F50C41FD3981B10229F7D191
:10B7000021E001292BD0A1F53C50FD3800284FD075
:10B71000A0F6FF7000286BD00128E9D194E009F071
:10B72000C1FC012808D1504809F02EFDE0654E48C3
:10B730000088A4F8600005E040F2AC624B494CA0E0
:10B7400004F079FB8DE0D5F8062051681288121FAD
:10B7500090B204F1600209F085FDE06581E000200F
:10B76000E065A16E481CFAF743FC7AE040F2BB6248
:10B770003E493FA004F05FFB04F1600009F0D4FCF7
:10B78000E0656EE040F2C462384939A004F053FB32
:10B7900004F1600101200BF091F9E065012084F8CB
:10B7A0006C00FAF72DFF60660020F6F7DDF958E02F
:10B7B000D5F8060040680678062E02D14FF4FA4804
:10B7C00008E0072E02D14AF6444803E0082E01D1D2
:10B7D0004BF680382748007838B10020254908709A
:10B7E0004AF644413846FFF7E9FE022001E037E01F
:10B7F00014E084F86C002048007840B100201E4915
:10B80000087004F160000BF0D9F8E06505E0002055
:10B81000E065A16E481CFAF7EBFB22E0D5F80600C4
:10B8200040688079D5F806104968497940EA0120D6
:10B83000124908800120124908700020E065A16EBD
:10B84000481CFAF7D5FB0CE00020E065A16E481C0F
:10B85000FAF7CEFB00200B4908700949087000E098
:10B8600000BF00BFBDE8F0812C00002090850108DA
:10B8700030000000FD0200202C0300200003002007
:10B88000FC0200202E00002070B50546D5F8AC0261
:10B89000C469002694F84A0001284CD1A07F0128F1
:10B8A00002D0022845D10BE0637F228B2449284631
:10B8B00003F010F80220A077D5F8F002606339E0B9
:10B8C000617F284603F098F8012813D11D490870BC
:10B8D000FAF796FE1C490860617F284603F06AF873
:10B8E00086B226B1324616492846F6F747FD0120B2
:10B8F000A0771DE013480078D0B1FAF781FE124915
:10B900000968401AC82813D900200E49087000BFE2
:10B91000BFF34F8F0D48006800F4E0600C49084306
:10B92000001D0A490860BFF34F8F00BF00BFFEE74C
:10B9300000E000BF03E0FAF763FE0349086070BD52
:10B9400090110020FF020020280300200CED00E0F1
:10B950000000FA0570B50546D5F8AC02C4690026AA
:10B9600094F82200032802D004282AD10EE02A20CD
:10B97000035D2620025D2846A16B02F096FF04209D
:10B9800084F82200D5F8F00220631BE02A20015D34
:10B99000284603F031F80646012E06D1002084F82F
:10B9A0002200012084F848000AE0052E08D194F80E
:10B9B0002410284601F0D0FF10B9032084F822009B
:10B9C00000E000BF00BF70BDF8B50546D5F8AC0279
:10B9D000C4690027012694F82100012819D194F8A0
:10B9E000440010B9012084F8440094F8400000900D
:10B9F00094F8552002212846E36B02F0F1FE06463A
:10BA00003EB9002084F8440084F82100012084F825
:10BA10004700F8BDD0F8AC22D169052281F820207A
:10BA20007047D0F8AC22D169012281F84A207047D2
:10BA3000D0F8AC22D169002281F84A20704700007A
:10BA400000200B49087007204870002088700948C2
:10BA5000486009488860042008730721044841733E
:10BA60000121817305490161054941617047000069
:10BA7000080B0020A40000200D550108AB00002099
:10BA800021550108F8B506460D463F2D1CDC284619
:10BA9000F6F71EFD04461F2C03DC02200B4908703C
:10BAA00008E02F2C03DC04200849087002E008207D
:10BAB0000649087055208DF800008DF801400222DB
:10BAC00069463046F6F7D8F8F8BD0000B902002004
:10BAD00030B503460C4600200021E2B209E09D5C2F
:10BAE0000D44A9B2FF2902DDA1F1FF05A9B2551C41
:10BAF000EAB2092AF3DDC8B280F0FF0030BD10B50C
:10BB00000020FFF71FFA10BD70B504460D462A4607
:10BB100021460020FFF768FA70BD70B504460D4657
:10BB2000EAB221460020FFF781FB70BD2DE9FC4100
:10BB300004460D4616461F46B8B2E1B201232A4616
:10BB4000CDE900600020FFF797FBBDE8FC812DE9FF
:10BB5000FC4104460D4616461F46B8B2E1B2012329
:10BB60002A46CDE900600020FFF7CCFBBDE8FC8150
:10BB700070B5FAF745FD054643F6982400BF20004E
:10BB8000A4F101018CB2FAD1FAF73AFD054600BFE3
:10BB900070BD00F01DF8704702480068C0F3022035
:10BBA000704700000CED00E010B5002807DA0A0726
:10BBB000140E054A00F00F031B1FD45403E00A07BC
:10BBC000130E024A135410BD18ED00E000E400E02B
:10BBD000BFF34F8F0648006800F4E0600549084352
:10BBE000001D03490860BFF34F8F00BFFEE7000050
:10BBF0000CED00E00000FA05BFF34F8F0648006827
:10BC000000F4E06005490843001D03490860BFF3E4
:10BC10004F8F00BFFEE700000CED00E00000FA05CA
:10BC200070B52DED068B04460D46002601201B49FC
:10BC30000870072D28D2DFE805F008230A05042440
:10BC4000250000BFA4F1280622E0A60820E0204637
:10BC5000F4F782FD41EC1A0B9FED110B53EC102B06
:10BC6000F4F799FC41EC190B9FED0F0B53EC102BE3
:10BC7000F4F703FD41EC180BF4F77BFD064607E0F3
:10BC800000BF00BF264603E0FF200449087000BF44
:10BC900000BF3046BDEC068B70BD00007500002073
:10BCA00000000000000059400000000000E06F406C
:10BCB0007FB50DF10605FF20114908706946012086
:10BCC000F5F7A0FDD0B99DF80300801EC6B29DF81F
:10BCD00005000AF00BFE0A4908702C7803E02402E4
:10BCE0006D1C28780443701EC0B20600F7D10448CA
:10BCF00001782046FFF794FF04B070BD0020FBE7F9
:10BD0000760000201CB50120F5F70EFD0020009004
:10BD100003460246042101900120F5F74FFD074933
:10BD20000120F5F737FD002000900346024601464A
:10BD300001900120F5F742FD1CBD000020A1070085
:10BD400010B586B0044640F2DF70CDF81300002035
:10BD50008DF8080008208DF80A0002208DF80B00ED
:10BD600001218DF80C10072C21D2DFE804F0080C1B
:10BD70001C180410140005218DF80D101BE00C2177
:10BD80008DF80D1017E00D218DF80D1013E01F2117
:10BD90008DF80D100FE031218DF80D100BE04621CC
:10BDA0008DF80D1007E02F218DF80D1003E0FF2115
:10BDB0008DF80D1000BF00BF55218DF80E108DF8C5
:10BDC0000F108DF810108DF811108DF812104FF41F
:10BDD0007A700190BDF81400ADF800009DF81600CF
:10BDE0008DF80200012002A90EC9F5F721FD06B069
:10BDF00010BD000010B53848007830B101280DD0D2
:10BE0000022818D0032865D143E03448007808B1EF
:10BE1000012000E00020304908705BE030480078E5
:10BE2000FFF78EFF2D48007808B1022000E00020C7
:10BE3000294908704EE0FFF73BFF2A49284A12784B
:10BE400041F82200284890F900002849244A127835
:10BE5000885423480078062803DA21480078401CDB
:10BE600000E000201E4908700846007840B11B48D9
:10BE7000007808B1012000E000201749087007E0B1
:10BE80001648007808B1032000E00020124908702D
:10BE900020E006201649087003204870881C0AF02C
:10BEA0004DFE1449086008460078801C124908704D
:10BEB0001248FFF7AFFD0E48F5F706FC074800787B
:10BEC00008B1012000E00020034908700120F5F7C7
:10BED0005BFE00BF00BF10BD400000202E00002010
:10BEE0004100002048080020760000202F0000209C
:10BEF000080800200C00002005000020B4040020E9
:10BF000010B50248FAF766FD10BD00006408002075
:10BF100010B50248FAF75EFD10BD0000640800206D
:10BF20002DE9F041002700254FF0FF3800248A4812
:10BF3000D0F8AC028949884203D18748D0F8AC02D6
:10BF4000C469874800780A287AD2DFE800F0FD0546
:10BF5000B7FDFDFDC8EAFDFC81484078072870D296
:10BF6000DFE800F0A90431394F708F007A48D0F82B
:10BF7000AC027C49884203D17748F5F714F802E017
:10BF80007548FFF755FD7848007868B90120764973
:10BF900008707148D0F8AC027249884204D1F6F7B3
:10BFA00003F83C20F6F71EF80220F5F799F9012076
:10BFB0006E490870487002206D49087014B1052060
:10BFC00084F8200078E00120684908700220487059
:10BFD0006749087070E040216448F4F796FA012040
:10BFE0006249087003204870881CF5F7D1FF5F484C
:10BFF000F4F7B4FA5E49087014B1052084F8200003
:10C000005AE040215948F4F780FA01205749087056
:10C01000042048700120F5F7D9FF0A2190FBF1F6C2
:10C02000324654A15148801C03F0CAFE4F48F4F731
:10C0300095FA4F49087014B1052084F820003BE0C0
:10C0400082E038E040214948F4F75FFA012047498F
:10C050000870052048700020F5F7B8FF0A2190FB12
:10C06000F1F6324643A14148801C03F0A9FE3F4847
:10C07000F4F774FA3E49087014B1052084F82000E2
:10C080001AE0012039490870062048703448817848
:10C09000C07861F31F20054645B105EB85014FF6D9
:10C0A000FF7202EA41000121F5F7ACFF14B105204F
:10C0B00084F8200000E000BF00BF46E00120F5F753
:10C0C0000FF92548D0F8AC022449884203D1224810
:10C0D000FFF7A7FC02E02048F4F75EFF35E02048B8
:10C0E0004078012802D0022818D10BE006201F4911
:10C0F00008700320487002201D49087001201E4965
:10C1000008700CE0062019490870032048700220CE
:10C110001749087000201849087000E000BF00BFF0
:10C1200013E00F484078012803D0022809D104E029
:10C1300009E001201149087003E000200F49087050
:10C1400000BF00BF01E000E000BF00BF4021044885
:10C15000F4F7DBF9BDE8F081B4040020040300200B
:10C16000C80700202C0400204200002008080020FE
:10C1700005000020256423002E000020FC02002082
:10C18000704700002DE9F04104460F4657B10421E5
:10C190001348FAF77FF9054601211148FAF77AF9B1
:10C1A00006460AE008210E48FAF774F905464FF4EE
:10C1B00000610C48FAF76EF906460B480078854294
:10C1C0000CD009480570007840B9012E03D12068D1
:10C1D000401C206002E02068401E2060BDE8F08125
:10C1E0000020024000040240B80200202DE9F04186
:10C1F00004460D4617461E464FF00008FAF700FAAF
:10C2000000EB06087FBB30E0701C68B3FAF7F8F962
:10C2100040452AD32068406820F0E000216848604B
:10C220002068006820F0400021680860A06AB0F52E
:10C23000005F0DD100BF2068006820F40050216825
:10C2400008602068006840F400502168086000BF62
:10C25000012084F8510000BF002084F8500000BF86
:10C260000320BDE8F0810BE0FFE7206880682840EC
:10C27000A84201D1012000E000200028C4D038E00D
:10C280002DE0701C58B3FAF7BBF9404527D320685E
:10C29000406820F0E000216848602068006820F0D5
:10C2A000400021680860A06AB0F5005F0DD100BFB2
:10C2B0002068006820F40050216808602068006849
:10C2C00040F400502168086000BF012084F851004C
:10C2D00000BF002084F8500000BF0320C1E72068A1
:10C2E00080682840A84201D1012000E000200028F9
:10C2F000C7D10020B5E7704710B50446C4EBC401B0
:10C3000001EB4101394A02EB8100FCF791FD002865
:10C310006BD1374850F82400C4EBC40101EB410154
:10C32000324A42F821001021C4EBC40000EB400067
:10C3300002EB8000C1610021C4EBC40000EB4000AF
:10C3400002EB80008160C4EBC40000EB400002EB14
:10C3500080004161C4EBC40000EB400002EB8000B0
:10C360000161C4EBC40000EB400002EB800081627D
:10C370000721C4EBC40000EB400002EB8000C16267
:10C380000021C4EBC40000EB400002EB8000C16060
:10C39000C4EBC40000EB400002EB800001624FF4EC
:10C3A0000071C4EBC40000EB400002EB800081612F
:10C3B0000021C4EBC40000EB400002EB80004162AE
:10C3C0004FF48270C4EBC40101EB410102EB810127
:10C3D0004860204600F00EF8C4EBC40101EB4101B7
:10C3E000024A02EB8100FCF727FD10BD200D002062
:10C3F0001802002010B586B0044634B9AD48006874
:10C4000040F00800AB4908602DE0012C06D1A94896
:10C41000006840F04000A749086024E0022C06D1E3
:10C42000A448006840F02000A24908601BE0032CEB
:10C4300006D1A048006840F010009E49086012E054
:10C44000042C06D19B48006840F48070994908602C
:10C4500009E0052C06D19748006840F00200954994
:10C46000086000E000BF34B99248006840F008005E
:10C47000904908602DE0012C06D18E48006840F0FC
:10C4800040008C49086024E0022C06D189480068ED
:10C4900040F02000874908601BE0032C06D1854846
:10C4A000006840F010008349086012E0042C06D1B7
:10C4B0008048006840F480707E49086009E0052CDF
:10C4C00006D17C48006840F002007A49086000E02C
:10C4D00000BF34B97748006840F00800754908602B
:10C4E0002DE0012C06D17348006840F040007149EE
:10C4F000086024E0022C06D16E48006840F020005D
:10C500006C4908601BE0032C06D16A48006840F0C3
:10C5100010006849086012E0042C06D165480068E4
:10C5200040F480706349086009E0052C06D1614839
:10C53000006840F002005F49086000E000BF34B9C5
:10C540005C48006840F008005A4908602DE0012C62
:10C5500006D15848006840F040005649086024E081
:10C56000022C06D15348006840F020005149086071
:10C570001BE0032C06D14F48006840F010004D49E5
:10C58000086012E0042C06D14A48006840F480702C
:10C590004849086009E0052C06D14648006840F08B
:10C5A00002004449086000E000BF44B9414810302F
:10C5B000006840F480403F491031086037E0012CAA
:10C5C00008D13C481430006840F400103949143157
:10C5D00008602CE0022C08D136481430006840F482
:10C5E000801034491431086021E0032C08D131480F
:10C5F0001430006840F400502E491431086016E0F1
:10C60000042C08D12B481030006840F480402949A0
:10C61000103108600BE0052C08D126481030006866
:10C6200040F4804023491031086000E000BF2248F8
:10C6300030F81400019002200290012003900220A3
:10C6400004901E4830F8140005901D4951F824004C
:10C6500001A9F9F7FBFC1B4830F8140001901748BA
:10C6600030F814000590184951F8240001A9F9F791
:10C67000EDFC164830F814000190104830F8140012
:10C680000590134951F8240001A9F9F7DFFC11487E
:10C6900030F8140001900120029000200390022045
:10C6A00004900D4951F8240001A9F9F7CFFC06B018
:10C6B00010BD0000303802402C7C01085C7C010871
:10C6C00030020020387C010848020020447C010828
:10C6D00060020020507C010878020020704710B5ED
:10C6E00004462046F9F784FC10BD000010B5044A4A
:10C6F0009188044A90680122F9F740FF10BD0000BC
:10C70000507C01087802002010B5F9F779FF10BDC0
:10C7100010B503200AF0BCFB0220FFF7EDFD10BDB1
:10C7200008B54FF47A73012269460548FCF757FCB7
:10C7300010B10220FFF7DFFD9DF8000008BD0000EA
:10C74000C80D002070B504460D464FF47A732A4692
:10C7500021460448FCF764FD10B10220FFF7CBFD31
:10C7600070BD0000C80D002010B5044A9188044A2D
:10C7700090680022F9F702FF10BD0000507C01080C
:10C780007802002000B585B01B48006840F4807036
:10C79000194908600846006840F002000860084631
:10C7A000006840F08000086014480190002002906A
:10C7B0000820009069461248F9F748FC00200190D3
:10C7C00002904FF40060009069460E48F9F73EFC75
:10C7D0000020019002904FF40060009069460A48E2
:10C7E000F9F734FC002202210920FBF715FB092090
:10C7F000FBF705FB05B000BD3038024000003110EA
:10C800000020024000040240001C024010B5FBF76B
:10C8100083FA0C48006898B1F9F7F2FE0A490968F2
:10C82000401A0849096888420AD901200749087056
:10C8300007480268034801680648006804F012F8D7
:10C8400010BD00004C0000204800002044000020E3
:10C85000540000205000002000B591B01848006836
:10C8600040F08050164908601648006840F4404087
:10C8700014490860012000900190022006904105B3
:10C880000791192108914FF4A871099102210A9189
:10C8900007210B916846FCF749F80F200C90022005
:10C8A0000D9000200E904FF4A0500F904FF4805048
:10C8B000109005210CA8FBF7ABFD11B000BD0000E6
:10C8C00040380240007000401448006840F4700096
:10C8D000124908601248006840F0010010490860E1
:10C8E00000200F49083108600D4800680D490840D4
:10C8F0000B4908600C48091D0860081F006820F4F7
:10C900008020091F0860002005490C3108604FF0A5
:10C9100000600249803908607047000088ED00E03F
:10C9200000380240FFFFF6FE10300024704710B5BB
:10C9300004462046F9F75CFB10BD10B50020FEF759
:10C9400001FB10BD70B504460D46164633462A4617
:10C9500021460020FEF75AFB70BD70B504460D4617
:10C96000164633462A4621460020FEF76FFB70BD6F
:10C9700000B585B01148006840F008000F49086014
:10C980004FF400500090012001900390002002908D
:10C9900069460B48F9F75AFB00224FF4005108484A
:10C9A000F9F7ECFD4FF4FA70F9F722FB012251037D
:10C9B0000348F9F7E3FD05B000BD00003038024040
:10C9C000000C024010B50248FCF7F0FE10BD00005C
:10C9D0002011002070B50546AC6B00202634208164
:10C9E00020800120E074207D40F010002075263C5E
:10C9F0002046FCF7B7FE70BD70B50546AC6B002055
:10CA0000E0852068406920F040002168486194F882
:10CA10003900322803D1122084F8390002E00120C5
:10CA200084F839002046FDF763F870BD70B5044600
:10CA3000A56B2846FDF784F870BD70B50546AC6B54
:10CA40000020E0842068406920F08000216848616F
:10CA500045F2F05300224021204600F0ABFA30B1FD
:10CA6000032084F839002046FCF77CFE0DE094F8A2
:10CA70003900322803D1222084F8390002E0012055
:10CA800084F839002046FDF76BF970BD70B5044697
:10CA9000A56B2846FDF784F970BD70B504460026E5
:10CAA00094F83960222E01D0322E6DD100BF94F857
:10CAB0003800012801D1022070BD012084F838001F
:10CAC00000BFA068B0F5805F13D1A56A206940B9A6
:10CAD00020684068C0F308002880A06A801CA0621B
:10CAE00019E020684068C0B22880A06A401CA0629B
:10CAF00011E0206938B920684068C1B2A26A501CB0
:10CB0000A062117007E02068406800F07F01A26A0F
:10CB1000501CA0621170E08D401E80B2E08568BBA1
:10CB200000BF2068006800F020000028F9D12068CC
:10CB3000C06820F020002168C86094F839003228CD
:10CB400003D1122084F839000EE02068C06820F478
:10CB500080702168C8602068406920F00100216869
:10CB60004861012084F8390000BF002084F83800B3
:10CB700000BF2046FCF7BCFF00209DE700BF00205F
:10CB800084F8380000BF97E7022095E72DE9F041CF
:10CB900004460025CC49206888421BD0CB49206838
:10CBA000884217D0CA492068884213D0C9492068F2
:10CBB00088420FD0C849206888420BD0C7492068F6
:10CBC000884207D0C6492068884203D0C5492068FA
:10CBD000884200D104E040F2FE61C34804F099FAB3
:10CBE000C2496068884200D204E040F2FF61BE485A
:10CBF00004F08FFAA06818B1A068B0F5805F00D18A
:10CC000004E04FF4E061B84804F083FAE06818B13A
:10CC1000E068B0F5005F00D104E040F20171B24875
:10CC200004F077FA206938B12069B0F5806F03D03D
:10CC30002069B0F5C06F00D104E040F20271AA484B
:10CC400004F067FA4FF6F3716069084010B9606943
:10CC500000B104E040F20371A34804F05AFAA0695D
:10CC600058B1A069B0F5807F07D0A069B0F5007F0A
:10CC700003D0A069B0F5407F00D104E040F2047118
:10CC8000994804F046FAA069A8B18F492068884203
:10CC90000BD08E492068884207D08D492068884291
:10CCA00003D08E492068884200D104E040F2097127
:10CCB0008D4804F02EFA2068056925F44055E06897
:10CCC0000543206805612068C56849F20C6085430A
:10CCD0002169A068084361690843E1690843054385
:10CCE0002068C5602068456925F44075A069054342
:10CCF00020684561E069B0F5004F72D17249206843
:10CD0000884203D075492068884234D1FBF796FDEC
:10CD100000EBC00101EB001061684900B0FBF1F0CD
:10CD20006421B0FBF1F6FBF789FD00EBC00101EBDC
:10CD3000001061684900B0FBF1F7FBF77FFD00EBE5
:10CD4000C00101EB001061684900B0FBF1F0642103
:10CD5000B0FBF1F000EBC00101EB0010A7EB80008D
:10CD6000322101EB00106421B0FBF1F066F31F10DB
:10CD700021688860A6E0FBF74BFD00EBC00101EBEA
:10CD8000001061684900B0FBF1F06421B0FBF1F6DE
:10CD9000FBF73EFD00EBC00101EB001061684900AC
:10CDA000B0FBF1F7FBF734FD00EBC00101EB001025
:10CDB00061684900B0FBF1F06421B0FBF1F000EBD9
:10CDC000C00101EB0010A7EB8000322101EB001045
:10CDD0006421B0FBF1F066F31F102168886071E0F8
:10CDE000FFE739492068884203D03C4920688842DF
:10CDF00034D1FBF723FD00EBC00101EB00106168AB
:10CE00008900B0FBF1F06421B0FBF1F6FBF716FDF1
:10CE100000EBC00101EB001061688900B0FBF1F785
:10CE2000FBF70CFD00EBC00101EB0010616889000D
:10CE3000B0FBF1F06421B0FBF1F000EBC00101EBBD
:10CE40000010A7EB8000322101EB00106421B0FB41
:10CE5000F1F066F31F102168886033E0FBF7D8FC1F
:10CE600000EBC00101EB001061688900B0FBF1F03C
:10CE70006421B0FBF1F6FBF7CBFC00EBC00101EB4A
:10CE8000001061688900B0FBF1F7FBF7C1FC00EB13
:10CE9000C00101EB001061688900B0FBF1F0642172
:10CEA000B0FBF1F000EBC00101EB0010A7EB80003C
:10CEB000322101EB00106421B0FBF1F066F31F108A
:10CEC00021688860BDE8F081001001400044004006
:10CED00000480040004C0040005000400014014059
:10CEE00000780040007C0040FC840108A137A000CD
:10CEF00070B50446002694F83960122E01D0322E07
:10CF000056D100BF94F83800012801D1022070BD2D
:10CF1000012084F8380000BFA068B0F5805F0FD111
:10CF2000256A2888C0F3080021684860206918B97C
:10CF3000206A801C206209E0206A401C206205E013
:10CF4000216A481C2062087821684860E08C401EF5
:10CF500080B2E08430BB2068C06820F040002168C7
:10CF6000C86094F83900322803D1222084F83900AF
:10CF70000EE02068C06820F480702168C8602068D6
:10CF8000406920F0010021684861012084F83900DF
:10CF900000BF002084F8380000BF2046FCF7E0FE08
:10CFA0000020B4E700BF002084F8380000BFAEE7DF
:10CFB0000220ACE72DE9F04104460D4617461E4617
:10CFC0004FF00008F9F71CFB00EB060887BB28E0D0
:10CFD000701C30B3F9F714FB404522D32068C068B9
:10CFE00020F080002168C8602068C06820F0200020
:10CFF0002168C8602068C06820F480702168C8601B
:10D000002068406920F0010021684861012084F80F
:10D01000390000BF002084F8380000BF0320BDE8BD
:10D02000F081206800682840A84202D1012001E078
:10D0300003E000200028CBD032E027E0701C28B3AA
:10D04000F9F7DEFA404521D32068C06820F080005F
:10D050002168C8602068C06820F020002168C8608E
:10D060002068C06820F480702168C860206840692A
:10D0700020F0010021684861012084F8390000BFD8
:10D08000002084F8380000BF0320C8E7206800684B
:10D090002840A84201D1012000E000200028CDD185
:10D0A0000020BCE710B50248FCF780FB10BD000073
:10D0B000D40F00202DE9F04105460E460027D5F893
:10D0C000AC02C46984F83560208E00F5DC602086EF
:10D0D000208EB0F55C6F01D100212186218E608EFB
:10D0E000814205DD218E608E081AB0280AD309E03E
:10D0F000618E208E081AB0F5B07F02D26FF04F0714
:10D1000000E000BF94F8350002280ED1228ED4F83A
:10D110002CC00CEB020007F5DC61E26C9368022284
:10D120009847002084F8350013E094F83500012872
:10D130000FD1B4F8308008EBD871E26A02EB6100DD
:10D14000E16C02228B684FF4DC619847002084F880
:10D150003500BDE8F081000070B505460126D5F820
:10D16000AC02C46994F83F00122875D2DFE800F0E1
:10D1700009183038424C56606A757D8E95A9B3CF38
:10D18000BDCD2846F3F774FD18B10B2084F83F009D
:10D1900005E0012084F83F00002084F85000B7E04B
:10D1A0002846F3F772FF90B994F85000022803DB89
:10D1B000022084F83F000AE094F85000012803DBC5
:10D1C000032084F83F0002E0112084F83F009FE034
:10D1D0002846F3F788FF10B9032084F83F0097E052
:10D1E0004DA200212846F3F765FF10B9042084F80A
:10D1F0003F008DE04BA201212846F3F75BFF10B9F9
:10D20000052084F83F0083E049A202212846F3F775
:10D2100051FF10B9062084F83F0079E04DA20321A8
:10D220002846F3F747FF10B9072084F83F006FE066
:10D23000494A04212846F3F73DFF10B9082084F835
:10D240003F0065E045A205212846F3F733FF10B9FA
:10D25000092084F83F005BE059E02846F3F754FFCB
:10D2600010B90A2084F83F0052E01221284600F04D
:10D270009AFC50B92846F3F7FBFC18B10B2084F850
:10D280003F0002E0112084F83F0041E02846F3F718
:10D2900091FE0C2084F83F003AE03C20005D01281C
:10D2A0000BD13B20025D3A20015D284601F049FE8A
:10D2B00030B90D2084F83F0002E00D2084F83F00D3
:10D2C00026E040F20111284600F0DEF910B90E20E8
:10D2D00084F83F001CE040F20111284600F0E6F916
:10D2E00010B9102084F83F0012E00020F4F73CFC55
:10D2F0000026012004F8400F0020A070607020710B
:10D30000403C2846F3F776FC02E0022600E000BF2E
:10D3100000BF304670BD0000616D6D6C61622E6FA4
:10D320007267000048656C6C6F41444B0000000060
:10D3300048656C6C6F41444B20666F722047522DDC
:10D3400053414B55524120666F722053544D333236
:10D3500046340000312E3000DC890108313233348C
:10D3600035363700F0B501460220D1F8AC62F469D9
:10D370000025002281E002EB820606EBC20701F5E0
:10D380000F7606EB47067679012E74D102EB820602
:10D3900006EBC20701F50F7606EB4706B679022EBB
:10D3A00069D1002365E002EB820606EBC20701F5B6
:10D3B0000F7606EB47060A3606EBC306B67806F08C
:10D3C0008006002E53D002EB820606EBC20701F561
:10D3D0000F7606EB47060A3606EBC306B688002E24
:10D3E00045DD02EB820606EBC20701F50F7606EB80
:10D3F00047060A3606EBC306F67806F00306012E4A
:10D4000035D102EB820606EBC20701F50F7606EB7B
:10D4100047060A3606EBC306B67884F8366002EB98
:10D42000820606EBC20701F50F7606EB47060A36C1
:10D4300006EBC306B788278702EB820606EBC20716
:10D4400001F50F7606EB4706B7783A26375502EB1B
:10D45000820606EBC20701F50F7606EB4706F77862
:10D460003B26375501273C2637556E1CF5B25E1C0E
:10D47000F3B2022B97DB561CF2B2042AFFF67BAF05
:10D48000002D00DD0020F0BDF0B501460220D1F8EE
:10D49000AC62F4690025002277E002EB820606EB1D
:10D4A000C20701F50F7606EB47067679FF2E6AD1A3
:10D4B00002EB820606EBC20701F50F7606EB470684
:10D4C000B679FF2E5FD100235BE002EB820606EB0C
:10D4D000C20701F50F7606EB47060A3606EBC306D0
:10D4E000B67806F08006E6B302EB820606EBC207CA
:10D4F00001F50F7606EB47060A3606EBC306B6883B
:10D50000002E3CDD02EB820606EBC20701F50F762A
:10D5100006EB47060A3606EBC306F67806F0020667
:10D52000022E2CD102EB820606EBC20701F50F7624
:10D5300006EB47060A3606EBC306B678267002EB02
:10D54000820606EBC20701F50F7606EB47060A36A0
:10D5500006EBC306B688668002EB820606EBC207BE
:10D5600000E00CE001F50F7606EB47060A3606EB05
:10D57000C306B6796674012626746E1CF5B25E1C6D
:10D58000F3B2022BA1DB561CF2B2042A85DB002D7C
:10D5900000DD0020F0BDF0B501460220D1F8AC62FC
:10D5A000F4690025002269E002EB820606EBC2075F
:10D5B00001F50F7606EB47067679FF2E5CD102EB7C
:10D5C000820606EBC20701F50F7606EB4706B67931
:10D5D000FF2E51D100234DE002EB820606EBC2077D
:10D5E00001F50F7606EB47060A3606EBC306B6785A
:10D5F00006F08006E6BB02EB820606EBC20701F5E9
:10D600000F7606EB47060A3606EBC306B688002EF1
:10D610002EDD02EB820606EBC20701F50F7606EB64
:10D6200047060A3606EBC306F67806F00206022E17
:10D630001ED102EB820606EBC20701F50F7606EB60
:10D6400047060A3606EBC306B678267502EB820655
:10D6500006EBC20701F50F7606EB47060A3606EB26
:10D66000C306B788E7820127242637556E1CF5B21A
:10D670005E1CF3B2022BAFDB561CF2B2042A93DB22
:10D68000002D00DD0020F0BD70B504460D464021A0
:10D6900021743621617465823B21A1820021E182DF
:10D6A00000221146204600F080F970BD70B5044696
:10D6B0000D46402121743821617465820021A182C8
:10D6C0003B21E1823B220249204600F06EF970BD09
:10D6D0005504002070B50546D5F8AC02C469207920
:10D6E00048B12179284601F00BF92179284600F04C
:10D6F000B9F900202071207E48B1217E284601F032
:10D70000FFF8217E284600F0ADF9002121763D206A
:10D71000005D60B13D20015D284600F014F93D2018
:10D72000015D284600F09EF900213D200155D5F805
:10D73000AC02C06920B1D5F8AC12C86903F020FD75
:10D74000E06A03F01DFD0020F4F7FEF90120F4F774
:10D75000FBF90220F4F7F8F9002070BD70B505461A
:10D760000226582007F076FFD5F8AC12C861D5F82C
:10D77000AC02C469002004F83F0F6070E070A07034
:10D7800020713F3C0749087007490870F4F7DCF93D
:10D790000120F4F7D9F90220F4F7D6F90026304633
:10D7A00070BD000028040020290400202DE9F0416C
:10D7B000044601260027D4F8AC02C56995F840005C
:10D7C00020B1012804D0022816D10BE0002614E075
:10D7D0002046F3F74FFB2046F3F78BFB2046F3F789
:10D7E000D3FA0AE00021204600F0B6F8074617B940
:10D7F000002085F8400000E000BF00BF3046BDE8D3
:10D80000F08130B503460C460120D3F8AC52E969EB
:10D8100091F840501DB191F84050012D0ED191F872
:10D8200042505DB991F8475045B98C60CA600125F6
:10D8300081F84050032581F84250012091F847506B
:10D84000012D03D10020002581F8475030BD02464C
:10D85000D2F8AC02C16991F83E0002280AD1D2F890
:10D86000F0024B6DC31A487C801C834202D3012016
:10D8700081F83E000020704730B503460C46012079
:10D88000D3F8AC52E96991F840501DB191F840507D
:10D89000012D0DD191F8415055B991F846503DB93F
:10D8A000CC610A62012581F8405081F84150012085
:10D8B00091F84650012D03D10020002581F84650F3
:10D8C00030BD70B506460D46304600F021F90446DD
:10D8D0004FF6FF70844205D045F4004106F52D70E7
:10D8E00040F82410E0B270BD2DE9FF4107460C4618
:10D8F00015461E460020012102230A468DE832000B
:10D9000003903146384601F005F9002004B0BDE827
:10D91000F0812DE9FF4104460D4617461E46DDF80D
:10D92000288094F81D0208B14FF00008012002235E
:10D93000002231468DE8A101204601F0EBF80020DD
:10D9400004B0BDE8F08170B504460D462946204676
:10D9500000F0D6FF002070BD70B504460D46A078DB
:10D96000012807D102212174012161740021618203
:10D97000A582E18200221146204600F016F870BD13
:10D980002DE9FF4107460C4615461E4600200121A1
:10D9900003460A468DE8320003903146384601F0CE
:10D9A000B9F8002004B0BDE8F0812DE9F04104464B
:10D9B0000E4617460125A078012802D0022819D169
:10D9C00007E0A660A781012121760220A070012531
:10D9D00011E0204600F019F905462DB90120A0708C
:10D9E00000212176002504E0022D02D10120A07043
:10D9F00000BF00E000BF00BF2846BDE8F0812DE970
:10DA0000FF4104460D4617461E46DDF8288094F86F
:10DA10001D0208B14FF00008012000231A463146CC
:10DA20008DE8A101204601F075F8002004B0BDE8A2
:10DA3000F0817FB506460C46154600200821CDE949
:10DA4000000403460246CDE902102946304601F0A3
:10DA500061F8002004B070BD10B504462046F8F708
:10DA6000C7FA10BD02460B2909DA02F52D7030F80D
:10DA70002100C0F30E0302F52D7040F82130002084
:10DA8000704770B504460D46A078012808D1802162
:10DA900021740821617400216182A1820121E18247
:10DAA000012229462046FFF780FF70BD2DE9F04195
:10DAB00004460E4615461F46DDF81880A07801285A
:10DAC0001FD146F08001217406216174658205F43E
:10DAD0007F40B0F5407F03D140F20941A1820EE0C2
:10DAE00005F47F40B0F5085F04D005F47F40B0F541
:10DAF000045F02D10221A18201E00021A182A4F8E9
:10DB00001680424639462046FFF74FFFBDE8F081B8
:10DB10000246002100BF0AE002F52D7030F8210016
:10DB200000F4004008B908467047481CC1B20B29F0
:10DB3000F2DB4FF6FF70F7E710B502460B8814785A
:10DB400023440B801378981810BDF8B504460D4691
:10DB500004F11C07B4F8280240F2AC51884210D1FD
:10DB60003B4640F20122002120460095FFF79EFF30
:10DB7000060016D12A46394604F2322000F0F6FF9C
:10DB80000FE03B464FF40072002120460095FFF75E
:10DB90008DFF060005D12A46394604F2322000F0F6
:10DBA000E5FF3046F8BDF8B504460D4604F11C0308
:10DBB0004FF48072002120460095FFF777FF0600A2
:10DBC00006D12A4604F11C0104F5087001F03BF867
:10DBD0003046F8BD2DE9F84304460E4617461D466B
:10DBE00046F4407204F11C03002120460095FFF723
:10DBF0005DFF5FEA000805D12A46394604F11C00A2
:10DC000001F070F84046BDE8F883F8B504460127F6
:10DC10000025207E0C2872D2DFE800F0CD060F3000
:10DC20003C4E5C788498A6BB627904F110012046D2
:10DC3000FFF7FFFE02212176BEE06179204600F069
:10DC4000DBFE0546012D14D1207C00F08006E08A21
:10DC500038B1802E02D1032121760EE005212176F4
:10DC60000BE0802E02D10921217606E007212176E2
:10DC700003E0042D01D10B2121769DE0D4F8F002C0
:10DC8000E0812379A2892046A168FFF779FE04216B
:10DC9000217691E02179204600F0AEFE0546012D67
:10DCA00001D109212176052D01D1032703E0042D9F
:10DCB00001D10B2121767FE0012000906379A289B8
:10DCC0002046A168FFF79BFED4F8F002E081062110
:10DCD000217671E06179204600F08EFE0546012D27
:10DCE00002D10721217610E0052D03D10C212176E8
:10DCF00003270AE0022D03D10521217605E05AE031
:10DD0000042D02D10B212176022755E02379002230
:10DD100011462046FFF734FED4F8F002E0810821D6
:10DD2000217649E02179204600F066FE0546012D66
:10DD300003D10D212176002707E0042D02D10B210C
:10DD4000217602E0052D00D1032735E00120009067
:10DD50006379002211462046FFF751FED4F8F00205
:10DD6000E0810A21217627E06179204600F044FE17
:10DD70000546012D03D100270D21217608E0022D53
:10DD800002D10921217603E0042D01D10B21217656
:10DD900012E0607E401CC1B26176022907DC204699
:10DDA00000F0B0FE012121760120A07002E00021E8
:10DDB0006176022700E000BF00BF3846F8BD0000D2
:10DDC0003EB50446012560780A2875D2DFE800F0E8
:10DDD000052B333B436C757E90A208212046FFF74C
:10DDE000E2FEF8B994F82712A17101206070A079C1
:10DDF000002294F81D12CDE90012029094F81C3212
:10DE000021798022204600F09CFEA079002294F81F
:10DE10001D12CDE90012029094F81C32617920465F
:10DE200000F08FFE87E012212046FFF7BCFE08B904
:10DE3000042060707FE00221204601F06EF808B9EE
:10DE40000320607077E03D492046FFF71AFE08B9CD
:10DE5000042060706FE00121204601F04AF810BBF9
:10DE60000220FFF7F9FD012184F81C1205206070E3
:10DE7000A079002294F81D12CDE90012029094F8C6
:10DE80001C3221798022204600F05BFEA07900221E
:10DE900094F81D12CDE90012029094F81C326179B9
:10DEA000204600F04EFE46E009212046FFF74DFED9
:10DEB00008B9062060703EE03CE0B4F83412204619
:10DEC000FFF743FE08B90720607034E094F82E0293
:10DED00058B194F82E12FF2304F11C022046FFF7DC
:10DEE00079FE20B90820607001E00820607022E00F
:10DEF00094F82F0258B194F82F12FF2304F11C025A
:10DF00002046FFF767FE20B90920607001E0092074
:10DF1000607010E094F8300250B194F83012FF2392
:10DF200004F11C022046FFF755FE10B9002500E061
:10DF3000002500E000BF00BF28463EBDE4020020EF
:10DF400010B5044620780A2807D1D4F8AC0220B1D5
:10DF5000D4F8AC0281692046884710BD2DE9F04114
:10DF600005460E460027D5F8AC02C4696675208ABE
:10DF700000F5DC602082208AB0F55C6F01D10021C1
:10DF80002182218A608A814205DD218A608A081AFD
:10DF9000B0280AD309E0618A208A081AB0F5B07F58
:10DFA00002D26FF04F0700E000BF607D02280DD164
:10DFB000228AD4F80CC00CEB020007F5DC61E26C9D
:10DFC0009368022298470020607511E0607D012867
:10DFD0000ED1B4F8108008EBD871E26802EB610052
:10DFE000E16C02228B684FF4DC6198470020607579
:10DFF000BDE8F0812DE9F041054601260127D5F85D
:10E00000AC02C469E07F082838D2DFE800F00438A9
:10E01000190C3737372A1C492846FFF732FD08B953
:10E020000320E0772CE00921284600F050F930B9B0
:10E0300005F11C01204600F039FA0220E0771FE0CC
:10E040002189284600F052F950B90720E0770120D5
:10E0500084F84B00228905F11C01284600F03CFAA7
:10E060000EE0207F012808D1E27EA17E284600F044
:10E0700068FF10B90120E077002601E000BF00BF73
:10E0800000BF3046BDE8F081EA020020F0B501464D
:10E090000220D1F8AC62F469002500227DE002EB99
:10E0A000820606EBC20701F50F7606EB4706767986
:10E0B000012E70D102EB820606EBC20701F50F7646
:10E0C00006EB4706B679022E65D1002361E002EB2C
:10E0D000820606EBC20701F50F7606EB47060A3605
:10E0E00006EBC306B67806F08006002E4FD002EB92
:10E0F000820606EBC20701F50F7606EB47060A36E5
:10E1000006EBC306B688002E41DD02EB820606EB65
:10E11000C20701F50F7606EB47060A3606EBC30683
:10E12000F67806F00306012E31D102EB820606EBEB
:10E13000C20701F50F7606EB47060A3606EBC30663
:10E14000B678A67502EB820606EBC20701F50F76DC
:10E1500006EB47060A3606EBC306B788278302EBB1
:10E16000820606EBC20701F50F7606EB4706B77885
:10E17000A77602EB820606EBC20701F50F7606EBE7
:10E180004706F778E776012727776E1CF5B25E1C05
:10E19000F3B2022B9BDB561CF2B2042AFFF67FAFD0
:10E1A000002D00DD0020F0BDF0B501460220D1F8C1
:10E1B000AC62F4690025002282E002EB820606EBE5
:10E1C000C20701F50F7606EB47067679032E75D167
:10E1D00002EB820606EBC20701F50F7606EB470657
:10E1E000B679002E6AD1002366E002EB820606EBC8
:10E1F000C20701F50F7606EB47060A3606EBC306A3
:10E20000B67806F08006002E54D002EB820606EBAC
:10E21000C20701F50F7606EB47060A3606EBC30682
:10E22000B688002E46DD02EB820606EBC20701F53A
:10E230000F7606EB47060A3606EBC306F678032E82
:10E2400038D102EB820606EBC20701F50F7606EB2A
:10E2500047060A3606EBC306B67884F8246002EB5C
:10E26000820606EBC20701F50F7606EB47060A3673
:10E2700006EBC306B788E78402EB820606EBC2070B
:10E2800001F50F7606EB4706B7782826375502EBDF
:10E29000820606EBC20701F50F7606EB47060A3643
:10E2A00006EBC306B7792B263755012729263755A4
:10E2B0006E1CF5B25E1CF3B2022B96DB561CF2B25A
:10E2C000042AFFF67AAF002D00DD0020F0BDF8B57E
:10E2D00004460D4604F11C034FF40452012120466C
:10E2E0000095FFF7E3FB06463046F8BDF8B5044657
:10E2F0000D4604F11C034FF40852012120460095FD
:10E30000FFF7D4FB06463046F8BD000070B5054661
:10E31000D5F8AC02C4692A20005D60B12A20015DF5
:10E32000284600F0EDFA2A20015D2846FFF79AFB07
:10E3300000212A200155607F48B1617F2846FFF700
:10E3400002FB617F2846FFF78DFB00216177D5F83E
:10E35000AC02C06940B1D5F8AC12C86902F010FF38
:10E360000020D5F8AC12C8610D48006860B1E068C3
:10E3700002F006FF0A490968C86804F06FFA084904
:10E380000968C86804F020FA0020F3F7DDFB0120DB
:10E39000F3F7DAFB0220F3F7D7FB002070BD000093
:10E3A000F8020020FEB5054602267027702007F00F
:10E3B00051F9D5F8AC12C861D5F8AC02C469002097
:10E3C000383404F8180C04F8160C04F8170CE07430
:10E3D0002074E0736076A076E076F8F711F9E062D9
:10E3E000002084F8340084F8350001202C4908709E
:10E3F00000202C4908702C4908706077383CF3F7EE
:10E40000A3FB0120F3F7A0FB0220F3F79DFB2846B6
:10E41000FFF7CAFE00BB2920005D01281CD194F83B
:10E4200024102846FFF74DFA2A210855E08C0322D4
:10E4300095F81D12CDE90012029095F81C3294F85F
:10E4400024202A20015D284600F07BFB2A20015D64
:10E450000022284600F034FB2846FFF717FED0B90B
:10E46000207F012817D1A17D2846FFF72AFA60777F
:10E47000208B012295F81D12CDE90012029095F82B
:10E480001C32A27D617F284600F05BFB617F002289
:10E49000284600F015FB0020E07700263046FEBD40
:10E4A000FD020020FE020020FF0200200A78027018
:10E4B0004A7842708B78CA7803EB022242800A794C
:10E4C00002714A7942718A798271CB790A7A03EBB7
:10E4D000022202817047000070B50346002028E048
:10E4E0000C5C852C23D10C18E4780D186D78124E35
:10E4F00074550C182479822C03D00C182479802CA4
:10E5000005D101240D186D780C4E74550CE00C18D3
:10E510002479922C03D00C182479902C04D1022455
:10E520000D186D78054E7455441DA0B201E0441CD1
:10E53000A0B29042D4DD70BD901300209F13002044
:10E540002DE9FC41054601260027D5F8AC02C46937
:10E55000284608F0E5FC94F85100F8B140227549CE
:10E56000284600F0F3F8C8B9734AA16B1268D06866
:10E57000402208F0DBFB70490968C968886C06F026
:10E5800050FA18B9002084F8510002E0012084F804
:10E590005400012084F852006849087094F8200063
:10E5A000052805D16648007810B901206549087032
:10E5B0006348007810B10020614908705F48007816
:10E5C00048B194F82000022805D000205B4908706B
:10E5D000012084F8200094F8200009287DD2DFE88B
:10E5E00000F0051259988D6DA4A49A00FDF71CF84F
:10E5F000514908600846006804F004FF032084F8CD
:10E600002000002692E04C480068002841D094F891
:10E610005200E0B900214848006804F0BBFF4948B7
:10E620000078F8B100204749087004F1600008F054
:10E6300081F9E06544480021CDE90010B4F860207C
:10E6400002233D48E16D006804F07AFF0AE00020F3
:10E6500084F8520038480068C068816C3648006809
:10E6600004F098FF94F82000022802D0032084F8D8
:10E67000200094F86C0094F95410084310B1002065
:10E6800084F8220094F86D0010B1012084F8510044
:10E6900000264BE02846A16DFDF70CF82A48002122
:10E6A000CDE90010B4F8602001232348E16D006833
:10E6B00004F046FF032084F8200037E0214800786A
:10E6C000D8B100201F49087001201D49087004F1CD
:10E6D000600008F02FF9E06500E026E01A4800210C
:10E6E000CDE90010B4F8602002231348E16D006802
:10E6F00004F026FF012084F8540017E02846FDF7B7
:10E7000029F994F86C00022802D12846FDF7BCF8DC
:10E710000CE000260AE000212846FFF71DF9074615
:10E7200017B9032084F8200000E000BF00BF304686
:10E73000BDE8FC81AE130020F80200207400002028
:10E740002503002024030020A527010830B5034637
:10E750000C460120D3F8AC52E96991F82050032D02
:10E7600003D091F82050042D0ED191F822505DB9BC
:10E7700091F8485045B920318C614A8404250D70C8
:10E7800003258D702039012091F84850012D03D1C7
:10E790000020002581F8485030BD0246D2F8AC0276
:10E7A000C16991F8220004280AD1D2F8F0020B6B5B
:10E7B000C31A2B20405C834202D3032081F822003D
:10E7C000887F02280AD1D2F8F0024B6BC31A2B20A3
:10E7D000405C401C834201D30120887700207047B1
:10E7E0002DE9F04704460E4617469846DDF820907E
:10E7F000D4F8AC02C56995F8440001280ED1212156
:10E8000021740921617447EA062161822820415D53
:10E81000A182A4F81690022085F844004A46414699
:10E820002046FFF7C2F8BDE8F08730B503460C4636
:10E830000120D3F8AC52E96991F82050032D03D0A0
:10E8400091F82050042D0ED191F821505DB991F826
:10E85000475045B92031CC610A8404250D7001254B
:10E860004D702039012091F84750012D03D100202F
:10E87000002581F8475030BD70B504460D46164658
:10E880000CB9022070BD84F8F4620020C4F8AC0218
:10E89000C4F8B0022046F3F751FC0DB1C4F8FC52A5
:10E8A000204600F0C5F80020ECE72DE9FF410746BF
:10E8B0000C4615461E460020012103230A468DE81A
:10E8C000320003903146384600F024F9002004B0AD
:10E8D000BDE8F0812DE9FF4107460C4615461E466E
:10E8E0000021A8B201221346CDE90024CDE902019E
:10E8F0003146384600F00EF9002004B0BDE8F08142
:10E9000070B504460D462946D4F8F802F7F7B6FE6E
:10E91000002070BD10B50446207868B9012184F844
:10E920001E1200202070D4F8FC0250B104212046B1
:10E93000D4F8FC22904704E02078012801D102207D
:10E940002070002010BD10B50446204600F0DAF813
:10E9500021792046FFF786F861792046FFF782F893
:10E96000002184F81E1203202070D4F8FC0220B18C
:10E9700005212046D4F8FC229047204600F0BAF842
:10E98000002010BD70B505460C462CB9012251027D
:10E990000748F7F7F3FD05E000224FF40071044843
:10E9A000F7F7ECFDC820F7F723FB002070BD00004F
:10E9B000000C024070B504460D462946D4F8F80212
:10E9C000F7F753FE70BD70B504460125D4F8F80280
:10E9D000F7F73BFE20B1012804D0022806D103E05E
:10E9E000002505E0012503E0022501E0012500BF27
:10E9F00000BF284670BD000070B504460D4629468C
:10EA0000D4F8F802F7F727FE0249087008460078A4
:10EA100070BD00005800002010B50446D4F8F00284
:10EA2000401CC4F8F0022046FFF78AFA10BD00002F
:10EA300070B504464FF0A0400F4908600B210E4806
:10EA40008160002101610162022181610021C161B7
:10EA50000321C16000214162C0F88C42C4F8F80271
:10EA6000F8F77EF80448F7F7EAFD05462946204600
:10EA700000F022F8002070BD640800202DE9FE4F50
:10EA800004460D4616461F46DDE90D9ADDF8308036
:10EA90008DE800073B4632462946D4F8F802F7F7DE
:10EAA00007FE0020BDE8FE8F10B50446D4F8F8023A
:10EAB000F8F77EF9002010BDC0F8F0127047000092
:10EAC00010B5034601EB8104094800EBC400C0788F
:10EAD00030B101EB8104064800EBC400027605E08A
:10EAE00001EB8104024800EBC4004276002010BD17
:10EAF0009408002010B50446D4F8F802F8F765F938
:10EB0000002010BD10B50446D4F8F802F8F778F9E3
:10EB1000002010BD2DE9FF5F04460D4616461F4636
:10EB2000DDE910ABDDE90E898DE8000F3B4632468A
:10EB30002946D4F8F802F7F719FE002004B0BDE822
:10EB4000F09F2DE9FE4F04460D4616461F46DDE9AF
:10EB50000D9ADDF830803B463246294620468DE846
:10EB60000007FFF78BFF0020BDE8FE8F2DE9F84F6F
:10EB700004460E46934635464FF00008C14600BF96
:10EB80003078207070786070B178F07801EB0020F8
:10EB900060803079207170796071B079A071F079FE
:10EBA000E071307A2072BBF1090F4ADD0920009034
:10EBB00000273EE069462846FEF7BEFF0546687816
:10EBC000042836D108EB880000EBC80104F10A00E4
:10EBD00000EB41072946384600F071F84FF0000974
:10EBE000CA461AE069462846FEF7A6FF0546687839
:10EBF000052812D108EB880000EBC80104F10A00D7
:10EC000000EB41000A3000EBC90A2946504600F0EB
:10EC100046F809F101004FFA80F93879484504DDDA
:10EC20006088BDF800108842DCDC08F101004FFA72
:10EC300080F8B8F1040F04DA6088BDF8001088424B
:10EC4000B8DCBDE8F88F10B50B7803704B784370D3
:10EC50008C78CB7804EB032343800B7903714B79D9
:10EC600043718B798371CB79C371082A16DD0C7AD5
:10EC70004B7A04EB032303818C7ACB7A04EB0323D6
:10EC800043810C7B4B7B04EB032383818B7B83735E
:10EC9000CB7BC3730B7C03744B7C437410BD0A782D
:10ECA00002704A7842708A788270CA78C2700B7992
:10ECB0004A7903EB022282808A79827170470A784E
:10ECC00002704A7842708A788270CA78C2700A7973
:10ECD00002714A7942718A798271CA79C2710A7A5B
:10ECE0000272704730B513464578032D14D105786C
:10ECF000AD1E9D4202DC0578AD1E00E01D46ACB2A3
:10ED0000801C002204E0855C0D70491C951CAAB291
:10ED1000A242F8DB00250D7030BD7FB5044602200D
:10ED20000390002520780D2872D2DFE800F0071349
:10ED300014B7C6449C556069AEC6C70094F81E025D
:10ED400038B101202070C820FEF786FE2046FFF76C
:10ED5000ABFEB4E0B3E06420FEF77EFE2046FFF792
:10ED600032FE84F81D020520207000212046FEF7A7
:10ED7000A8FD607180212046FEF7A3FD2071A079D7
:10ED8000002294F81D12CDE90012029094F81C3272
:10ED9000217980222046FFF7D4FEA079002294F842
:10EDA0001D12CDE90012029094F81C3261792046C0
:10EDB000FFF7C7FE83E02046FFF702F858B90021AD
:10EDC00084F81F1294F83102012802D10820207023
:10EDD00001E00720207072E0D4F8FC0230B101217C
:10EDE0002046D4F8FC2290470820207067E094F871
:10EDF0003712204600F091F808B9092020705EE033
:10EE0000D4F8B00240B30020C4F8AC02002511E0F1
:10EE100053E004F5297050F82500017994F8410277
:10EE2000814205D104F5297050F82500C4F8AC02E0
:10EE3000681CC5B2022DECDBD4F8AC0280B1D4F86A
:10EE4000AC0281682046884738B90620207003212B
:10EE50002046D4F8FC22904704E00C20207001E00A
:10EE60000C2020702BE0D4F8AC0258B1D4F8AC02DE
:10EE700001692046884703909DF80C0020B90A20BC
:10EE8000207001E00C20207019E0D4F8AC0220B111
:10EE9000D4F8AC0241692046884710E02046F3F7D9
:10EEA0004DF9D4F8AC0238B1D4F8AC02C1682046B0
:10EEB00088470020C4F8AC0201E000BF00BF00BFDB
:10EEC000002004B070BD10B50246002079B1D2F820
:10EED000B032022B09D2D2F8B042631CC2F8B03271
:10EEE00002F5297343F8241002E0022000E002201A
:10EEF00010BD70B504460D46A078012807D1002149
:10EF000021740521617465820021A182E1820022C1
:10EF100011462046FEF749FD70BD70B504460D460A
:10EF2000A078012807D1002121740921617465822C
:10EF30000021A182E182002211462046FEF735FD24
:10EF400070BD70B504460D461646A078012807D15D
:10EF5000012121740B2161746682A5820021E18266
:10EF6000002211462046FEF720FD70BD10B5044674
:10EF70002046FFF7BFFD01212046FFF703FD0020DB
:10EF800010BD000070B504460D461B49D4F8AC0214
:10EF9000884202D10220194908701949D4F8AC02FC
:10EFA000884202D1012015490870012D06D0022D9A
:10EFB0001CD0042D1BD0052D1AD100E019E01148FA
:10EFC0000078401C0F490870084600780B49097802
:10EFD00088420AD100200B4908700B49087020466E
:10EFE000FFF79BFE01200949087002E001E000E004
:10EFF00000BF00BF70BD00002C0400203F000020B7
:10F00000040300203E0000202E0000203A000020D3
:10F010000FB410B504460898012816D1A06B20F44F
:10F020008030A063E06815490840E060E06820F4A3
:10F030004010E0600D98012803D1E06840F4801092
:10F04000E060204600F01CF809E0E06840F0400075
:10F05000E060204600F014F84FF48030A06306987A
:10F06000012807D1A06840F00C00A060A06840F023
:10F070002000A060002010BC5DF814FBBFFFBDFFA6
:10F080000146002200BF501C02460F4B984201D996
:10F0900003207047086900F000400028F3D00022E8
:10F0A000086940F00100086100BF501C0246064B91
:10F0B000984201D90320ECE7086900F0010000281C
:10F0C000F3D100BFE5E70000400D0300014688686A
:10F0D00020F00100886000207047000010B5024653
:10F0E0000123124800EAC34040F0004402F5A0604A
:10F0F00000EB4110046102F5A06000EB41100068D4
:10F1000020F0804402F5A06000EB4110046002F59D
:10F11000A06000EB4110006840F0004402F5A060E0
:10F1200000EB41100460002010BD00000000F81F3B
:10F1300008B50246D2F840040090009820F02E0056
:10F140000090009800F4805030B9012904D1009853
:10F1500040F48050C2F84004009800F48050B0F5AC
:10F16000805F05D121B9009820F48050C2F8400496
:10F17000002008BD0146886840F00100886000203A
:10F1800070470000014600221020086100BF501C9B
:10F190000246064B984201D903207047086900F0E7
:10F1A00010001028F3D00020F7E70000400D030006
:10F1B00010B502460023202040EA4110106100BF34
:10F1C000581C0346054CA04201D9032010BD10690C
:10F1D00000F020002028F3D00020F7E7400D0300C6
:10F1E00001464FF48160405880B2704708B501462F
:10F1F000D1F8400400900098C0F3414008BD01469A
:10F20000486900F00100704710B50246002302F57E
:10F21000A06000EB41100068002038B902F5A06042
:10F2200000EB4110006800F40020C8B302F5A060B4
:10F2300000EB4110006840F0804402F5A06000EB54
:10F2400041100460D06A80B258BB02F5A06000EBA8
:10F250004110006820F0004402F5A06000EB41106E
:10F26000046002F5A06000EB4110006840F000442B
:10F2700002F5A06000EB4110046002F5A06000EB15
:10F280004110006820F4004402F5A06000EB41103A
:10F29000046000BF581C0346B0F57A7F02D90BE02A
:10F2A00018E00AE002F5A06000EB4110006800F0F1
:10F2B0000040B0F1004FEDD060E002F5A06000EB3F
:10F2C0004110006840F0004402F5A06000EB4110DE
:10F2D000046053E002F5A06000EB4110006840F0CC
:10F2E000804402F5A06000EB411004604FF482609E
:10F2F000805880B2A8BB02F5A06000EB4110006806
:10F3000020F0004402F5A06000EB4110046002F51B
:10F31000A06000EB4110006840F0004402F5A060DE
:10F3200000EB4110046002F5A06000EB41100068A2
:10F3300020F4004402F5A06000EB4110046000BF1F
:10F34000581C0346B0F57A7F00D909E002F5A060A9
:10F3500000EB4110006800F00040B0F1004FEFD02A
:10F360000CE0FFE702F5A06000EB4110006840F000
:10F37000004402F5A06000EB41100460002010BDC5
:10F380002DE9F0410446DDE90757069E4FF0FF3CAA
:10F3900004F5A06000EB4110C0F808C035B1012DA4
:10F3A00048D0022D03D0032D5DD12AE000BF40F2EA
:10F3B0009D4C04F5A06000EB4110C0F80CC002F0B9
:10F3C000800068B104F5A06000EB4110C06840F413
:10F3D000807C04F5A06000EB4110C0F80CC00FE089
:10F3E000B4F1A04F0CD004F5A06000EB4110C06850
:10F3F00040F0600C04F5A06000EB4110C0F80CC0B8
:10F4000031E040F29D6C04F5A06000EB4110C0F8C3
:10F410000CC002F0800060B104F5A06000EB411068
:10F42000C06840F4807C04F5A06000EB4110C0F897
:10F430000CC018E040F2252C04F5A06000EB411050
:10F44000C0F80CC002F0800060B104F5A06000EBD1
:10F450004110C06840F4C07C04F5A06000EB41108E
:10F46000C0F80CC000BF00BF4FF4836000594FF0DC
:10F47000010C0CFA01FC40EA0C00C4F81804A06965
:10F4800040F00070A0614FF0FE5000EA83504FF44E
:10F49000F04C0CEAC22C40EA0C00C2F3C01C4FF442
:10F4A000004808EACC3C40EA0C00022E02D14FF0A2
:10F4B000010C01E04FF0000C4FF4003808EA4C4C0E
:10F4C00040EA0C004FF4402C0CEA854C40EA0C005A
:10F4D000C7F30A0C40EA0C0004F5A06C0CEB411CCD
:10F4E000CCF80000032D0CD104F5A06000EB411016
:10F4F000006840F0005C04F5A06000EB4110C0F82B
:10F5000000C00020BDE8F081014640F214404058A0
:10F5100080B270472DE9F84705460C4616464FF075
:10F52000000AD14600274FF48078B5F1A04F0CD0E7
:10F53000207950B94EB96079012806D16178284602
:10F54000FFF7CCFD0020BDE8F887206968B121896C
:10F5500020690844401EB0FBF1F087B2474505DD45
:10F56000474620897843206100E00127E07810B108
:10F570002089784320612069C0F31200404901EAE4
:10F58000C7410843A17A4FF0C04202EA41710843E3
:10F59000617805F5A06202EB4111086136B160782F
:10F5A00005F5A06101EB4010E26842614FF4816013
:10F5B000405900F0010080F0010A607805F5A06173
:10F5C00001EB4010006820F00052607801EB401021
:10F5D0000260607801EB4010006840EA4A7260788F
:10F5E00001EB40100260607801EB4010006820F0F1
:10F5F0008042607801EB40100260607801EB4010BF
:10F60000006840F00042607801EB40100260AEBB41
:10F61000E07898BB206988B3E07930B1012813D035
:10F62000022803D003281ED10DE000BF2069C01CB2
:10F63000C0F38F09E86A80B2484503D2A86940F058
:10F640002000A86110E000BF2069C01CC0F38F0932
:10F650004FF48260405980B2484503D2A86940F017
:10F660008060A86100E000BF00BF00200090208AF9
:10F6700083B262782846E16800F03AF9002062E738
:10F680000000F81F0FB470B504460020C4F8000E47
:10F69000A06B20F48020A063A06B20F40020A06366
:10F6A000A06B40F40010A0630798032809D1B4F1BF
:10F6B000A04F06D0D4F8000440F00400C4F80004C1
:10F6C00005E0D4F8000420F00400C4F80004102180
:10F6D0002046FFF76DFD2046FFF754FD00250DE0A5
:10F6E0004FF0FF3104F5A06000EB45108160002170
:10F6F00004F5A06000EB4510C1606D1C0698A8429F
:10F70000EED801212046FFF713FDC820F6F770FC64
:10F710000020A061401E6061B4F1A04F07D180209D
:10F7200060620E48A0620E48C4F8000107E04FF482
:10F73000007060620B48A0620B48C4F80001089892
:10F7400018B9A06940F01000A061A06907490843FA
:10F75000A061002070BC5DF814FB00008000600018
:10F76000E0004000000200010003E000080020A3C8
:10F770000246D2F8000420F00300C2F80004D2F8D8
:10F78000000401F003031843C2F80004012905D165
:10F790004BF6803340F20440835006E0022904D146
:10F7A00041F2707340F204408350002070470146DC
:10F7B000002048698A691040704770B503460024EC
:10F7C000D01CC61700EB9676B51000BF05E04FF4CD
:10F7D0008050C0580860641C091DAC42F7D308462D
:10F7E00070BD38B50446D4F840040090009820F06D
:10F7F0002E000090009840F48070C4F840040A2065
:10F80000F6F7F6FB009820F48070C4F8400400205E
:10F8100038BD70B504460D46E06820F0C040E06099
:10F82000012D04D1E06840F00050E06004E01DB913
:10F83000E06840F08040E0603220F6F7D9FB00201D
:10F8400070BDF0B5054600272846FFF73FFC1021A4
:10F850002846FFF7ADFC2846FFF794FC002411E092
:10F8600005F5A06000EB4410066846F0804626F0DF
:10F87000004626F4004605F5A06000EB4410066043
:10F88000601CC4B20F2CEBDD002423E005F5A06062
:10F8900000EB4410066846F0804646F0004626F429
:10F8A000004605F5A06000EB4410066000BF781C20
:10F8B0000746B0F57A7F00D909E005F5A06000EBB6
:10F8C0004410006800F00040B0F1004FEFD000BFDE
:10F8D000601CC4B20F2CD9DD4FF0FF3140F2144050
:10F8E0004151084668612846FFF744FC0020F0BDFE
:10F8F000F0B50446059E00270025A6B9D81C4FEA9E
:10F90000E07C00EB9C7C4FEAAC0700BF09E0D1F83B
:10F9100000C004F5805000EB0230C0F800C06D1C40
:10F92000091DBD42F3D30020F0BD00BFFEE700007B
:10F9300000B585B01A48006840F480701849086026
:10F940000846006840F4807008600846006840F48B
:10F9500080700860134801900020029004200090FD
:10F9600069461148F6F772FB0020019002900120D1
:10F97000009069460C48F6F769FB00200190029060
:10F980000220009069460848F6F760FB0022022139
:10F990000820F8F741FA0820F8F731FA05B000BD61
:10F9A0003038024000003110002002402DE9FC41B7
:10F9B00004460027206D04F0C0FB0646012000909D
:10F9C000019022461BA10020236D00F062FB28E07D
:10F9D0003146206D04F0BFFB80463146206D03F0B8
:10F9E000CDFA0546DDB12B6A5B7995F81BC06344FF
:10F9F000D8B2C3231A5D94F82B1005F031F870B11A
:10FA00000E4A3146206D04F0C7FA012000900190A3
:10FA100022460BA10020236D00F03BFB0127464648
:10FA200000BFFF2ED4D117B12046216A8847BDE818
:10FA3000FC81000053454E4400000000C5FB000857
:10FA400053454E442061667465722064656C65742C
:10FA5000654974656D0000002DE9FC410446E06CC9
:10FA600004F06BFB0646012000900190224632A173
:10FA70000020E36C00F00DFB59E03146E06C03F030
:10FA80007DFA05463146E06C04F065FB8046002DAA
:10FA90004BD094F8380040F3000030B12A6A517915
:10FAA00094F82A0004F0C4FC00E08020074694F893
:10FAB000380040F3000058B1B920005DB84221DBA6
:10FAC00094F82A0004F0DBFF296A4979884219D1A9
:10FAD00000223146E06C04F05FFA012000900190B2
:10FAE000224617A10020E36C00F0D3FA29462046F5
:10FAF00003F052FA284604F063FEE06C04F01DFBAC
:10FB0000804611E0B920005DB8420DDA124A314654
:10FB1000E06C04F041FA012000900190224608A117
:10FB20000020E36C00F0B5FA00BF464600BFFF2E90
:10FB3000A3D1BDE8FC8100005245435600000000FF
:10FB4000524543562061667465722064656C657425
:10FB5000654974656D000000C5FB00082DE9F041A2
:10FB600004460D4616462768D5F800802FB1B8F137
:10FB7000000F02D0042E00D104E0C722044905A0E2
:10FB800000F059F9787F98F81D10401ABDE8F0810F
:10FB9000B48701086150636B202626206250636B96
:10FBA000202626206461746153697A65203D3D20DA
:10FBB00073697A656F662875696E747074725F74A4
:10FBC0002900000070B504462CB1256815B12846FF
:10FBD00004F0F6FD00BF70BD2DE9F3410446002599
:10FBE000019A126A517994F82A0004F021FC064621
:10FBF000B920005DB0420CDB074A01A9E06C02F0BD
:10FC00003DFE0746FF2F01D0012000E00020054601
:10FC100000BF2846BDE8FC811D02010810B5024660
:10FC20000B46002113E001EB410402F10E00005DE0
:10FC30001C78A04208D001EB410402F10E002044E0
:10FC400040785C78A04201D1012010BD491C907A17
:10FC50008842E8D80020F8E72DE9F84F044600254F
:10FC6000002C3CD0E06C04F061FA0646204602F01D
:10FC700077FEB04203D2204602F072FEC6B2009672
:10FC800094F82A2094F82C100023204604F095FCC8
:10FC900005461DB30027286A00F10908E06C04F04E
:10FCA0004CFA814614E04946E06C03F067F982465D
:10FCB000BAF1000F06D0DAF82000407908F8010BFD
:10FCC000781CC7B24946E06C04F045FA814600BF93
:10FCD000B74202DAB9F1FF0FE5D100BF00BF2846F5
:10FCE000BDE8F88F2DE9F04399B005460E4614465D
:10FCF0001F46DDF8808018A8F0F786FA81464B464B
:10FD00000AA2502104A8F0F7C1FA0E4850F82400C6
:10FD100004A93B460CA2CDE90108009131462846D2
:10FD200000F03AF819B0BDE8F08300002561202505
:10FD3000592D256D2D25642025483A254D3A25530A
:10FD400020255A0034030020257325733A2025739B
:10FD50002573000010B504460249206D04F005F932
:10FD600010BD0000C5FB000810B504460249206D17
:10FD700004F0FBF810BD0000C5FB00080FB40246FC
:10FD800010B504A9034B039800F01CFE10BC5DF8ED
:10FD900014FB00006D1101080FB41CB50A46521E79
:10FDA000CDE9000207A9054B6A46069800F00AFE55
:10FDB000009A002111701CBC5DF814FBF3100108BF
:10FDC0000FB4084B10B504A902AA039800F0FAFD7D
:10FDD000044602A9002001F097F9204610BC5DF806
:10FDE00014FB0000091101087CB5491E1C4615468C
:10FDF000CDE90001044B6A462146284600F0E2FDA9
:10FE0000009A002111707CBDF310010870B5044602
:10FE10007CB100250AE004F1540151F8250004F0FA
:10FE200085F9002801DD012070BD6D1C032DF2DB7A
:10FE300000BF0020F8E7012001F07EF910B504466C
:10FE40000648007840B9012004490870E06801F0D4
:10FE500097F9204601F094F910BD00002D03002011
:10FE600010B504460648007840B9012004490870DE
:10FE7000E06801F085F9204601F082F910BD00002C
:10FE80002D03002010B504460648007840B9012033
:10FE900004490870E06801F073F9204601F070F938
:10FEA00010BD00002D03002070B504460D46B5F5C9
:10FEB000007F01D2294601E04FF40071084605F0A9
:10FEC000C9FBE060E06870BD02460020001D02FB37
:10FED0000100704702460020001D02FB0100704730
:10FEE00002460020001D02FB010070472DE9F0478B
:10FEF00081460E46002406F10A0809256D1C35448A
:10FF0000B5F5007F01D8012000E00020074687B149
:10FF100005F1240005F09EFB044604B105E04FF412
:10FF20009E72134913A0FFF786FF04F1240020629C
:10FF30001AE0242005F08EFB044604B105E04FF4DE
:10FF4000A1720B490BA0FFF776FF4FF4007005F08C
:10FF500081FB2062206A00B105E04FF4A3720449DE
:10FF600005A0FFF768FF00BF2046BDE8F08700004E
:10FF7000E485010870636B0070636B2D3E70636BEA
:10FF800044617461000000002DE9F04107460D4610
:10FF9000002405F10A06B6F5007F0FD806F124000B
:10FFA00005F058FB044604B104E0D222114912A026
:10FFB000FFF741FF04F12400206218E0242005F03F
:10FFC00049FB044604B104E0D8220A490AA0FFF71D
:10FFD00032FF4FF4007005F03DFB2062206A00B153
:10FFE00004E0DC22034905A0FFF725FF00BF2046FF
:10FFF000BDE8F081E485010870636B0070636B2DD0
:020000040801F1
:100000003E70636B446174610000000010B5029C97
:10001000816042604380C46010BD10B5029C816065
:1000200042604380C46010BD10B5029C8160426094
:100030004380C46010BD70B504460D46E560E068BD
:1000400001F09EF870BD70B506460C462546288B1B
:10005000B0F5007F03DC284601F092F805E0286A3D
:1000600001F08EF8284601F08BF870BD70B5064699
:100070000C462546288BB0F5007F03DC284601F0AE
:100080007FF805E0286A01F07BF8284601F078F84F
:1000900070BD30B5DDE9034530BD02E008C8121F70
:1000A00008C1002AFAD170477047002001E001C161
:1000B000121F002AFBD170472DE9FF5FDDE9022006
:1000C000010DDDF838B0024318D044F61050A1F20B
:1000D000FF3141430D140F98012820D0A5EB0B00F0
:1000E000401C5FEA000A4FF00004474EDFF81C9105
:1000F000A046504616D5CAF1000728E00F98012403
:1001000043A2012808D0002100980F9BC0E90021DC
:10011000C0E90243BDE8FF9F6FEA0B01F4E7CBF1B2
:100120000000DEE7074612E0F80707D02246334614
:1001300040464946F0F72FFA804689462246334624
:1001400010461946F0F727FA04460E467F10002F96
:10015000EAD1DDE90201BAF1000F42464B4602DA6C
:10016000F0F719FA01E0F0F788FA04460E4600228B
:10017000284BF0F789FC03D84FF0FF30014607E029
:100180000022254B20463146F0F7BEFBF0F763FC1A
:10019000102409E0002C0ADB0A220023F0F718FBE8
:1001A000019B30321A55641E50EA0102F2D1641CE0
:1001B000019AC4F1110314440F9A012A03D00122B9
:1001C00008430DD10AE0084304D000204FF0110B82
:1001D0000F9080E7A3EB0B056D1E0DE05B4504DD82
:1001E0004FF0000205F1010504E003DA4FF00002D0
:1001F000A5F10105002AECD000980F99C0E9023161
:10020000C0E9004586E70000000024400000F03F00
:10021000300000000000F0430000E03F2DE9F0470F
:1002200006460F4692463568D7F80080D8F8202059
:1002300051792A6A507904F0FBF804462868D8F806
:100240000010884200D105E040F2151209490AA0C9
:10025000FFF7F1FDD5F8009014B92046BDE8F0870E
:10026000C32010F80900A04202DAA4F58070F5E777
:100270002046F3E7B487010870636B312D3E6C694B
:100280006E6B203D3D2070636B322D3E6C696E6B52
:10029000000000002DE9F0418AB006460F4646B343
:1002A00001A80090304604F0F3FE04468DF821705A
:1002B000114A6946206D02F0E1FA0546FF2D08D08B
:1002C0002946206D02F05AFE8046404604F0B9FDF2
:1002D0000EE0E06C03F031FF0546FF2D08D0294603
:1002E000E06C02F04BFE8046404604F0AAFD00BFE1
:1002F00000BF0AB0BDE8F0815DFB00082DE9F041C8
:100300000546884616461F4645B3284604F0C0FEFB
:10031000044614B394F8380040F3001030B13B4663
:1003200032464146606A03F0B7F916E0072E04D062
:10033000082E07D0142E0FD109E03946204602F0CE
:10034000B3FC09E03946204602F068FC04E0394677
:10035000204602F0BFFC00BF00BF00BFBDE8F08137
:100360002DE9F04704464FF00009E06C002833D037
:10037000E06C03F0DBFE00282EDDE06C03F0DDFE18
:100380000646FF251DE03146E06C02F0F7FD07460A
:100390008FB194F8380040F3000030B13A6A5179D7
:1003A00094F82A0004F044F800E080208046A84534
:1003B00000DA454600BF3146E06C03F0CCFE06464D
:1003C00000BFFF2EDFD1012D05DDB920005DA84261
:1003D00001DB4FF0010900BF4846BDE8F08700008F
:1003E0002DE9F0418CB004460D460027288B0A28E1
:1003F0003ADD286A407904F82A0F94F90E0020F0BB
:100400000100401CA07354F8220C0A2101F058F896
:100410002178E0782A3C04F00BF80646002E22DD15
:100420007F2E20DAA068C06805281CD3BB20005DA1
:10043000B04218DC00200090019094F82A2094F833
:100440002C100346204604F0A1F8804694F82800BA
:1004500008B91DA000E025A0034600224146204621
:1004600003F08EF900BF23E0288B09281FD12C222E
:1004700004F18C0101A8F0F72FF89DF80F008DF81A
:100480000500BDF81000ADF80800A068C068052898
:1004900008D201A802F034FC20B91021A06801F0B4
:1004A0000FF803E00F21A06801F00AF800E001272F
:1004B00017B92046216A88471FB901200CB0BDE852
:1004C000F0810020FAE700004163636573736F7287
:1004D000793A50726F63657373496E4F72646572D7
:1004E0005061636B657441434B000000446576695D
:1004F00063653A50726F63657373496E4F726465DA
:10050000725061636B657441434B000070B50446E3
:100510000D460026288B0A2804DD0C21A06800F077
:10052000CFFF00E001260EB9012070BD0020FCE7DE
:1005300070B504460D460026288B092804D10621F3
:10054000A06800F0BDFF00E001260EB9012070BDDB
:100550000020FCE770B504460D460026288B0928CC
:1005600004D11521A06800F0ABFF00E001260EB910
:10057000012070BD0020FCE72DE9F04F8BB0044650
:100580000D464FF00009286A407904F82A0F94F9C3
:100590000E0020F00100401CA0732A3C286A00795C
:1005A00000F0400040B154F8E80F401C2060A06803
:1005B000401CA060E83C07E054F8E40F401C2060B9
:1005C000A068401CA060E43CD4F8E870D4F8E400D3
:1005D00007440A2F01D9012000E00020064694F8C4
:1005E000380040F3401008B9012000E00020064028
:1005F00036B10E21A06800F063FF4FF0010958E00A
:10060000288B142853DB284604F002FA8246284639
:1006100004F0FAF983466A46514604F0B4FB684692
:1006200002F06EFB8046B8F1000F04D0286A007912
:1006300000F0400080B3B8F1000F2ED0BDF80610D6
:100640009220005B814228D1BDF808109420005B05
:10065000814222D19DF802108E20005D81421CD182
:100660009DF803108F20005D814216D19DF80A107D
:100670009620005D814210D1286A807994F82C1070
:10068000884204D10321A06800F01AFF0EE0042183
:10069000A06800F015FF09E004E00521A06800F063
:1006A0000FFF03E00221A06800F00AFF01E04FF015
:1006B0000109B9F1000F03D101200BB0BDE8F08FA3
:1006C0000020FAE72DE9FF4381B00446164698461C
:1006D0000C9F002C78D00298002875D00298006AF0
:1006E000007900F04000B8B10298006A807994F86F
:1006F0002A10884204D094F82A000299096A887165
:100700000298006A807904F82D0F94F90B0020F00C
:1007100008000830E0722D3C04F0BDFC054602994B
:100720004D610298006A007900F0400038B194F8F9
:100730002F10206B04F0DEFBFF2084F82F0027B978
:10074000E26820460299904703E022692046029918
:1007500090475EBB0298006A407904F82C0F94F928
:100760000C0020F00400001D20732C3C029804F0C3
:1007700058F910B101200299C876206D03F0E4FC0D
:10078000814602AA4946206D01F03AFE029804F023
:1007900068FBB8B1BE210A5B0721206B04F08CFB1B
:1007A00081464946029803F0F3FD0BE0BE210A5B47
:1007B0000721206B04F080FB81464946029803F034
:1007C000E7FD00BF09E0FFE70298234640F64352E9
:1007D0000349009003A003F05FFD05B0BDE8F0837E
:1007E000B487010825733A256420496E76616C69E7
:1007F00064206C696E6B28257029206F72207061EF
:10080000636B6574282570290A00000070B50446E2
:10081000656A0021284602F031FF70BD70B50446BC
:100820000D4694F82F00FF2807D1C0210A5B08214C
:10083000206B04F041FB84F82F0070BD01460020BE
:1008400001B1881C704730B502464AB1FF2907D074
:1008500002F108031C465579AD1C01FB054030BD73
:100860000020FCE770B505460E4614460B480660AE
:100870000B4805600B480460F5F7C2FE0A490860A2
:100880000A48007838B10020084908700648016815
:1008900003480068A047012070BD00004C00002004
:1008A0005000002054000020480000204400002098
:1008B00000B10020704700002DE9F0410446A06916
:1008C00003F03BFC07463946A06903F096FC054659
:1008D000DDB12868E169884202D3E069401CA0B913
:1008E000E069401C28B14FF0FF30E0612046FFF77F
:1008F000DFFF04F0D0FB06462868E0612868811B12
:10090000034A2046FFF7AEFF00BFBDE8F0810000BC
:100910005F09010800B10020704770B50346154615
:100920001A460C4610792679801B70BD70B50346B7
:1009300015461A460C4610682668801B70BD014695
:1009400011F8200F0A78521C01F82029FF2805D140
:1009500011F8200F0A78521C01F8202970472DE960
:10096000F04704460E46A06903F0E7FB8246514675
:10097000A06903F042FC05464FF0FF30E06118E04B
:10098000276995F8048095F8059000225146A069E2
:1009900003F002FB33464A4641462046B847A06969
:1009A00003F0CBFB82465146A06903F026FC0546C6
:1009B00000BF15B12868B042E2D92046FFF77CFF9E
:1009C000BDE8F0872DE9FF4F95B09B468946064666
:1009D00000250FE2252877D100242746F84A012177
:1009E000059400E0044316F8013F203B01FA03F0B0
:1009F0001042F7D130782A2811D06FF02F033078C9
:100A0000A0F13002092A16D8059A44F0020402EB3C
:100A1000820203EB42021044761C0590EFE759F87E
:100A2000042B0592002A03DA504244F40054059046
:100A300044F00204761C30782E2816D116F8010FE7
:100A400044F004042A280DD06FF02F023078A0F172
:100A50003003092B09D807EB870302EB4303C718C0
:100A6000761CF3E759F8047B761C30786C280FD09D
:100A700006DC4C2817D068280DD06A2814D104E071
:100A8000742810D07A280FD10DE044F400140AE045
:100A900044F4801401E044F440147278824202D19C
:100AA00004F58014761C761C307866280BD013DC95
:100AB000582877D009DC002875D04528F6D046287C
:100AC000F4D047281AD19DE118E0632835D0642876
:100AD00079D0652812D195E1702873D008DC672899
:100AE000F1D069286FD06E280DD06F2806D1B5E0FF
:100AF00073282CD0752875D0782874D05A46179949
:100B000090476D1C75E1C4F30250022809D00328F8
:100B10000DD0D9F8001004280DD00D6009F104099A
:100B200067E1D9F80010EA17C1E90052F6E7D9F8F1
:100B300000100D80F2E70D70F0E719F8041B8DF836
:100B4000001000208DF80100EA46012003E059F86A
:100B500004AB4FF0FF3061074FF0000102D40DE00D
:100B600008F101018846B9420FDA8045F8DB1AF82E
:100B700008100029F4D108E008F1010188468142FB
:100B8000FADB1AF808100029F6D105985B46A0EBAD
:100B9000080721463846179A00F094FA284400EBDB
:100BA000080507E04DE029E10DE01AF8010B5A466F
:100BB00017999047B8F10108F7D25B4621463846AD
:100BC000179A13E142E00A220092C4F302524FF056
:100BD000000A022A08D059F804CB032A4FEAEC7124
:100BE0000AD00DE029E02AE009F1070121F007020F
:100BF000F2E802C1914609E00FFA8CFC4FEAEC7171
:100C0000042A03D14FFA8CFC4FEAEC71002907DA71
:100C10000A460021DCF1000C61EB02012D2202E00A
:100C2000220504D52B228DF80420012203E0E207DF
:100C300001D02022F7E7904659E00A2102E0102275
:100C40000DE010214FF0000A00910BE010224FF050
:100C5000000A44F004040827009203E008224FF041
:100C6000000A0092C4F30252022A05D059F804CBBC
:100C70000021032A08D009E009F1070121F0070249
:100C8000F2E802C1914605E01FFA8CFC042A01D16A
:100C90000CF0FF0C4FF00008220728D5702806D072
:100CA000009B83F0100353EA0A0305D00EE04022B4
:100CB0008DF80420012208E05CEA010206D030220F
:100CC0008DF804208DF8050002229046009B83F0E9
:100CD000080353EA0A030AD15CEA010201D1620760
:100CE00005D530228DF804204FF001087F1E5828CA
:100CF00004D034A003900EA802900DE036A0F9E7CE
:100D000053466046009AEFF763FD84460398825C81
:100D10000298401E029002705CEA0100F0D1029835
:100D200006A9081A00F1200A600702D524F48034CD
:100D300000E00127574502DDA7EB0A0000E0002094
:100D400000EB0A01009005984144401A0590E00329
:100D500006D45B462146179A059800F0B3F905447E
:100D6000002706E001A85A46C05D179990476D1C00
:100D70007F1C4745F6DBE0030CD55B462146179AFE
:100D8000059800F09FF9054404E030205A46179971
:100D900090476D1C0099481E00900029F5DC08E082
:100DA000029802995A460078491C02911799904777
:100DB0006D1CBAF10001AAF1010AF1DC65E1000045
:100DC0000928010030313233343536373839616221
:100DD00063646566000000003031323334353637E5
:100DE00038394142434445460000000000F058F9BC
:100DF0000544761C307800287FF4ECAD19B0284605
:100E0000BDE8F08F620700D4062709F1070222F03F
:100E1000070CFCE80223E14603F000485FEA080CF7
:100E200002D00FF2702C0DE05FEA045C02D50FF2E5
:100E3000682C07E05FEAC47C02D00FF2602C01E06E
:100E4000AFF2700C4FF0FF3823F00043CDF850C0E4
:100E500065280CD006DC452809D046281DD0472837
:100E60003DD13DE0662818D067287ED138E00021CA
:100E7000112F01DB112000E0781CCDE9000106A94B
:100E80000EA8FFF719F9DDE90F010E9A0391002171
:100E9000009207F1010A04914DE04FF000400097E5
:100EA000CDE9011006A90EA8FFF706F9DDE90F024A
:100EB00003920E9B11990022DDF80CA0009304927E
:100EC00011B9791C00EB010AB7EB0A0004D4C0F198
:100ED000FF3007F1010A0490AAEB0700019044E0FB
:100EE000012F00DA01270021112F01DD112000E080
:100EF0003846CDE9000106A90EA8FFF7DDF8DDE9C7
:100F00000F010E9A0391002104910092BA46210725
:100F10000CD40399514500DA8A46BAF1010F05DD78
:100F2000009AAAF10101515C302908D0B84202DAD6
:100F300010F1040F06DA0121CDE9011015E0AAF144
:100F40000101E9E7002805DC049901440491AAEBBA
:100F5000000102E0411C514500DD8A460499401A17
:100F6000401C01904FF000400290200704D40198EB
:100F7000504501DBCDF8048000208DF84F00029829
:100F80000DF14F07B0F1004F25D02B200E900298A5
:100F90004FF0020800280CDA404202902D200E90FB
:100FA00007E00A210298EFF7FDFB3031029007F8C5
:100FB000011DB8F10001A8F10108F2DC0298002837
:100FC000EFD1791E0E980870307800F0200040F0C4
:100FD000450007F8020D12A8C01B00F1070814987D
:100FE000007800B1012000EB0A01019801EBE071EB
:100FF00005984144401A401E0590E00306D45B4624
:101000002146179A059800F05DF805441498007879
:1010100018B15A46179990476D1CE00324D55B46DA
:101020002146179A059800F04DF805441CE00498F5
:10103000002807DBDDE90301884203DD0098405CFE
:10104000179901E0179930205A469047049805F106
:101050000105401C04900198401E019004D12E20EF
:101060005A46179990476D1CBAF10001AAF1010A7E
:10107000DDDC05E017F8010B5A46179990476D1C07
:10108000B8F10001A8F10108F4DC5B462146179A8B
:101090000598ABE62D0000002B00000020000000AA
:1010A0002DE9F041044600251E461746880404D465
:1010B00005E039462020B0476D1C641EF9D528464E
:1010C000BDE8F0812DE9F041044600251E4690461A
:1010D000C80301D5302700E02027880404D505E0A7
:1010E00041463846B0476D1C641EF9D52846BDE818
:1010F000F0814A68002A06D00A68531C0B60107001
:101100004868401E486070470A68531C0B601070A6
:10111000704700BFFEE7000010B5054800210160E0
:10112000416001810A210348EFF7EFF910BD00008B
:10113000F20B0020E80B002005E00220F0F724FD70
:101140006420F4F755FFF8E7002005E0002301468E
:10115000421CD0B2034A53543228F7DB0149024AF9
:10116000116070475C110020C002002038B50446B1
:101170008DF8000069460320ABBE204638BD000054
:1011800010B5002821D0114B0022001F196803E080
:10119000814203D80A4649680029F9D152B113683F
:1011A000841A9C4204D1006818441060104602E082
:1011B000506000E0186039B102680B1A934203D105
:1011C0000B681A4402604968416010BDA004002009
:1011D0000148006870470000F402002010480068D1
:1011E000104A1268904209D00E48006801780D48F4
:1011F0000068401C0B4A10600846704708480068A9
:10120000084A1268904209D10020074A1070074826
:10121000034A106010460068024A1060FF20ECE7A5
:1012200080000020840000207D000020F40A0020BF
:1012300070B5002611A11248EFF77EF9A8421BD124
:1012400010A10F48EFF778F9044624B910A10C4813
:10125000EFF772F900E0204604466CB1AC420BD2C5
:10126000093405E020780D498855641C701CC6B20D
:10127000AC42F7D1FFF768FF70BD00000A0D000017
:101280005C1100205245435620535050200000006E
:10129000524543562049415020000000C807002015
:1012A00010B50446207820B1012806D002280CD1C0
:1012B00007E02046FEF7C2FD09E02046FEF7E2FD0A
:1012C00005E02046FEF7CCFD01E0AFF3008000BF53
:1012D000032020700020A0606060608010BD70B5A9
:1012E00004460D460026207820B1012808D00228A7
:1012F00012D10BE029462046FEF7D6FD06460DE04A
:1013000029462046FEF740FE064607E029462046CD
:10131000FEF7ECFD064601E0AFF3008000BF30466B
:1013200070BD2DE9F04105460E461746102425B143
:10133000012D08D0022D12D10BE039463046FEF7C0
:10134000C3FD04440DE039463046FEF7C9FD0444B0
:1013500007E039463046FEF7BDFD044401E0AFF337
:10136000008000BF2046BDE8F0812DE9F843064625
:101370000F4690469946089D2C4610352670A7606A
:10138000C4F80480A4F802900020E06026B1012E89
:101390000AD0022E18D10FE04B464246394620466D
:1013A0000095FEF733FE11E04B4642463946204693
:1013B0000095FEF739FE09E04B4642463946204685
:1013C0000095FEF72AFE01E0AFF3008000BF204643
:1013D000BDE8F88370B504460D46207820B1012899
:1013E00007D002280FD109E029462046FEF723FE48
:1013F0000BE029462046FEF739FE06E02946204646
:10140000FEF721FE01E0AFF3008000BF70BD0000D9
:101410002DE9F05F06460F4615469846DDE90AAB12
:10142000DDF838904C4604B104E0AF220A490BA025
:10143000FEF701FDC4F80080A5606660E7602561E5
:10144000C4F814A0C4F818B00C98E0610D9820629C
:101450002046BDE8F09F00004886010866736D00D5
:101460007047000070B504460D4604B104E05622F2
:10147000054906A0FEF7DFFCE168206850F821006E
:1014800050F8350070BD00004886010866736D0095
:101490002420704770B504460D4604B104E06F2265
:1014A000054906A0FEF7C7FCE168206850F8210056
:1014B00000EBC500406870BD4886010866736D008A
:1014C000F0B587B004460D460695002C56D0A068AE
:1014D0000699884252D94AE020460699FFF7C2FF92
:1014E0000646206800B104E0EE22324932A0FEF741
:1014F000A2FCB6B1069F0698206106A92046B04717
:1015000039462046FFF7C6FFE0606168E068884220
:1015100000D205E04FF4837226492AA0FEF78BFC27
:1015200024E0E06920B1E168E06950F8210000E0C2
:101530002DA0226AE16822B1226A069B52F823207C
:1015400000E029A2069BCDE90043CDE902210490E9
:10155000A06908B1A06900E023A0034640F20B1285
:10156000144922A002F098FEA068069000BFA0686F
:1015700006998842B0D8A068206119E034B1206A89
:1015800020B1206A069950F8210000E016A00699C3
:10159000CDE9004102901CB1A06908B1A06900E04A
:1015A00011A003464FF48C72024920A002F074FE91
:1015B00007B0F0BD4886010866736D2D3E737461F7
:1015C0007465730066736D2D3E63757272656E741B
:1015D0005374617465203C2066736D2D3E73746195
:1015E0007465436F756E74000000000025733A2522
:1015F000642027257327282570293A204E6F2068FC
:10160000616E646C657220666F72206576656E74BB
:101610002825643A25732920666F722073746174DB
:10162000652825643A2573290A00000025733A25A8
:101630006420272573273A204E554C4C2066736D45
:101640002825702920706F696E746572206F722072
:10165000696E76616C6964206576656E74282564B0
:101660003A257329210A00002DE9F04F8DB0054677
:101670000F4605B105E040F21922374937A0FEF7C1
:10168000DAFB07B105E040F21A22334934A0FEF735
:10169000D2FB162038606C69E868042805D1A0697F
:1016A00018B100212046A2699047A66C002E30D0C8
:1016B0008D2010F80490902030F804A0306A007952
:1016C00000F0800000B105E040F22F22224927A05F
:1016D000FEF7B1FB304603F09BF98346304603F03A
:1016E00093F902AA5946019003F04DFB2C2202A95E
:1016F00004F18C00EEF7F0FE84F88D90A4F890A031
:101700009DF8091097200155BDF80C109820015341
:1017100000BF2C2204F18C0104F1B800EEF7DCFECE
:1017200000200090019094F82A2094F82C10034691
:10173000204602F02BFF80461BA300224146204694
:1017400002F01EF8A06918B101212046A269904755
:101750000DB0BDE8F08F00000888010866736D00C9
:101760006E6578744576656E740000002872656356
:101770007650636B2D3E70636B446174612D3E63E4
:10178000746C2026206B494150325061636B657444
:10179000436F6E74726F6C4D61736B53594E292099
:1017A000213D2030000000004163636573736F7258
:1017B000793A53656E6441434B00000070B50546AD
:1017C0000C4605B105E040F2EF22074907A0FEF7FD
:1017D00032FB04B105E04FF43C72034904A0FEF76C
:1017E0002AFB1620206070BD0888010866736D0012
:1017F0006E6578744576656E74000000F0B589B04A
:1018000007460D4607B105E040F28112414942A06A
:10181000FEF711FB05B105E04FF4C1723D493FA051
:10182000FEF709FB162028607C6994F82E00FF283B
:1018300007D094F82E10206B03F05CFBFF2084F897
:101840002E002C2204F1600104F18C00EEF744FE1E
:10185000A06918B100212046A269904794F8380089
:1018600040F3800048B914F8290FE07094F90F0094
:1018700020F00400001DE073293C04F19A00962139
:10188000095D8F22125D8E231B5DCDE90432CDE907
:1018900006109420005B9221095B9022125B8D233D
:1018A0001B5DCDE90032CDE9021094F8603094F868
:1018B0002C100022204602F015FF064694F838004E
:1018C00040F3401028B9BA20005DD4F804118142D9
:1018D0000ED2D4F80401401CC4F8040194F80401A9
:1018E000307711A301223146204601F049FF0EE076
:1018F000BA20005D0CA34FF4DC72064900900FA0E3
:1019000002F0CAFC0E202860304602F059FF09B0F0
:10191000F0BD00000888010866736D006E6578747C
:101920004576656E740000004163636573736F7282
:10193000793A526573656E6453594E0025733A25A2
:101940006420257320526573656E6420746F6F2068
:101950006D616E792074696D657321206D61783DCC
:1019600025640A0070B505460E4605B105E040F253
:101970005112174917A0FEF75EFA06B105E04FF4C1
:10198000A972134914A0FEF756FA162030606C694C
:1019900094F82E00FF2807D094F82E10206B03F047
:1019A000A9FAFF2084F82E000021204601F0EEFC69
:1019B000E06958B100212046E26990474FF47A72FD
:1019C0001421206B03F078FA84F82E0070BD00001B
:1019D0000888010866736D006E6578744576656EDB
:1019E000740000002DE9F04794B006460D4606B19C
:1019F00005E040F267226D496DA0FEF71CFA05B1C3
:101A000005E04FF41A7269496AA0FEF714FA16202D
:101A100028607469A76C002F71D0384602F0F8FF77
:101A20008146384602F0F0FF824609AA494603F093
:101A3000AAF994F88C009DF8241088420EDD9DF8D8
:101A40002400009094F88C3040F2772257495CA033
:101A500002F0ECFB9DF8240084F88C0009A801F04A
:101A6000E1FF04F18C0001F0DDFF94F88C009DF89B
:101A70002410884203DD9DF8240084F88C008E2019
:101A8000005D9DF82610884203DD9DF826108E200B
:101A900001558F20005D9DF82710884203DD9DF8D9
:101AA00027108F2001559220005BBDF82A10884234
:101AB00003DDBDF82A10922001539420005BBDF88D
:101AC0002C10884203DDBDF82C10942001539DF8A2
:101AD000251097200155BDF82810982001539DF836
:101AE0002E10962001559DF82E0000EB40020DF1BE
:101AF000320104F19A00EEF7EFFC06E0FFE72C223A
:101B000004F18C0109A8EEF7E7FC94F8380040F3E3
:101B1000800048B914F8290FE07094F90F0020F004
:101B20000400001DE073293C04F19A009621095D30
:101B30008F22125D8E231B5DCDE90432CDE90610A4
:101B40009420005B9221095B9022125B8D231B5D28
:101B5000CDE90032CDE9021094F8603094F82C0001
:101B6000401CC1B204F12A02204602F0BBFD8046AF
:101B700054F8F80F401C2060A068401CA06014F8C6
:101B8000C00CF83C40F3401030B9D4E93D10084493
:101B90000A2801D90E20286015A3002241462046BC
:101BA00001F0EEFD14B0BDE8F087000008880108E0
:101BB00066736D006E6578744576656E740000001E
:101BC00025733A2564204F6C6465722070726F74BF
:101BD0006F636F6C2056657273696F6E20646574F5
:101BE0006563746564202825642D3E2564290A00F8
:101BF0004163636573736F72793A53656E645359C9
